:020000040000FA
:060000000A128A11FC2F18
:10099A00F0010D300A128A11BD260A128A110800C6
:1009AA00FF3083160313920005308312031392005B
:1009BA004F30970008000A128A11F5240A128A1188
:1009CA000A128A11CD240A128A11EB2C0A128A11F0
:1009DA0016250A128A11EB2CEB2C0A128A1100280E
:1009EA008130831203139F00C230831603139F00C2
:1009FA0085013F308500860100308600870100307E
:100A0A0087000A128A11D5240A128A118801003035
:100A1A008808831203138901073083160313890098
:100A2A000800F001F00A0D300A128A1186250A120E
:100A3A008A11F430F0000130F1000A128A113825C7
:100A4A000A128A11F0010D300A128A1186250A1239
:100A5A008A11F430F0000130F1000A128A113825A7
:100A6A000A128A110800F301F4017408803AF200AC
:100A7A007108803A7202031D442D70087302031C28
:100A8A00472D482D4A2D852D852DF501F60176082D
:100A9A00803AFF0081307F02031D552D9030750288
:100AAA00031C582D592D5B2D702D702D000001301F
:100ABA00F5070318F60A0030F6077608803AFF00B1
:100ACA0081307F02031D6B2D90307502031C6E2D41
:100ADA006F2D5B2D702D0130F3070318F40A0030D7
:100AEA00F4077408803AF2007108803A7202031D12
:100AFA00802D70087302031C832D842D4A2D852DA9
:100B0A000800F300612E700C83120313031C871371
:100B1A0003188717BC2E700C83120313031C0713C8
:100B2A0003180717BC2E700C83120313031C081139
:100B3A0003180815BC2E700C83120313031C8811AA
:100B4A0003188815BC2E700C83120313031C07129A
:100B5A0003180716BC2E700C83120313031C87128A
:100B6A0003188716BC2E700C83120313031C081279
:100B7A0003180816BC2E700C83120313031C881268
:100B8A0003188816BC2E700C83120313031C081357
:100B9A0003180817BC2E700C83120313031C881346
:100BAA0003188817BC2E700C83120313031C06103B
:100BBA0003180614BC2E700C83120313031C861030
:100BCA0003188614BC2E700C83120313031C06111F
:100BDA0003180615BC2E700C83120313031C06128D
:100BEA0003180616BC2E700C83120313031C8611FD
:100BFA0003188615BC2E700C83120313031C86126D
:100C0A0003188616BC2E700C83120313031C0613DA
:100C1A0003180617BC2E700C83120313031C8711CA
:100C2A0003188715BC2E700C83120313031C86133A
:100C3A0003188617BC2E700C83120313031C0512AB
:100C4A0003180516BC2E700C83120313031C85129D
:100C5A0003188516BC2E700C83120313031C07108D
:100C6A0003180714BC2E700C83120313031C87107D
:100C7A0003188714BC2E700C83120313031C07116C
:100C8A0003180715BC2E700C83120313031C88105B
:100C9A0003188814BC2E700C83120313031C08104B
:100CAA0003180814BC2E700C83120313031C0511BD
:100CBA0003180515BC2EBC2E7308F100F201720848
:100CCA00003A0319692EBC2E7108003A0319882DBF
:100CDA00013A0319902D033A0319982D013A031981
:100CEA00A02D073A0319A82D013A0319B02D033A8A
:100CFA000319B82D013A0319C02D0F3A0319C82D4B
:100D0A00013A0319D02D033A0319D82D013A0319D0
:100D1A00E02D073A0319E82D013A0319F02D033A99
:100D2A000319F82D013A0319002E1F3A0319082E48
:100D3A00013A0319102E033A0319182E013A03191E
:100D4A00202E073A0319282E013A0319302E033AA6
:100D5A000319382E013A0319402E0F3A0319482E67
:100D6A00013A0319502E033A0319582EBC2E0800D3
:100D7A00F300A02F700C83160313031C87130318A8
:100D8A008717FB2F700C83160313031C0713031812
:100D9A000717FB2F700C83160313031C0811031883
:100DAA000815FB2F700C83160313031C88110318F4
:100DBA008815FB2F700C83160313031C07120318E4
:100DCA000716FB2F700C83160313031C87120318D4
:100DDA008716FB2F700C83160313031C08120318C3
:100DEA000816FB2F700C83160313031C88120318B2
:100DFA008816FB2F700C83160313031C08130318A1
:100E0A000817FB2F700C83160313031C881303188F
:100E1A008817FB2F700C83160313031C0610031884
:100E2A000614FB2F700C83160313031C8610031879
:100E3A008614FB2F700C83160313031C0611031868
:100E4A000615FB2F700C83160313031C06120318D6
:100E5A000616FB2F700C83160313031C8611031846
:100E6A008615FB2F700C83160313031C86120318B6
:100E7A008616FB2F700C83160313031C0613031824
:100E8A000617FB2F700C83160313031C8711031814
:100E9A008715FB2F700C83160313031C8613031884
:100EAA008617FB2F700C83160313031C05120318F5
:100EBA000516FB2F831603139F111F159F101F1072
:100ECA00700C031C851203188516FB2F700C8316F1
:100EDA000313031C071003180714FB2F700C831647
:100EEA000313031C871003188714FB2F700C831637
:100EFA000313031C071103180715FB2F700C831625
:100F0A000313031C881003188814FB2F700C831614
:100F1A000313031C081003180814FB2F831603136A
:100F2A009F111F159F101F10700C031C0511031829
:100F3A000515FB2FFB2F7308F100F2017208003A26
:100F4A000319A82FFB2F7108003A0319BF2E013A83
:100F5A000319C72E033A0319CF2E013A0319D72EC4
:100F6A00073A0319DF2E013A0319E72E033A031948
:100F7A00EF2E013A0319F72E0F3A0319FF2E013A01
:100F8A000319072F033A03190F2F013A0319172FD1
:100F9A00073A03191F2F013A0319272F033A031996
:100FAA002F2F013A0319372F1F3A03193F2F013AFE
:100FBA000319472F033A03194F2F013A0319572FE1
:100FCA00073A03195F2F013A03196B2F033A0319E2
:100FDA00732F013A03197B2F0F3A0319832F013A12
:100FEA0003198B2F033A0319932FFB2F0800830150
:060FFA000A128A11E02C2E
:02400E00BA3FB7
:00000001FF
