:020000040000FA
:100000000A128A11F62FFF1B0D2883137F188317FE
:100010000008840A0319FF0A080000308A00040857
:10002000840A820700340D340034483449340034E3
:040030003B34003429
:10058200FF30831603139200053083120313920087
:100592004F3097000800F000CE2A831203130C1E7E
:1005A200D32AD42ACE2AD52A7008990008000A1222
:1005B2008A11ED220A128A110A128A11E8230A12FA
:1005C2008A11E32A0A128A1135230A128A11E32AAE
:1005D200E32A0A128A1100288130831203139F0032
:1005E200C230831603139F0085013F3085008601C8
:1005F200003086008701003087000A128A11C1226A
:100602000A128A11880100308808831203138901B3
:1006120007308316031389000800F300F101F20189
:10062200262B7108730784000A128A110D200A1200
:100632008A110A128A11CC220A128A110130F10798
:100642000318F20A0030F207262B710873078400A0
:100652000A128A110D200A128A11003A031D322B46
:10066200332B122B342B08000330F1008030F200C0
:100672000A128A1160230A128A11F001F00A0D305F
:100682000A128A1180250A128A11F430F000013010
:10069200F1000A128A119A230A128A11F0010D300E
:1006A2000A128A1180250A128A11F430F0000130F0
:1006B200F1000A128A119A230A128A110800F30120
:1006C200F4017E2B73087107840074080318740AFE
:1006D200720783120313FF000A128A1103200A12FF
:1006E2008A110A128A11CC220A128A110130F307E6
:1006F2000318F40A0030F4077E2B73087107840094
:1007020074080318740A720783120313FF000A1293
:100712008A1103200A128A11003A031D912B922B8F
:10072200632B932B0A300A128A11CC220A128A11E5
:100732000800F301F4017408803AF2007108803A6B
:100742007202031DA62B70087302031CA92BAA2B8D
:10075200AC2BE72BE72BF501F6017608803AFF0078
:1007620081307F02031DB72B90307502031CBA2B18
:10077200BB2BBD2BD22BD22B00000130F507031867
:10078200F60A0030F6077608803AFF0081307F02D1
:10079200031DCD2B90307502031CD02BD12BBD2B0A
:1007A200D22B0130F3070318F40A0030F40774085F
:1007B200803AF2007108803A7202031DE22B70083F
:1007C2007302031CE52BE62BAC2BE72B0800003051
:1007D20083120313A9000030A8002530A70080303F
:1007E200A6000A128A113A240A128A1183120313EA
:1007F200AC002C08B200F001013084000A128A1108
:100802000D200A128A110A128A11B7260A128A11B7
:10081200831203133208AC002C08F000013084006C
:100822000A128A110D200A128A110A128A118025CF
:100832000A128A11FD011E2C392C06300A128A1165
:100842000E230A128A117D0883120313AC00AD0134
:100852002C08F1002D08F2000A128A1160230A12F4
:100862008A11013083120313AC002C08FD071E2CE1
:100872000800831603131811831203132608F900C4
:100882002708FA002808FB002908FC00063003109C
:10089200F90DFA0DFB0DFC0DFF3E031D482C7C08E3
:1008A200F3007B08F2007A08F1007908F0000130C9
:1008B200F7003130F6002D30F5000030F4000A1256
:1008C2008A11DA240A128A117008FF3E8312031376
:1008D200AA0071080318013EFF3EAB0001302B0253
:1008E200003003192A02031C772C782CC32C8316A0
:1008F20003131815831203132608F9002708FA00B8
:100902002808FB002908FC0004300310F90DFA0D39
:10091200FB0DFC0DFF3E031D862C7C08F3007B08BB
:10092200F2007A08F1007908F0000130F700313066
:10093200F6002D30F5000030F4000A128A11DA2494
:100942000A128A117008FF3E83120313AA0071086B
:100952000318013EFF3EAB002A08831603139900D9
:100962001812831203139817831603138717071796
:100972008312031318168316031398160030D92C0A
:10098200D92CD92C83122A08831603139900181222
:1009920083120313981783160313871707178312FB
:1009A200031318168316031398160130D92CD92C69
:1009B200080083120313A101F31FE02CE12CEE2C9B
:1009C200F009F109F209F309F00A0319F10A03190E
:1009D200F20A0319F30AA101A10AF71FF12CF22C62
:1009E200022DF409F509F609F709F40A0319F50AC3
:1009F2000319F60A0319F70A0130F8007808A1066C
:100A0200022D0030A5000030A4000030A300003009
:100A1200A20073087204710470040319112D122DBF
:100A2200652DA001A00A232D0130F8000310F00D5E
:100A3200F10DF20DF30DF80B172D0130F8007808C7
:100A4200A007232DF31F262D272D152D292D292D06
:100A52000130F8000310A20DA30DA40DA50DF80B93
:100A62002B2D73087702031D402D72087602031D99
:100A7200402D71087502031D402D70087402031C7D
:100A8200432D442D542D7008F4027108031C710F7C
:100A9200F5027208031C720FF6027308031C730F2F
:100AA200F7022214542D01300310F30CF20CF10C56
:100AB200F00CFF3E031D552D0130A002031D622DD7
:100AC200632D292D652D652D21080319692D6A2DA8
:100AD200762DA209A309A409A509A20A0319A30A4A
:100AE2000319A40A0319A50A762D2508F300240880
:100AF200F2002308F1002208F0007F2D0800F30025
:100B02005B2E700C83120313031C871303188717C1
:100B1200B62E700C83120313031C07130318071756
:100B2200B62E700C83120313031C08110318081548
:100B3200B62E700C83120313031C88110318881538
:100B4200B62E700C83120313031C07120318071628
:100B5200B62E700C83120313031C87120318871618
:100B6200B62E700C83120313031C08120318081606
:100B7200B62E700C83120313031C881203188816F6
:100B8200B62E700C83120313031C081303180817E4
:100B9200B62E700C83120313031C881303188817D4
:100BA200B62E700C83120313031C061003180614CE
:100BB200B62E700C83120313031C861003188614BE
:100BC200B62E700C83120313031C061103180615AC
:100BD200B62E700C83120313031C0612031806169A
:100BE200B62E700C83120313031C8611031886158C
:100BF200B62E700C83120313031C8612031886167A
:100C0200B62E700C83120313031C06130318061767
:100C1200B62E700C83120313031C87110318871559
:100C2200B62E700C83120313031C86130318861747
:100C3200B62E700C83120313031C0512031805163B
:100C4200B62E700C83120313031C8512031885162B
:100C5200B62E700C83120313031C0710031807141B
:100C6200B62E700C83120313031C8710031887140B
:100C7200B62E700C83120313031C071103180715F9
:100C8200B62E700C83120313031C881003188814E9
:100C9200B62E700C83120313031C081003180814D9
:100CA200B62E700C83120313031C051103180515CD
:100CB200B62EB62E7308F100F2017208003A03193B
:100CC200632EB62E7108003A0319822D013A0319D8
:100CD2008A2D033A0319922D013A03199A2D073AE4
:100CE2000319A22D013A0319AA2D033A0319B22DB1
:100CF200013A0319BA2D0F3A0319C22D013A031909
:100D0200CA2D033A0319D22D013A0319DA2D073AF3
:100D12000319E22D013A0319EA2D033A0319F22DC0
:100D2200013A0319FA2D1F3A0319022E013A031947
:100D32000A2E033A0319122E013A03191A2E073A00
:100D42000319222E013A03192A2E033A0319322ECD
:100D5200013A03193A2E0F3A0319422E013A0319A6
:100D62004A2E033A0319522EB62E0800F3009A2F88
:100D7200700C83160313031C871303188717F52FB0
:100D8200700C83160313031C071303180717F52FA0
:100D9200700C83160313031C081103180815F52F92
:100DA200700C83160313031C881103188815F52F82
:100DB200700C83160313031C071203180716F52F72
:100DC200700C83160313031C871203188716F52F62
:100DD200700C83160313031C081203180816F52F50
:100DE200700C83160313031C881203188816F52F40
:100DF200700C83160313031C081303180817F52F2E
:100E0200700C83160313031C881303188817F52F1D
:100E1200700C83160313031C061003180614F52F17
:100E2200700C83160313031C861003188614F52F07
:100E3200700C83160313031C061103180615F52FF5
:100E4200700C83160313031C061203180616F52FE3
:100E5200700C83160313031C861103188615F52FD5
:100E6200700C83160313031C861203188616F52FC3
:100E7200700C83160313031C061303180617F52FB1
:100E8200700C83160313031C871103188715F52FA3
:100E9200700C83160313031C861303188617F52F91
:100EA200700C83160313031C051203180516F52F85
:100EB200831603139F111F159F101F10700C031C24
:100EC200851203188516F52F700C83160313031C65
:100ED200071003180714F52F700C83160313031C55
:100EE200871003188714F52F700C83160313031C45
:100EF200071103180715F52F700C83160313031C33
:100F0200881003188814F52F700C83160313031C22
:100F1200081003180814F52F831603139F111F15C9
:100F22009F101F10700C031C051103180515F52FD7
:100F3200F52F7308F100F2017208003A0319A22F8B
:100F4200F52F7108003A0319B92E013A0319C12E7F
:100F5200033A0319C92E013A0319D12E073A03198C
:100F6200D92E013A0319E12E033A0319E92E013A67
:100F72000319F12E0F3A0319F92E013A0319012F21
:100F8200033A0319092F013A0319112F073A0319DA
:100F9200192F013A0319212F033A0319292F013A74
:100FA2000319312F1F3A0319392F013A0319412F1F
:100FB200033A0319492F013A0319512F073A03192A
:100FC200592F013A0319652F033A03196D2F013A7C
:100FD2000319752F0F3A03197D2F013A0319852F33
:100FE200033A03198D2FF52F080083120313AE0164
:0E0FF200AF01B001B10183010A128A11D82AA1
:02400E00BA3FB7
:00000001FF
