:1000000003308A003B2B00000A108A100A11820775
:1000100028340C3401340634C837EC3000002E008C
:1000200083161F109F141F119F111F1383121F137C
:100030009F1783169F1783121F1483168914891420
:1000400089143F3085000030860087008312A000AD
:1000500083168800831220112008831687008312DC
:1000600007110C309700A010200883168700831218
:1000700087100C309D009B0195010030F800063878
:100080009200FA308316920083128A110A12542BBE
:100090002F3084008313000803195B280230F80016
:1000A000F701F70B5128F80B50289730F700F70BA2
:1000B0005728800B4E280800360EF039F7000F3015
:1000C00008057704880000000814662867280810CF
:1000D00008000808F700080E0F39F800080088101B
:1000E0000F3083160805F0388800831208150000C9
:1000F0000814000069207808B600081000000814F1
:10010000812869207808B50008100F30831608058B
:1001100088008312360EF700F030F70577083504B3
:10012000F8007808B500B51B7028331C8810331808
:1001300088140000081100000810340EB5000F30BC
:10014000B5053508B6005C2034080F39B500B60097
:100150005C2008002B308400831300080319BD289D
:100160000230F800F701F70BB328F80BB2289730EC
:10017000F700F70BB928800BB0280800300BC12816
:10018000C4284030B100C528B10101302F02B107A9
:1001900031088038B200B3013208B4006F20080083
:1001A0002E080C3A0319DB28063A0319E328023A11
:1001B0000319E928EE28B3010130B4006F200230A2
:1001C000AF004820F4280130AF000230B000BE205C
:1001D000F428B3011030B4006F20F4280130B300CC
:1001E0002E08B4006F20F4280800831603178C171C
:1001F0000C140000000083120C087F390319392900
:100200000313AB0003170D080313AC0003170F080B
:100210000313AD002B08AE00D0202C0803178D006F
:1002200003132D0803178F0083168C170C1400007E
:10023000000083120C0D0E0D7F39031939290313A9
:10024000AB0003170D080313AC0003170F080313CB
:10025000AD002B08AE00D0202C0803178D0003132F
:100260002D0803178F008D0A03198F0A0313F52831
:10027000031703130800A2010F3083160805880036
:1002800008108810081183128810081108100F3008
:10029000AF0048200130AB002B08033C031C582959
:1002A0000330B6005C200530AF004820AB0A4C2973
:1002B0000230B6005C20AB012B08033C031C69290B
:1002C0002B080420AC00B3012C08B4006F20AB0A4B
:1002D0005C296430AB00AA200130AF00B000BE2022
:1002E0000C3003178D0000308F000313F52002300F
:1002F000AF000130B000BE20AA012A080F3C031C49
:100300008F290F3003178D0000308F000313F52065
:100310000230AF002A08B000BE20AA0A7D2964304E
:10032000AB00AA208A110A12552B2D08FB3E031898
:10033000F029053EF5290030F8001F08C739780478
:100340009F001F151F19A2291E08FA0083161E08F8
:10035000F800F1298312F0290830F8001F08C73986
:1003600078049F001F151F19B3291E08FA00831671
:100370001E08F800F1298312F0291030F8001F0838
:10038000C73978049F001F151F19C4291E08FA00D9
:1003900083161E08F800F1298312F0291830F8009E
:1003A0001F08C73978049F001F151F19D5291E087B
:1003B000FA0083161E08F800F1298312F02928306C
:1003C000F8001F08C73978049F001F151F19E62978
:1003D0001E08FA0083161E08F800F1298312F0297E
:1003E000831683128A110A12012A0A148A100A112A
:1003F00082079B29AC29BD29CE29DF292B08AD0016
:1004000095297808AC002C08013A0319382A033AD8
:1004100003193C2A013A0319402A073A0319442ACE
:10042000293A0319482A2B3A03194C2A013A03198D
:10043000502A0F3A0319542A013A0319582A033A49
:1004400003195C2A013A0319602A073A0319642A3E
:10045000013A0319682A033A03196C2A013A03196D
:10046000702A1F3A0319742AEF3A0319782A7C2A52
:100470004130F800802A802A4230F800802A802A01
:100480004330F800802A802A4430F800802A802AED
:100490002A30F800802A802A2330F800802A802A17
:1004A0003030F800802A802A3130F800802A802AF3
:1004B0003230F800802A802A3330F800802A802ADF
:1004C0003430F800802A802A3530F800802A802ACB
:1004D0003630F800802A802A3730F800802A802AB7
:1004E0003830F800802A802A3930F800802A802AA3
:1004F0006E30F800802A802A6E30F800802A802A28
:100500000800F701F8012C0803102D18F707F70C65
:10051000F80CAD18F707F70CF80C2D19F707F70CC6
:10052000F80CAD19F707F70CF80C2D1AF707F70CB4
:10053000F80CAD1AF707F70CF80C2D1BF707F70CA2
:10054000F80CAD1BF707F70CF80C08002208003A6E
:100550000319B12A023A0319E72A033A03191D2B9A
:10056000382B2908023C031CD32AAB01FE21780852
:10057000A10021086E3C0319C62A253029078400F2
:100580008313303021028000A90AD22A2108413C7D
:10059000031DCD2A0330A900D22A2108423C031DA5
:1005A000D22AA901B12AA9012608AC000A30AD005F
:1005B000812278082507AB002708AC006430AD0025
:1005C000812278082B07A3000230A200382B2908CB
:1005D000023C031C092BAB01FE217808A100210875
:1005E0006E3C0319FC2A2530290784008313303020
:1005F00021028000A90A082B2108413C031D032B7E
:100600000330A900082B2108423C031D082BA90137
:10061000E72AA9012608AC000A30AD00812278083B
:100620002507AB002708AC006430AD0081227808B4
:100630002B07A4000130A200382BAB01FE21780863
:10064000A10021086E3C0319352B2108413C031DF4
:100650002B2BA201342B2108423C031D322B0230EC
:10066000A200342B0130A200372B0130A200382B1E
:100670008A110A12562B840183131F3083053030F0
:10068000A100A301A401A801A901AA0183161F14B6
:100690009F141F159F1107309C00FF308312A0008C
:1006A000A501A601A70110283B29A62A552B003039
:0406B000F8006300EB
:02400E00723FFF
:00000001FF
;PIC16F877A
;CRC=6491  CREATED="05-Jun-20 18:31"
