:060000000A128A110E280D
:10000800FE00030E83120313A2000A08A3000A12BB
:100018008A115A2F0A128A11112883134930840031
:100028006C300A128A157F270A128A11A0308400C0
:10003800C2300A128A157F270A128A1183010A120E
:100048008A11EA2F831203132B088039AC002C087D
:10005800B5002B08AC002C07AD002D08BC00AA1F6A
:100068003628372839283C1439283C0803193D28F4
:100078003E284F283C0A031D422843284C280030BC
:10008800AB000030AA000030A9000030A8004C28BE
:10009800AA17AB0158280030AB000030AA00003086
:1000A800A9000030A800582827088039AC002C087F
:1000B800B5062708AC002C07AD002D08BD00A61F0B
:1000C8006628672869283D1469283D0803196D28A2
:1000D8006E287F283D0A031D722873287C2800306B
:1000E800A7000030A6000030A5000030A4007C283E
:1000F800A617A70187280030A7000030A600003007
:10010800A5000030A4002708260425042404031DA4
:100118008E288F28A9280030AB000030AA000030B4
:10012800A9000030A8008030AA047F30AB0435084D
:10013800AC002C08AB042B08A7002A08A600290845
:10014800A5002808A4002E2A2E2A3C08031DAD2845
:10015800AE28C0280030AB000030AA000030A9004B
:100168000030A8002B08A7002A08A6002908A50027
:100178002808A4002E2A2E2A3D08AC00AD01AC099F
:10018800AD09AC0A0319AD0A3C082C07AE002D08CE
:1001980003182D0AAF002E087F3EB6002F0803185B
:1001A800013E003EB7002B08B4002A08B300290816
:1001B800B2002808B1000030AB000030AA000030BF
:1001C800A9000030A8000030BB000030BA000030A1
:1001D800B9000030B800BD013F293D080319F528D2
:1001E800F62818290130AC000310B10DB20DB30D7B
:1001F800B40DAC0BF8280130AC000310A80DA90D04
:10020800AA0DAB0DAC0B0129BB1F0B290C290E291C
:1002180028140E290130AC000310B80DB90DBA0D21
:10022800BB0DAC0B1029182927083402031D2629F9
:1002380026083302031D262925083202031D262914
:1002480024083102031C29292A293A293B172408A2
:10025800B1022508031C250FB2022608031C260F2D
:10026800B3022708031C270FB4023A290130AC0057
:100278002C08BD073F291A303D02031C4429452993
:10028800F1284629340833043204310403194D296E
:100298004E2970293814702970290130AC000310D8
:1002A800A80DA90DAA0DAB0DAC0B5329BB1F5D29D9
:1002B8005E296029281460290130AC000310B80DAC
:1002C800B90DBA0DBB0DAC0B6229FF30B607031888
:1002D800B70AFF30B7077029AA1F73297429512953
:1002E8007529BD01BB1F79297A299A29FF3038055C
:1002F800AC00FF303905AD00FF303A05AE007F3065
:100308003B05AF002F082E042D042C0403198D295A
:100318008E299129BD01BD0A9A29281C942995295D
:100328009A29BD01BD0A9A299A299A293D080319D3
:100338009E299F29D2290130A807003003180130CF
:10034800A907003003180130AA070030031801304C
:10035800AB072B1CB029B129D2292808AC002908E1
:10036800AD002A08AE002B08AF000130B0002F0DF9
:10037800AF0CAE0CAD0CAC0CB00BBB292F08AB000E
:100388002E08AA002D08A9002C08A8000130B607DD
:100398000318B70A0030B707D229D2293708803A9C
:1003A800FF0080307F02031DDB29FF303602031C6B
:1003B800DE29DF29EE29FF3083120313B60000304F
:1003C800B7000030AB000030AA000030A9000030B0
:1003D800A800EE29831203133708803AFF00803003
:1003E8007F02031DF929013036020318FC29FD2973
:1003F8000A2A83120313B601B7010030AB0000309C
:10040800AA000030A9000030A800B5018312031328
:100418003608AC002C08BC003C1C132A142A162AE7
:10042800AA171A2A7F30AC002C08AA053C08AC0091
:1004380003102C0CAD002D08AB003508AC002C08BF
:10044800AB042B08A7002A08A6002908A50028083D
:10045800A4002E2A080083120313C1003330B90008
:100468003908BD00F72A2530420603193C2A3D2ADF
:10047800492A4208B90041088400390883138000DA
:100488000130B9003908C107F72ABC01532A0B2BE0
:10049800F72AC030B9003908BC046D2A6D2A01302A
:1004A800B207FF30320784000A128A11BE270A12E7
:1004B8008A11C200B900BA013A08003A0319652A3C
:1004C800F72A3908003A03190B2B753A03194D2AF4
:1004D800F72A3D08840083130008BE00840A000838
:1004E800BF000230B9003908BD07C201C20A053091
:1004F8004206031D802A812A832AAB2AAB2A420896
:10050800B9003907013E84000A128A11BE270A126F
:100518008A11BA000A128A11BE270A128A11BB0070
:100528003B083F02031D9A2A3A083E0203189D2AF7
:100538009E2AA02AAB2AAB2A0130B9003908C20783
:1005480005304206031DA92AAA2A832AAB2A420893
:10055800B9003908C000EC2A0A30AC000030AD0000
:100568004008B9003907013E84000A128A11BE27E3
:100578000A128A11A4000A128A11BE270A128A11C5
:10058800A5003F08A7003E08A6000A128A11CA263D
:100598000A128A11831203132508AF002408AE003B
:1005A8000A128A1117270A128A11831203132C08B8
:1005B800303EBA003A08C2004208B9004108840037
:1005C8003908831380000130B9003908C107EC2AC3
:1005D800FF30B9003908C007400A031DF42AF52A7C
:1005E800B02AF72AF72A0130B207FF303207840011
:1005F8000A128A11BE270A128A11B9003908C200E4
:100608004208031D082B092B372A0B2B0B2B4108FB
:10061800840083138001102B0800F8007808031960
:10062800162B172B2B2BF31F1A2B1B2B2B2B70097D
:10063800FA007109FB007209FC007309FD00FA0A4F
:100648000319FB0A0319FC0A0319FD0A332B730863
:10065800FD007208FC007108FB007008FA007308BE
:10066800720471047004031D3A2B3B2B452B003098
:10067800F3000030F2000030F1000030F000D22B1F
:10068800D22B9630F4007408F900582B0130F4008E
:100698007408F90701300310FD0CFC0CFB0CFA0C74
:1006A800FF3E031D4F2B582BFE307D05031D5D2B90
:1006B8005E2B4A2B7B2B7B2B0130F4007408F90747
:1006C8000130FA07003003180130FB070030031827
:1006D8000130FC07003003180130FD07013003101A
:1006E800FD0CFC0CFB0CFA0CFF3E031D732BFF30BA
:1006F8007D05031D802B812B602B8F2B8F2B0130C9
:10070800F9020130F4000310FA0DFB0DFC0DFD0D8C
:10071800F40B872B8F2BFC1B922B932B9A2B0230DD
:1007280079020318982B992B832B9A2B79189D2BD8
:100738009E2BA62BFF30FA05FF30FB057F30FC050A
:10074800FF30FD050310F90C7908F400F501F601F6
:10075800F70118300310F40DF50DF60DF70DFF3EF7
:10076800031DAE2B7408FA047508FB047608FC0414
:100778007708FD0478080319C22BC32BC92BF31F74
:10078800C62BC72BC92BFD17C92B7D08F3007C0886
:10079800F2007B08F1007A08F000D22B08004C30F8
:1007A80083120313AB006E30AA006B30A900283007
:1007B800A8006908A7006808A6006708A5006608D9
:1007C800A4000A128A1126200A128A11831203131E
:1007D8002708C1002608C0002508BF002408BE005D
:1007E8000A128A11D8250A128A11831203133F08A4
:1007F800D0003E08CF006430A4000030A5005008A7
:10080800A7004F08A6000A128A11CA260A128A11DE
:10081800831203132508EB002408EA0064308316CA
:100828000313C200420883120313A4006A080A12C1
:100838008A15A0270A128A11FF3A013E8312031370
:100848004F0783160313C300430883120313DF0003
:100858004C30AB000F30AA000D30A9001830A800AA
:100868006908A7006808A6006708A5006608A4002C
:100878000A128A1126200A128A11831203132708E2
:10088800C1002608C0002508BF002408BE000A12BF
:100898008A11D8250A128A11831203133F08CA0045
:1008A8003E08C9000B3083160313C20042088312A6
:1008B8000313B2006B08B4006A08B3005F0883161C
:1008C8000313C300C401430883120313B50083163E
:1008D8000313440883120313B6004A08B8004908F2
:1008E800B700A4300A128A112F220A128A11A430E2
:1008F8000A128A1190270A128A11C8308312031328
:10090800A4000030A5000A128A1174260A128A115E
:10091800080083120313AE01A71F932C942CA12C5B
:10092800A409A509A609A709A40A0319A50A031970
:10093800A60A0319A70AAE01AE0AAB1FA42CA52C60
:10094800B52CA809A909AA09AB09A80A0319A90A73
:100958000319AA0A0319AB0A0130AC002C08AE0629
:10096800B52C0030B2000030B1000030B0000030CB
:10097800AF0027082604250424040319C42CC52C19
:10098800182DAD01AD0AD62C0130AC000310A40D12
:10099800A50DA60DA70DAC0BCA2C0130AC002C0878
:1009A800AD07D62CA71FD92CDA2CC82CDC2CDC2CB4
:1009B8000130AC000310AF0DB00DB10DB20DAC0B92
:1009C800DE2C27082B02031DF32C26082A02031D00
:1009D800F32C25082902031DF32C24082802031CE4
:1009E800F62CF72C072D2408A8022508031C250F30
:1009F800A9022608031C260FAA022708031C270F92
:100A0800AB022F14072D01300310A70CA60CA50C60
:100A1800A40CFF3E031D082D0130AD02031D152D4A
:100A2800162DDC2C182D182D2E0803191C2D1D2D04
:100A3800292DAF09B009B109B209AF0A0319B00AE3
:100A48000319B10A0319B20A292D3208A70031087F
:100A5800A6003008A5002F08A400322D0800831630
:100A680003131811831203133308B7003408B800AE
:100A78003508B9003608BA0006300310B70DB80DAE
:100A8800B90DBA0DFF3E031D412D3A08A7003908DC
:100A9800A6003808A5003708A4000130AB003130A3
:100AA800AA002D30A9000030A8000A128A118D244E
:100AB8000A128A11831203132408FF3EBB0025087B
:100AC8000318013EFF3EBC0001303C020030031910
:100AD8003B02031C702D712DBF2D831603131815AF
:100AE800831203133308B7003408B8003508B90077
:100AF8003608BA0004300310B70DB80DB90DBA0D99
:100B0800FF3E031D7F2D3A08A7003908A6003808C4
:100B1800A5003708A4000130AB003130AA002D3001
:100B2800A9000030A8000A128A118D240A128A111D
:100B3800831203132408FF3EBB0025080318013E57
:100B4800FF3EBC003B08831603139900181283125A
:100B580003139817831603138717071783120313B2
:100B680018168316031398168312031399019A0112
:100B7800D72DD72DD72D3B088316031399001812AC
:100B88008312031398178316031387170717831203
:100B98000313181683160313981683120313990167
:100BA8009A01D72DD72D0800831203133E08C200DF
:100BB8003F08C3004008C4004108C5000310440DA5
:100BC800450DC6004608C8004808031DEC2DED2D4C
:100BD800F72D0030C1000030C0000030BF000030E9
:100BE800BE00732E732E3E08C2003F08C3004008A3
:100BF800C4004108C5001F300310C50CC40CC30C49
:100C0800C20CFF3E031D002E4208C6004608C7005E
:100C1800C017FF30BE05FF30BF05FF30C0050030EC
:100C2800C1059630C802C81F1A2E1B2E402E480830
:100C3800803A973E0318212E222E2D2E0030C10017
:100C48000030C0000030BF000030BE00732E732E8D
:100C58002D2E01300310C10CC00CBF0CBE0CFF3E82
:100C6800031D2E2E0130C2004208C807031D3D2E69
:100C78003E2E2D2E632E632E20304802031C452E57
:100C8800462E5C2E0030C1000030C0000030BF008E
:100C98000030BE00732E732E5C2E0130C20003108C
:100CA800BE0DBF0DC00DC10DC20B532E0130C802C1
:100CB8004808031D602E612E512E632E632E4708AF
:100CC8000319672E682E732EBE09BF09C009C10912
:100CD800BE0A0319BF0A0319C00A0319C10A08008A
:100CE80083120313A701A8012808803AA600250843
:100CF800803A2602031D822E24082702031C852E13
:100D0800862E882EC92EC92E83120313A901AA0183
:100D18002A08803AFF0080307F02031D952EEC30B0
:100D28002902031C982E992E9B2EB22EB22E00005B
:100D3800013083120313A9070318AA0A0030AA076F
:100D48002A08803AFF0080307F02031DAD2EEC3068
:100D58002902031CB02EB12E9B2EB22E0130831215
:100D68000313A7070318A80A0030A8072808803A21
:100D7800A6002508803A2602031DC42E240827024F
:100D8800031CC72EC82E882EC92E080083120313F1
:100D9800A901AA01240825040319D32ED42E112F42
:100DA800AB01AB0AE32E01300310A40DA50DFF3EE5
:100DB800031DD82E0130A8002808AB07E32EA51F75
:100DC800E62EE72ED72EE92EE92E01300310A90DC5
:100DD800AA0DFF3E031DEA2E25082702031DF62E45
:100DE80024082602031CF92EFA2E022F2408A60234
:100DF8002508031CA703A7022914022F013003109A
:100E0800A50CA40CFF3E031D032F0130AB02031DEC
:100E18000E2F0F2FE92E112F112F2A08A5002908B0
:100E2800A400162F0800831203132C082D0403199D
:100E38001E2F1F2F542FB101B10A2E2F013003107E
:100E4800AC0DAD0DFF3E031D232F0130B00030085F
:100E5800B1072E2FAD1F312F322F222F342F342FD1
:100E68002D082F02031D3A2F2C082E02031C3D2F9C
:100E78003E2F452F2C08AE022D08031CAF03AF02EE
:100E8800452F01300310AD0CAC0CFF3E031D462F5F
:100E98000130B102031D512F522F342F542F542FDC
:100EA8002F08AD002E08AC00592F08000D1C5D2F2F
:100EB8005E2F892F1C08CE001B08CD004B09A0000F
:100EC8004C09A100A00A0319A10A4D082007F00047
:100ED8004E0803184E0A2107F100F201F301003011
:100EE8000A128A1111230A128A1173088312031332
:100EF800E9007208E8007108E7007008E6004E088B
:100F0800CC004D08CB000D10892F23088A00220E33
:100F18008300FE0E7E0E090083120313A800A601AB
:100F2800A701AB2F26082807A500250884008313EE
:100F380000080A128A1587270A128A1101308312BB
:100F48000313A6070318A70A0030A707AB2F260824
:100F58002807A5002508840083130008031DB52F62
:100F6800B62F962FB72F0A300A128A1587270A122A
:100F78008A11080007308A000408840A82070034AE
:100F8800013400340A34003464340034E83403345F
:100F980010342734463472346534713420343A348A
:100FA8002034253475342E342534753420344834AF
:100FB8007A3420347C342034523450344D347334F1
:100FC80020343A3420342534753400340A128A1512
:100FD800BB270A128A110A128A15DB270A128A11FC
:100FE800F52F0A128A11D3230A128A11F52FF52F29
:060FF8000A128A110E2806
:101EFE0064008001840A0406031900340406802F4E
:101F0E0083120313A4008B2F0C1E8E2F8F2F8B2F5B
:101F1E00902F240899000800FF30831603139200B7
:101F2E0005308312031392000C3097000C309D0085
:101F3E00080083120313A700A601A52F271CA82FA4
:101F4E00A92FAE2F2408A5002508A607AE2F031033
:101F5E00A40D0310A70C2708031DB62FB72FA52F0E
:101F6E00B82F2608BA2F08008130831203139F0062
:101F7E00C230831603139F0085013F308500860112
:101F8E00003086008701003087000A128A159327D9
:101F9E000A128A15880100308808831203138901FA
:101FAE008316031389010800003083120313B60051
:101FBE000030B5002530B4008030B3000A128A110B
:101FCE0033250A128A1583160313871483120313FB
:101FDE008E018F0190101016901610149D111D1564
:101FEE009D101D100D10831603130D140B178B1758
:021FFE000800D9
:02400E003A3F37
:00000001FF
