:100000000A128A11F52F00308A000408840A820738
:1000100000341734163415341434003413341234C5
:100020003C344334573420347C3420345234453407
:10003000543420347C3420344334433457343E34F5
:10004000003449346E3467342E3420344334613400
:1000500072346C346F347334203454342E3420347E
:10006000203400344334743472346C342E342034ED
:1000700048342D344234723469346434673465341E
:10008000003450347234613463347434693463340A
:100090006134203434340034503472346134633485
:1000A000743469346334613420343534003450346A
:1000B00072346134633474346934633461342034A9
:0400C000363400349E
:1000C6000134FA00FB01F9017A08F039F7007708E4
:1000D600FB007B08F70004300310F70CFF3E031DFE
:1000E6006F287708F8007808FB007A080F39F700C0
:1000F6007708F9007B080A128A1147250A128A1125
:10010600F001F00A8312031333080A128A11242419
:100116000A128A11F0018312031331080A128A1196
:1001260024240A128A11F001F00A831203133208FA
:100136000A128A1124240A128A110530F0000030AE
:10014600F1000A128A1565260A128A11F001831235
:10015600031332080A128A1124240A128A1105305E
:10016600F0000030F1000A128A1565260A128A117B
:1001760079080A128A1147250A128A11F001F00A33
:100186008312031332080A128A1124240A128A11CE
:100196000530F0000030F1000A128A1565260A12B1
:1001A6008A11F0018312031332080A128A112424D9
:1001B6000A128A110330F0000030F1000A128A1583
:1001C60065260A128A110800FD007D08FC007C08DD
:1001D60083120313B3002008FC007C08B200210838
:1001E600FC007C08B1002208FC007C08B000230853
:1001F600FC007C08AF002408FC007C08AE00250843
:10020600FC007C08AD00F0017D080A128A11032368
:100216000A128A11F0018312031320080A128A11A6
:1002260003230A128A11F0018312031321080A120A
:100236008A1103230A128A11F0018312031322087A
:100246000A128A1103230A128A11F0018312031378
:1002560023080A128A1103230A128A11F001831253
:10026600031324080A128A1103230A128A11F001C1
:100276008312031325080A128A1103230A128A110C
:100286000F30F0000030F1000A128A1565260A12B6
:100296008A1102300A128A157E270A128A1128301C
:1002A6000A128A157E270A128A1101300A128A1545
:1002B6007E270A128A110C300A128A157E270A1224
:1002C6008A1106300A128A157E270A128A11080038
:1002D600063084000A128A1103200A128A11831238
:1002E6000313A6002608A000053084000A128A110E
:1002F60003200A128A11A7002708A10004308400EF
:100306000A128A1103200A128A11A8002808A200DC
:10031600033084000A128A1103200A128A11A900E6
:100326002908A300023084000A128A1103200A1247
:100336008A11AA002A08A400013084000A128A1130
:1003460003200A128A11AB002B08A500073084008F
:100356000A128A1103200A128A110A128A11E72048
:100366000A128A110A128A1597250A128A11193059
:100376000A128A150E260A128A11E830F000033096
:10038600F1000A128A1565260A128A110A128A15BE
:1003960097250A128A11FC01FC0A02300A128A15F4
:1003A60039260A128A1183120313AC0110302C026B
:1003B600031CDE29DF29E129FD29FD292E300A1239
:1003C6008A15AB250A128A111430F0000030F100AC
:1003D6000A128A1565260A128A110130831203133E
:1003E600A6002608AC0710302C02031CFB29FC29AA
:1003F600E129FD290A128A1597250A128A11080091
:10040600ED2A0A128A1597250A128A1139300A121C
:100416008A150E260A128A114E2A00300A128A15E9
:1004260017270A128A11003A031D1A2A1B2A242AA0
:1004360083120313B401B40A0230A4002408B500E1
:100446004E2A01300A128A1517270A128A11003A13
:10045600031D2E2A2F2A392A0A128A15B3260A12B2
:100466008A1183120313B401B40A4E2A02300A1207
:100476008A1517270A128A11003A031D432A442AAD
:100486004E2A83120313B401B40AB501B50A4E2AE3
:100496004E2A4E2A4E2A831203133403031D542A6E
:1004A600552A102A562AB401022B0A128A159725B4
:1004B6000A128A1144300A128A150E260A128A1165
:1004C600992A00300A128A1517270A128A11003A49
:1004D600031D6E2A6F2A752A83120313B401B40A08
:1004E600B501992A01300A128A1517270A128A11AC
:1004F600003A031D7F2A802A822A992A992A0230E5
:100506000A128A1517270A128A11003A031D8C2A25
:100516008D2A992A83120313B401B40A0230A40067
:100526002408B500992A992A992A992A831203132D
:100536003403031D9F2AA02A642AA12AB401022B90
:100546000A128A1597250A128A114F300A128A153D
:100556000E260A128A11E22A00300A128A15172775
:100566000A128A11003A031DB92ABA2AC12A83122D
:100576000313B401B40AB501B50AE22A01300A121E
:100586008A1517270A128A11003A031DCB2ACC2A8C
:10059600CE2AE22AE22A02300A128A1517270A12FE
:1005A6008A11003A031DD82AD92AE22A8312031394
:1005B600B401B40AB501E22AE22AE22AE22A831247
:1005C60003133403031DE82AE92AAF2AEA2AB401F1
:1005D600022B022B831203133508A400A50125085C
:1005E600003A0319F72A022B2408003A0319042AB1
:1005F600013A0319582A033A0319A32A022B0800C1
:10060600F300CE2B700C83160313031C87130318F9
:100616008717232C700C83160313031C0713031868
:100626000717232C700C83160313031C8712031859
:100636008716232C700C83160313031C071203184A
:100646000716232C700C83160313031C871103183B
:100656008715232C700C83160313031C071103182C
:100666000715232C700C83160313031C871003181D
:100676008714232C700C83160313031C071003180E
:100686000714232C700C83160313031C061003187F
:100696000614232C700C83160313031C86100318F0
:1006A6008614232C700C83160313031C06110318DF
:1006B6000615232C700C83160313031C86110318CE
:1006C6008615232C700C83160313031C06120318BD
:1006D6000616232C700C83160313031C86120318AC
:1006E6008616232C700C83160313031C061303189B
:1006F6000617232C700C83160313031C861303188A
:100706008617232C700C83160313031C081003187A
:100716000814232C700C83160313031C881003186B
:100726008814232C700C83160313031C081103185A
:100736000815232C700C83160313031C8811031849
:100746008815232C700C83160313031C0812031838
:100756000816232C700C83160313031C8812031827
:100766008816232C700C83160313031C0813031816
:100776000817232C700C83160313031C8813031805
:100786008817232C700C83160313031C05120318F9
:100796000516232C232C7308F100F2017208003A87
:1007A6000319D62B232C7108003A0319052B013A9D
:1007B60003190D2B033A0319152B013A03191D2BA7
:1007C600073A0319252B013A03192D2B033A03196E
:1007D600352B013A03193D2B0F3A0319452B013AE4
:1007E60003194D2B033A0319552B013A03195D2BB7
:1007F600073A0319652B013A03196D2B033A0319BE
:10080600752B013A03197D2B1F3A0319852B013AE3
:1008160003198D2B033A0319952B013A03199D2BC6
:10082600073A0319A52B013A0319AD2B033A03190D
:10083600B52B013A0319BD2B0F3A0319C52B232CEF
:100846000800F300F12C700C83120313031C8713AA
:1008560003188717462D700C83120313031C071306
:1008660003180717462D700C83120313031C8712F7
:1008760003188716462D700C83120313031C0712E8
:1008860003180716462D700C83120313031C8711D9
:1008960003188715462D831203139701700C031C4A
:1008A600071103180715462D831203139D01700CBB
:1008B600031C871003188714462D700C831203132C
:1008C600031C071003180714462D700C831203131C
:1008D600031C061003180614462D700C831203130E
:1008E600031C861003188614462D700C83120313FE
:1008F600031C061103180615462D700C83120313EC
:10090600031C861103188615462D700C83120313DB
:10091600031C061203180616462D700C83120313C9
:10092600031C861203188616462D700C83120313B9
:10093600031C061303180617462D700C83120313A7
:10094600031C861303188617462D700C8312031397
:10095600031C081003180814462D700C8312031389
:10096600031C881003188814462D700C8312031379
:10097600031C081103180815462D700C8312031367
:10098600031C881103188815462D700C8312031357
:10099600031C081203180816462D700C8312031345
:1009A600031C881203188816462D700C8312031335
:1009B600031C081303180817462D700C8312031323
:1009C600031C881303188817462D700C8312031313
:1009D600031C051203180516462D462D7308F10053
:1009E600F2017208003A0319F92C462D7108003AF3
:1009F6000319262C013A03192E2C033A0319362C17
:100A0600013A03193E2C073A0319462C013A0319F9
:100A16004E2C033A0319572C013A0319602C0F3A4E
:100A26000319682C013A0319702C033A0319782C20
:100A3600013A0319802C073A0319882C013A031945
:100A4600902C033A0319982C013A0319A02C1F3A4B
:100A56000319A82C013A0319B02C033A0319B82C30
:100A6600013A0319C02C073A0319C82C013A031995
:100A7600D02C033A0319D82C013A0319E02C0F3A6B
:100A86000319E82C462D0800F600BA2FF001831250
:100A960003132D080A128A1124240A128A11F0015E
:100AA600831203132E080A128A1124240A128A11A9
:100AB600F001831203132F080A128A1124240A1242
:100AC6008A11F0018312031330080A128A112424B2
:100AD6000A128A11F42FF001831203132D080A1249
:100AE6008A1124240A128A11F001831203132E0894
:100AF6000A128A1124240A128A11F001831203139E
:100B06002F080A128A1124240A128A11F001F00A07
:100B16008312031330080A128A1124240A128A1136
:100B2600F42FF001831203132D080A128A112424CC
:100B36000A128A11F001831203132E080A128A116F
:100B460024240A128A11F001F00A831203132F08D3
:100B56000A128A1124240A128A11F001831203133D
:100B660030080A128A1124240A128A11F42FF0017D
:100B7600831203132D080A128A1124240A128A11D9
:100B8600F001831203132E080A128A1124240A1272
:100B96008A11F001F00A831203132F080A128A1130
:100BA60024240A128A11F001F00A83120313300872
:100BB6000A128A1124240A128A11F42FF0018312D0
:100BC60003132D080A128A1124240A128A11F0012D
:100BD600F00A831203132E080A128A1124240A1219
:100BE6008A11F001831203132F080A128A11242492
:100BF6000A128A11F0018312031330080A128A11AD
:100C060024240A128A11F42FF001831203132D08EB
:100C16000A128A1124240A128A11F001F00A831298
:100C260003132E080A128A1124240A128A11F001CB
:100C3600831203132F080A128A1124240A128A1116
:100C4600F001F00A8312031330080A128A112424D1
:100C56000A128A11F42FF001831203132D080A12C7
:100C66008A1124240A128A11F001F00A831203134E
:100C76002E080A128A1124240A128A11F001F00A97
:100C8600831203132F080A128A1124240A128A11C6
:100C9600F0018312031330080A128A1124240A125F
:100CA6008A11F42FF001831203132D080A128A11F8
:100CB60024240A128A11F001F00A831203132E0863
:100CC6000A128A1124240A128A11F001F00A8312E8
:100CD60003132F080A128A1124240A128A11F0011A
:100CE600F00A8312031330080A128A1124240A1206
:100CF6008A11F42FF001F00A831203132D080A1249
:100D06008A1124240A128A11F001831203132E0871
:100D16000A128A1124240A128A11F001831203137B
:100D26002F080A128A1124240A128A11F00183124A
:100D3600031330080A128A1124240A128A11F42F86
:100D4600F001F00A831203132D080A128A112424D3
:100D56000A128A11F001831203132E080A128A114D
:100D660024240A128A11F001831203132F080A128F
:100D76008A1124240A128A11F001F00A831203133D
:100D860030080A128A1124240A128A11F42FF0015B
:100D9600F00A831203132D080A128A1124240A1258
:100DA6008A11F001831203132E080A128A112424D1
:100DB6000A128A11F001F00A831203132F080A128D
:100DC6008A1124240A128A11F001831203133008AF
:100DD6000A128A1124240A128A11F42FF001F00A49
:100DE600831203132D080A128A1124240A128A1167
:100DF600F001831203132E080A128A1124240A1200
:100E06008A11F001F00A831203132F080A128A11BD
:100E160024240A128A11F001F00A831203133008FF
:100E26000A128A1124240A128A11F42FF001F00AF8
:100E3600831203132D080A128A1124240A128A1116
:100E4600F001F00A831203132E080A128A112424D1
:100E56000A128A11F001831203132F080A128A114B
:100E660024240A128A11F0018312031330080A128D
:100E76008A1124240A128A11F42FF001F00A83122F
:100E860003132D080A128A1124240A128A11F0016A
:100E9600F00A831203132E080A128A1124240A1256
:100EA6008A11F001831203132F080A128A112424CF
:100EB6000A128A11F001F00A8312031330080A128B
:100EC6008A1124240A128A11F42FF001F00A8312DF
:100ED60003132D080A128A1124240A128A11F0011A
:100EE600F00A831203132E080A128A1124240A1206
:100EF6008A11F001F00A831203132F080A128A11CD
:100F060024240A128A11F0018312031330080A12EC
:100F16008A1124240A128A11F42FF001F00A83128E
:100F260003132D080A128A1124240A128A11F001C9
:100F3600F00A831203132E080A128A1124240A12B5
:100F46008A11F001F00A831203132F080A128A117C
:100F560024240A128A11F001F00A831203133008BE
:100F66000A128A1124240A128A11F42FF42F760801
:100F7600F400F5017508003A0319C22FF42F74081E
:100F8600003A0319492D013A03196E2D033A031944
:100F9600942D013A0319BA2D073A0319E12D013AA6
:100FA6000319072E033A03192E2E013A0319552E5B
:100FB6000F3A03197D2E013A0319A32E033A03199A
:100FC600CA2E013A0319F12E073A0319192F013ACD
:100FD6000319402F033A0319682F013A0319902F7A
:100FE600F42F08000A128A1163200A128A11B5002A
:0A0FF600B40183010A128A15BC2D14
:101B2E0001300A128A157E270A128A150800FF3024
:101B3E0083160313920005308312031392000C30A8
:101B4E0097000C309D000800FC000830F0000030BB
:101B5E00F1000A128A1565260A128A157C080A12E5
:101B6E008A1164200A128A1508000A128A15EA25BB
:101B7E000A128A150A128A116B210A128A15C72DAA
:101B8E000A128A1103220A128A15C72D0A128A1105
:101B9E000028F200D62DE92DE92DE92DE92D720848
:101BAE00F000F1017108003A0319DE2DE92D7008DD
:101BBE00033A0319E92D073A0319E92D013A0319DE
:101BCE00E92DE92D08008130831203139F00C230E6
:101BDE00831603139F0085013F3085008601003078
:101BEE008600860187010030870087010A128A1558
:101BFE009E250A128A1588010030880888018312F2
:101C0E00031389010730831603138900080083121A
:101C1E000313A200A001A1012A2E2008220784008E
:101C2E000A128A1103200A128A150A128A15AB2586
:101C3E000A128A15013083120313A0070318A10A92
:101C4E000030A1072A2E2008220784000A128A11CA
:101C5E0003200A128A15003A031D362E372E142E33
:101C6E00382E080083120313A000A1012003031DC8
:101C7E00412E422E4E2E7C087F3EFD007D08A10097
:101C8E0021080A128A157E270A128A15642E02303E
:101C9E00831203132006031D552E562E642E7C0828
:101CAE00BF3EFD007D08A10021080A128A157E277D
:101CBE000A128A15642E642E642E0800F301F401B4
:101CCE007408803AF2007108803A7202031D712E78
:101CDE0070087302031C742E752E772EB22EB22E40
:101CEE00F501F6017608803AFF0080307F02031D71
:101CFE00822EEB307502031C852E862E882E9D2E8D
:101D0E009D2E00000130F5070318F60A0030F60785
:101D1E007608803AFF0080307F02031D982EEB304C
:101D2E007502031C9B2E9C2E882E9D2E0130F307D0
:101D3E000318F40A0030F4077408803AF2007108B0
:101D4E00803A7202031DAD2E70087302031CB02E72
:101D5E00B12E772EB22E080083120313A3010A129E
:101D6E008A1597250A128A152A300A128A150E2606
:101D7E000A128A15FC01FC0A02300A128A1539264B
:101D8E000A128A1508300A128A150E260A128A15A8
:101D9E000E2F00300A128A1517270A128A15003ADA
:101DAE00031DDA2EDB2EE22E03300A128A15D02501
:101DBE000A128A150E2F01300A128A1517270A12D7
:101DCE008A15003A031DEC2EED2EF22E831203130C
:101DDE00A301A30A0E2F02300A128A1517270A1220
:101DEE008A15003A031DFC2EFD2E042F04300A1214
:101DFE008A15D0250A128A150E2F05300A128A1559
:101E0E00D0250A128A150E2F0E2F0E2F0E2F83128B
:101E1E0003132303031D142F152FD02E162F080086
:101E2E00F9006A2F83120313091C1E2F1F2F2F2F49
:101E3E001930F0000030F1000A128A1565260A12D8
:101E4E008A1583120313090801397D2F7D2F7D2FEB
:101E5E0000307D2F7D2F7D2F83120313891C382F89
:101E6E00392F492F1930F0000030F1000A128A156F
:101E7E0065260A128A1583120313090C01397D2F68
:101E8E007D2F7D2F00307D2F7D2F7D2F831203130D
:101E9E00091D522F532F652F1930F0000030F1001D
:101EAE000A128A1565260A128A1583120313090C63
:101EBE00F700770C01397D2F7D2F7D2F00307D2F80
:101ECE007D2F7D2F7D2F7908F700F8017808003AD5
:101EDE000319722F7D2F7708003A0319192F013A33
:101EEE000319332F033A03194D2F7D2F0800FA00E3
:101EFE00FB01F9017A08F039F7007708FB007B083F
:101F0E00F70004300310F70CFF3E031D892F7708EE
:101F1E00F8007808FB007A080F39F7007708F90007
:101F2E007B080A128A1147250A128A15F0018312BC
:101F3E00031333080A128A1124240A128A15F00197
:101F4E008312031331080A128A1124240A128A15E5
:101F5E00F001F00A8312031332080A128A112424A4
:101F6E000A128A150530F0000030F1000A128A15A7
:101F7E0065260A128A15F0018312031332080A121B
:101F8E008A1124240A128A150530F0000030F1005F
:101F9E000A128A1565260A128A1579080A128A11FA
:101FAE0047250A128A15F001F00A8312031332082C
:101FBE000A128A1124240A128A150530F000003004
:101FCE00F1000A128A1565260A128A15F00183128B
:101FDE00031332080A128A1124240A128A150330B6
:101FEE00F0000030F1000A128A1565260A128A15D1
:021FFE000800D9
:02400E00BA3FB7
:00000001FF
