:060000000A128A11EA2F2A
:10000800FF30831603139200053083120313920006
:100018009B0195010C3097000C309D000800FA00F8
:10002800FB01F9017A08F039F7007708FB007B0833
:10003800F70004300310F70CFF3E031D1E28770855
:10004800F8007808FB007A080F39F7007708F900FC
:100058007B080A128A1552250A128A11F001F00A41
:100068008316031332080A128A1196200A128A117B
:10007800F0018316031330080A128A1196200A1217
:100088008A11F001F00A8316031331080A128A1143
:1000980096200A128A110530F0000030F1000A1685
:1000A8008A11F8220A128A11F00183160313310803
:1000B8000A128A1196200A128A110530F0000030BF
:1000C800F1000A168A11F8220A128A1179080A120E
:1000D8008A1552250A128A11F001F00A83160313B1
:1000E80031080A128A1196200A128A110530F00086
:1000F8000030F1000A168A11F8220A128A11F0015A
:100108008316031331080A128A1196200A128A11DB
:100118000330F0000030F1000A168A11F8220A12A2
:100128008A110800F3006329700C83120313031C5F
:10013800871303188717B829700C83120313031C3D
:10014800071303180717B829700C83120313031C2D
:10015800871203188716B829700C83120313031C1F
:10016800071203180716B829700C83120313031C0F
:10017800871103188715B829831203139701700C88
:10018800031C071103180715B829831203139D01CF
:10019800700C031C871003188714B829700C83127D
:1001A8000313031C071003180714B829700C8312D3
:1001B8000313031C061003180614B829700C8312C5
:1001C8000313031C861003188614B829700C8312B5
:1001D8000313031C061103180615B829700C8312A3
:1001E8000313031C861103188615B829700C831293
:1001F8000313031C061203180616B829700C831281
:100208000313031C861203188616B829700C831270
:100218000313031C061303180617B829700C83125E
:100228000313031C861303188617B829700C83124E
:100238000313031C081003180814B829700C831240
:100248000313031C881003188814B829700C831230
:100258000313031C081103180815B829700C83121E
:100268000313031C881103188815B829700C83120E
:100278000313031C081203180816B829700C8312FC
:100288000313031C881203188816B829700C8312EC
:100298000313031C081303180817B829700C8312DA
:1002A8000313031C881303188817B829700C8312CA
:1002B8000313031C051203180516B829B829730877
:1002C800F100F2017208003A03196B29B829710884
:1002D800003A03199828013A0319A028033A031988
:1002E800A828013A0319B028073A0319B828013A8F
:1002F8000319C028033A0319C928013A0319D22857
:100308000F3A0319DA28013A0319E228033A0319C4
:10031800EA28013A0319F228073A0319FA28013A98
:1003280003190229033A03190A29013A0319122960
:100338001F3A03191A29013A03192229033A031902
:100348002A29013A03193229073A03193A29013AA5
:1003580003194229033A03194A29013A0319522970
:100368000F3A03195A29B8290800770880398312E7
:100378000313A0002008AC007708A0002007A10004
:100388002108AE00F61FC929CA29CC292E14CC2968
:100398002E080319D029D129E2292E0A031DD529AF
:1003A800D629DF290030F7000030F6000030F500CC
:1003B8000030F400DF29F617F701EB290030F700C9
:1003C8000030F6000030F5000030F400EB297B081F
:1003D8008039A0002008AD002D082C060319F52946
:1003E800F629F8292C17F8297B08A0002007A10076
:1003F8002108AD00FA1F012A022A042A2D14042A12
:100408002D080319082A092A1A2A2D0A031D0D2A5C
:100418000E2A172A0030FB000030FA000030F900DD
:100428000030F800172AFA17FB01222A0030FB00D7
:100438000030FA000030F9000030F8002E082D02D4
:100448000318272A282A6E2A2C1F2B2A2C2A312AFD
:100458008030A0002008AC06312A2E08A000200811
:10046800AF002D08A0002008AE002F08A00020082B
:10047800AD007408A0002008AF007808A00020088C
:10048800F4002F08A0002008F8007508A000200834
:10049800AF007908A0002008F5002F08A000200868
:1004A800F9007608A0002008AF007A08A00020080C
:1004B800F6002F08A0002008FA007708A0002008FE
:1004C800AF007B08A0002008F7002F08A000200834
:1004D800FB006E2AAF012E08A000A101A009A10906
:1004E800A00A0319A10A2D082007A2002108031851
:1004F800210AA3002308803AFF0080307F02031DF1
:10050800872A1A302202031C8A2A8B2ACC2A7708C7
:10051800760475047404031D922A942A0130952ADE
:10052800003083120313A0002008AF000030F7004A
:100538000030F6000030F5000030F4002D08A0006F
:100548002008AE00D52ACC2A2F1CAB2AAC2AB52A03
:100558002F08A0000310200C0138A1002108AF00CB
:10056800B82A0310AF0CB82A741CBB2ABC2ABE2AAE
:10057800AF17BE2A0130A000770DF70CF60CF50C6A
:10058800F40CA00BC02A0130A0002008AE07CC2A2A
:10059800831203132D082E02031CD32AD42AA82A57
:1005A800D52A2C1BD82AD92A282B2E08031DDD2A48
:1005B800DE2AE82A0030F7000030F6000030F500A7
:1005C8000030F400742C742C7808F40779080311AF
:1005D8000318013E0319F12AF5077A0803110318D5
:1005E800013E0319F82AF6077B0803110318013E98
:1005F8000319FF2AF707771C022B032BF12B2F1C5B
:10060800062B072B102B2F08A0000310200C0138F5
:10061800A1002108AF00132B0310AF0C132B741C7F
:10062800162B172B192BAF17192B0130A000770D9C
:10063800F70CF60CF50CF40CA00B1B2B0130A000EA
:100648002008AE07F12BF12B7708803AFF007B08D2
:10065800803A7F02031D3A2B7A087602031D3A2B53
:1006680079087502031D3A2B7808740203183D2B8C
:100678003E2BA42BFF30A000FF30A100FF30A200CA
:10068800FF30A3007808A4007908A5007A08A6001E
:100698007B08A7007409A8007509A9007609AA00B3
:1006A8007709AB00A80A0319A90A0319AA0A0319AA
:1006B800AB0A2808A40729080318290F642B652BFF
:1006C800A5072A0803182A0F6A2B6B2BA6072B08E5
:1006D80003182B0AA7072408A00725080318250FC5
:1006E800762B772BA10726080318260F7C2B7D2B4A
:1006F800A20727080318270AA3072308F7002208D8
:10070800F6002108F5002008F4008030A000200839
:10071800AC06AF09AF0A2F08031D932B942BB22BFD
:100728000130F407003003180130F50700300318D2
:100738000130F607003003180130F707B22BB22B4F
:100748007808F4027908031C790FF5027A08031C6B
:100758007A0FF6027B08031C7B0FF70277087604F2
:1007680075047404031DB92BBA2BEB2B2F08031D3A
:10077800BE2BBF2BEB2B0030F7000030F60000300B
:10078800F5000030F400742C742CEB2B0130A00021
:100798000310F40DF50DF60DF70DA00BCC2BAF1FC4
:1007A800D62BD72BD82B74142F1CDB2BDC2BDF2B51
:1007B8000314AF0DE22B0310AF0DE22B2E08031923
:1007C800E62BE72BEB2B0130AE02EB2BEB2BF61FC6
:1007D800EE2BEF2BCA2BF12BF12BAD01AF1FF52B15
:1007E800F62B082C2F087F390319FB2BFC2BFF2B2A
:1007F800AD01AD0A082C741C022C032C082CAD0189
:10080800AD0A082C082C082C2D0803190C2C0D2CCB
:10081800432C0130F407003003180130F50700308D
:1008280003180130F607003003180130F707771C6A
:100838001E2C1F2C432C7408A0007508A1007608F4
:10084800A2007708A3000130A400230DA30CA20C7A
:10085800A10CA00CA40B292C2308F7002208F600F1
:100868002108F5002008F4002E0A03193C2C3D2C21
:10087800432C0130A0002008AE07432C432C2E0A3D
:100888000319472C482C4E2C2E08031D4C2C4D2C9C
:100898005E2C4E2C0030F7000030F6000030F500DA
:1008A8000030F4002E08031D5A2C5B2C5E2CAC0182
:1008B8005E2C5E2C2E1C612C622C642CF617682C86
:1008C8007F30A0002008F6052E08A0000310200C99
:1008D800A1002108F700AC1F722C732C742CF71799
:1008E8000800831203134D088039D2005208D7003C
:1008F8004D08D2005207D3005308DD00CC1F852CC9
:10090800862C882C5D14882C5D0803198C2C8D2C62
:100918009D2C5D0A031D912C922C9B2C0030CD0040
:100928000030CC000030CB000030CA009B2CCC1724
:10093800A62C0030CD000030CC000030CB000030B9
:10094800CA00A62C51088039D2005208D70651088F
:10095800D2005207D3005308DC00D01FB42CB52CAA
:10096800B72C5C14B72C5C080319BB2CBC2CCC2C02
:100978005C0A031DC02CC12CCA2C0030D1000030E9
:10098800D0000030CF000030CE00CA2CD017D52CB4
:100998000030D1000030D0000030CF000030CE0051
:1009A800D52C5C080319D92CDA2CE02C5D08031D22
:1009B800DE2CDF2CEA2CE02C0030CD000030CC00FF
:1009C8000030CB000030CA00E92FE92F4A08D200D6
:1009D8005208F00050080A168A11A2210A128A1138
:1009E800710883120313E3007008E2006208D20062
:1009F800D301D401D5015508DB005408DA005308A7
:100A0800D9005208D8006308D200D301D401D50117
:100A18005508E1005408E0005308DF005208DE00E2
:100A28004B08D2005208F0004F080A168A11A2217A
:100A38000A128A11710883120313E3007008E20096
:100A48006208D200D301D401D5015208D80753084F
:100A580003110318013E0319322DD9075408031155
:100A68000318013E0319392DDA0755080311031835
:100A7800013E0319402DDB076308D200D301D401DE
:100A8800D5015208DE07530803110318013E031964
:100A98004E2DDF07540803110318013E0319552D85
:100AA800E007550803110318013E03195C2DE107FF
:100AB8004C08D2005208F0004E080A168A11A221EA
:100AC8000A128A11710883120313E3007008E20006
:100AD8006208D200D301D401D5015208D8075308BF
:100AE80003110318013E03197A2DD907540803117D
:100AF8000318013E0319812DDA075508031103185D
:100B0800013E0319882DDB076308D200D301D40105
:100B1800D5015208DE07530803110318013E0319D3
:100B2800962DDF07540803110318013E03199D2D64
:100B3800E007550803110318013E0319A42DE10726
:100B48000830D2000310D80DD90DDA0DDB0DD20B09
:100B5800A62D4B08D2005208F0004E080A168A113A
:100B6800A2210A128A11710883120313E300700884
:100B7800E2006208D2006308D300D401D50152080C
:100B8800D807530803110318013E0319CC2DD907C0
:100B9800540803110318013E0319D32DDA07550829
:100BA80003110318013E0319DA2DDB074A08D200A6
:100BB8005208F0004F080A168A11A2210A128A1157
:100BC800710883120313E3007008E2006208D20080
:100BD8006308D300D401D5015208D807530803117C
:100BE8000318013E0319F92DD907540803110318F6
:100BF800013E0319002EDA07550803110318013EB8
:100C08000319072EDB070830D2000310D80DD90DC1
:100C1800DA0DDB0DD20B092E4A08D2005208F0007B
:100C28004E080A168A11A2210A128A117108831223
:100C38000313E3007008E2006208D2006308D300DF
:100C4800D401D5015208D807530803110318013EEF
:100C580003192F2ED907540803110318013E03194D
:100C6800362EDA07550803110318013E03193D2EE5
:100C7800DB074B08D2005208F00050080A168A1108
:100C8800A2210A128A11710883120313E300700863
:100C9800E2006208D2006308D300D401D5015208EB
:100CA800DE07530803110318013E03195C2EDF0702
:100CB800540803110318013E0319632EE007550871
:100CC80003110318013E03196A2EE1074C08D200EC
:100CD8005208F0004F080A168A11A2210A128A1136
:100CE800710883120313E3007008E2006208D2005F
:100CF8006308D300D401D5015208DE075308031155
:100D08000318013E0319892EDF075408031103183D
:100D1800013E0319902EE007550803110318013E00
:100D28000319972EE1074C08D2005208F00050082A
:100D38000A168A11A2210A128A1171088312031352
:100D4800E3007008E2006208D2006308D300D4010F
:100D5800D50108300310D20DD30DD40DD50DFF3EAB
:100D6800031DAE2E5208DE07530803110318013E77
:100D78000319BF2EDF07540803110318013E031996
:100D8800C62EE007550803110318013E0319CD2E9E
:100D9800E1075808D2005908D3005A08D4005B0864
:100DA800D50018300310D50CD40CD30CD20CFF3E50
:100DB800031DD62E5208DE07530803110318013EFF
:100DC8000319E72EDF07540803110318013E03191E
:100DD800EE2EE007550803110318013E0319F52EFE
:100DE800E1070830D2000310D80DD90DDA0DDB0D5C
:100DF800D20BF72E5D085C07D200D301D30D520841
:100E0800823EE20053080318013EFF3EE3002B2F09
:100E18000130D2000310DE0DDF0DE00DE10DD20B25
:100E28000E2FDB1F182F192F1B2F5E141B2F0130BD
:100E3800D2000310D80DD90DDA0DDB0DD20B1D2F02
:100E4800FF30E2070318E30AFF30E3072B2FE01F08
:100E58002E2F2F2F0C2F302FDC01DB1F342F352F97
:100E6800552FFF305805D200FF305905D300FF3009
:100E78005A05D4007F305B05D50055085404530447
:100E880052040319482F492F4C2FDC01DC0A552F37
:100E98005E1C4F2F502F552FDC01DC0A552F552F84
:100EA800552F5C080319592F5A2F8D2F0130DE0753
:100EB800003003180130DF07003003180130E00765
:100EC800003003180130E107611C6B2F6C2F8D2F48
:100ED8005E08D2005F08D3006008D4006108D5001E
:100EE8000130D600550DD50CD40CD30CD20CD60B32
:100EF800762F5508E1005408E0005308DF00520837
:100F0800DE000130E2070318E30A0030E3078D2F03
:100F18008D2F6308803AFF0080307F02031D962FD3
:100F2800FF306202031C992F9A2FA52F7F3083125E
:100F38000313E1008030E0000030DF000030DE0005
:100F4800DC2F831203136308803AFF0080307F028E
:100F5800031DB02F013062020318B32FB42FC02F26
:100F6800003083120313E1000030E0000030DF009E
:100F78000030DE00D701DC2F831203136208D20091
:100F88005208DD00FF30DE05FF30DF057F30E00569
:100F98000030E1055D1CD12FD22FD42FE017D42FBC
:100FA8005D08D2000310520CD3005308E100DC2F77
:100FB8005708D2005208E1046108CD006008CC004F
:100FC8005F08CB005E08CA00E92F08008313A03031
:100FD8008400C3300A168A114C210A128A11831719
:100FE80090308400BF300A168A114C210A128A11E7
:100FF80083010A168A117229FF1B0A2883137F1896
:1010080083170008840A0319FF0A080008308A00B9
:101018000408840A82070034013400340A34003496
:1010280064340034E8340334103427340C34133473
:101038001234113410341934153414342034203453
:1010480020342034203420342034203420342034F8
:1010580020342034203420342034203400345034D8
:1010680049344434203443346F346E347434723425
:101078006F346C342034543465347334743400342D
:10108800543469346D3465343D3425347534203432
:1010980000344E344F3457343D34253475340034DD
:1010AA00F100D730F00070088316031381050B1185
:1010BA007103FF3AFF3E8312031381007108F000A7
:1010CA007008831603179C000800F3003529700C7A
:1010DA0083160313031C8713031887178A29700CB6
:1010EA0083160313031C0713031807178A29700CA6
:1010FA0083160313031C8712031887168A29700C98
:10110A0083160313031C0712031807168A29700C87
:10111A0083160313031C8711031887158A29700C79
:10112A0083160313031C0711031807158A29700C69
:10113A0083160313031C8710031887148A29700C5B
:10114A0083160313031C0710031807148A29700C4B
:10115A0083160313031C0610031806148A29700C3D
:10116A0083160313031C8610031886148A29700C2D
:10117A0083160313031C0611031806158A29700C1B
:10118A0083160313031C8611031886158A29700C0B
:10119A0083160313031C0612031806168A29700CF9
:1011AA0083160313031C8612031886168A29700CE9
:1011BA0083160313031C0613031806178A29700CD7
:1011CA0083160313031C8613031886178A29700CC7
:1011DA0083160313031C0810031808148A29700CB9
:1011EA0083160313031C8810031888148A29700CA9
:1011FA0083160313031C0811031808158A29700C97
:10120A0083160313031C8811031888158A29700C86
:10121A0083160313031C0812031808168A29700C74
:10122A0083160313031C8812031888168A29700C64
:10123A0083160313031C0813031808178A29700C52
:10124A0083160313031C8813031888178A29700C42
:10125A0083160313031C0512031805168A298A2903
:10126A007308F100F2017208003A03193D298A292C
:10127A007108003A03196C28013A03197428033AD1
:10128A0003197C28013A03198428073A03198C2880
:10129A00013A03199428033A03199C28013A0319BD
:1012AA00A4280F3A0319AC28013A0319B428033ABF
:1012BA000319BC28013A0319C428073A0319CC2890
:1012CA00013A0319D428033A0319DC28013A03190D
:1012DA00E4281F3A0319EC28013A0319F428033ABF
:1012EA000319FC28013A03190429073A03190C299E
:1012FA00013A03191429033A03191C29013A03195B
:10130A0024290F3A03192C298A2908008312031366
:10131A006708F7006608F6006508F5006408F40037
:10132A006B08F3006A08F2006908F1006808F00027
:10133A000A168A1154210A128A157308FB007208C8
:10134A00FA007108F9007008F8000A128A11B92126
:10135A000A128A15770883160317A2007608A100D5
:10136A007508A00074089F000F30903E8400831710
:10137A000008F400840A0008F500840A0008F60050
:10138A00840A0008F7001730903E84000008F8002D
:10139A00840A0008F900840A0008FA00840A00088E
:1013AA00FB000A128A11B9210A128A1577088316D4
:1013BA000317AA007608A9007508A8007408A700F0
:1013CA00130883120313CD0083160317120883121E
:1013DA000313CC0083160317110883120313CB00DF
:1013EA0083160317100883120313CA000F30903EA6
:1013FA00840083170008CE00840A0008CF00840AFC
:10140A000008D000840A0008D1000A128A11752443
:10141A000A128A15831203134D0883160317B6009E
:10142A00831203134C0883160317B50083120313A0
:10143A004B0883160317B400831203134A08831652
:10144A000317B3001730903E8400831700088312F5
:10145A000313CA00840A0008CB00840A0008CC00DF
:10146A00840A0008CD000430903E84000008CE00B3
:10147A00840A0008CF00840A0008D000840A000801
:10148A00D1000A128A1175240A128A1583120313CB
:10149A004D0883160317B200831203134C088316F0
:1014AA000317B100831203134B0883160317B00006
:1014BA00831203134A0883160317AF000830903EBD
:1014CA0084008317000883120313CA00840A0008E1
:1014DA00CB00840A0008CC00840A0008CD006F08FB
:1014EA00B3006E08B2006D08B1006C08B0000F308E
:1014FA00903E84000008F400840A0008F500840A7B
:10150A000008F600840A0008F7001330903E8400B1
:10151A000008F000840A0008F100840A0008F200BA
:10152A00840A0008F3000A168A1154210A128A153D
:10153A007308FB007208FA007108F9007008F800D5
:10154A000A128A11B9210A128A157708831203131B
:10155A00B7007608B6007508B5007408B4000A1218
:10156A008A1549230A128A15831203133308D100F4
:10157A003208D0003108CF003008CE000A128A1192
:10158A0075240A128A15831203134D08831603174A
:10159A00BA00831203134C0883160317B900831287
:1015AA0003134B0883160317B800831203134A0860
:1015BA0083160317B7001F30903E84008317000874
:1015CA00F400840A0008F500840A0008F600840A78
:1015DA000008F7002330903E84000008F800840ACF
:1015EA000008F900840A0008FA00840A0008FB00CF
:1015FA000A128A11B9210A128A1577088316031367
:10160A00C6007608C5007508C4007408C3002730F0
:10161A00903E840083170008F400840A0008F5004D
:10162A00840A0008F600840A0008F7004608FB004E
:10163A004508FA004408F9004308F8000A128A111A
:10164A00B9210A128A15770883160317BE0076088D
:10165A00BD007508BC007408BB002B30903E8400A6
:10166A0083170008F000840A0008F100840A0008C1
:10167A00F200840A0008F3000A168A1139240A12B1
:10168A008A157008482B080083120313370880391B
:10169A00B8003808C1003708B8003807B900390857
:1016AA00C800B61F592B5A2B5C2B48145C2B4808D0
:1016BA000319602B612B722B480A031D652B662BBD
:1016CA006F2B0030B7000030B6000030B500003094
:1016DA00B4006F2BB617B7017B2B0030B700003070
:1016EA00B6000030B5000030B4007B2B33088039D7
:1016FA00B8003808C1063308B8003807B9003908F5
:10170A00C900B21F892B8A2B8C2B49148C2B4908B0
:10171A000319902B912BA22B490A031D952B962B6B
:10172A009F2B0030B3000030B2000030B10000300F
:10173A00B0009F2BB217B301AA2B0030B3000030C0
:10174A00B2000030B1000030B00033083204310476
:10175A003004031DB12BB22BCC2B0030B700003064
:10176A00B6000030B5000030B4008030B6047F30D7
:10177A00B7044108B8003808B7043708B300360878
:10178A00B2003508B1003408B000512D512D480877
:10179A00031DD02BD12BE32B0030B7000030B6004D
:1017AA000030B5000030B4003708B3003608B20084
:1017BA003508B1003408B000512D512D4908B80040
:1017CA00B901B809B909B80A0319B90A48083807A2
:1017DA00BA0039080318390ABB003A087F3EC2002A
:1017EA003B080318013E003EC3003708C000360814
:1017FA00BF003508BE003408BD000030B700003015
:10180A00B6000030B5000030B4000030C700003028
:10181A00C6000030C5000030C400C901622C490866
:10182A000319182C192C3B2C0130B8000310BD0DDC
:10183A00BE0DBF0DC00DB80B1B2C0130B800031034
:10184A00B40DB50DB60DB70DB80B242CC71F2E2C31
:10185A002F2C312C3414312C0130B8000310C40D54
:10186A00C50DC60DC70DB80B332C3B2C33084002EF
:10187A00031D492C32083F02031D492C31083E0240
:10188A00031D492C30083D02031C4C2C4D2C5D2CA9
:10189A0047173008BD023108031C310FBE02320857
:1018AA00031C320FBF023308031C330FC0025D2C26
:1018BA000130B8003808C907622C1A304902031CE3
:1018CA00672C682C142C692C40083F043E043D0404
:1018DA000319702C712C932C4414932C932C0130E3
:1018EA00B8000310B40DB50DB60DB70DB80B762CB4
:1018FA00C71F802C812C832C3414832C0130B80010
:10190A000310C40DC50DC60DC70DB80B852CFF30CD
:10191A00C2070318C30AFF30C307932CB61F962CBD
:10192A00972C742C982CC901C71F9C2C9D2CBD2C5C
:10193A00FF304405B800FF304505B900FF304605C1
:10194A00BA007F304705BB003B083A043904380423
:10195A000319B02CB12CB42CC901C90ABD2C341CF2
:10196A00B72CB82CBD2CC901C90ABD2CBD2CBD2C65
:10197A0049080319C12CC22CF52C0130B4070030D8
:10198A0003180130B507003003180130B6070030DC
:10199A0003180130B707371CD32CD42CF52C340884
:1019AA00B8003508B9003608BA003708BB0001305C
:1019BA00BC003B0DBB0CBA0CB90CB80CBC0BDE2C32
:1019CA003B08B7003A08B6003908B5003808B40031
:1019DA000130C2070318C30A0030C307F52CF52CDF
:1019EA004308803AFF0080307F02031DFE2CFF303F
:1019FA004202031C012D022D112DFF308312031305
:101A0A00C2000030C3000030B7000030B60000301A
:101A1A00B5000030B400112D831203134308803A35
:101A2A00FF0080307F02031D1C2D01304202031883
:101A3A001F2D202D2D2D83120313C201C301003047
:101A4A00B7000030B6000030B5000030B400C10164
:101A5A00831203134208B8003808C800481C362D00
:101A6A00372D392DB6173D2D7F30B8003808B60509
:101A7A004808B8000310380CB9003908B700410803
:101A8A00B8003808B7043708B3003608B20035087A
:101A9A00B1003408B000512D0800F600C52FF0013E
:101AAA00831603132C080A128A1196200A128A1521
:101ABA00F001831603132D080A128A1196200A12BE
:101ACA008A15F001831603132E080A128A1196202A
:101ADA000A128A15F001831603132F080A128A11B3
:101AEA0096200A128A15FF2FF001831603132C0879
:101AFA000A128A1196200A128A15F0018316031314
:101B0A002D080A128A1196200A128A15F0018316E4
:101B1A0003132E080A128A1196200A128A15F00156
:101B2A00F00A831603132F080A128A1196200A1242
:101B3A008A15FF2FF001831603132C080A128A1143
:101B4A0096200A128A15F001831603132D080A1229
:101B5A008A1196200A128A15F001F00A83160313D5
:101B6A002E080A128A1196200A128A15F001831683
:101B7A0003132F080A128A1196200A128A15FF2FB8
:101B8A00F001831603132C080A128A1196200A12EE
:101B9A008A15F001831603132D080A128A1196205A
:101BAA000A128A15F001F00A831603132E080A1284
:101BBA008A1196200A128A15F001F00A8316031375
:101BCA002F080A128A1196200A128A15FF2FF0018D
:101BDA00831603132C080A128A1196200A128A15F0
:101BEA00F001F00A831603132D080A128A119620AF
:101BFA000A128A15F001831603132E080A128A1193
:101C0A0096200A128A15F001831603132F080A1266
:101C1A008A1196200A128A15FF2FF00183160313E0
:101C2A002C080A128A1196200A128A15F001F00A63
:101C3A00831603132D080A128A1196200A128A158E
:101C4A00F001831603132E080A128A1196200A122B
:101C5A008A15F001F00A831603132F080A128A1153
:101C6A0096200A128A15FF2FF001831603132C08F7
:101C7A000A128A1196200A128A15F001F00A8316AE
:101C8A0003132D080A128A1196200A128A15F001E6
:101C9A00F00A831603132E080A128A1196200A12D2
:101CAA008A15F001831603132F080A128A11962047
:101CBA000A128A15FF2FF001831603132C080A1241
:101CCA008A1196200A128A15F001F00A8316031364
:101CDA002D080A128A1196200A128A15F001F00AB2
:101CEA00831603132E080A128A1196200A128A15DD
:101CFA00F001F00A831603132F080A128A1196209C
:101D0A000A128A15FF2FF001F00A831603132C0812
:101D1A000A128A1196200A128A15F00183160313F1
:101D2A002D080A128A1196200A128A15F0018316C2
:101D3A0003132E080A128A1196200A128A15F00134
:101D4A00831603132F080A128A1196200A128A157B
:101D5A00FF2FF001F00A831603132C080A128A11C6
:101D6A0096200A128A15F001831603132D080A1207
:101D7A008A1196200A128A15F001831603132E0877
:101D8A000A128A1196200A128A15F001F00A83169D
:101D9A0003132F080A128A1196200A128A15FF2F96
:101DAA00F001F00A831603132C080A128A119620EE
:101DBA000A128A15F001831603132D080A128A11D2
:101DCA0096200A128A15F001F00A831603132E08C8
:101DDA000A128A1196200A128A15F0018316031331
:101DEA002F080A128A1196200A128A15FF2FF0016B
:101DFA00F00A831603132C080A128A1196200A1273
:101E0A008A15F001831603132D080A128A119620E7
:101E1A000A128A15F001F00A831603132E080A1211
:101E2A008A1196200A128A15F001F00A8316031302
:101E3A002F080A128A1196200A128A15FF2FF0011A
:101E4A00F00A831603132C080A128A1196200A1222
:101E5A008A15F001F00A831603132D080A128A1153
:101E6A0096200A128A15F001831603132E080A1205
:101E7A008A1196200A128A15F001831603132F0875
:101E8A000A128A1196200A128A15FF2FF001F00A07
:101E9A00831603132C080A128A1196200A128A152D
:101EAA00F001F00A831603132D080A128A119620EC
:101EBA000A128A15F001831603132E080A128A11D0
:101ECA0096200A128A15F001F00A831603132F08C6
:101EDA000A128A1196200A128A15FF2FF001F00AB7
:101EEA00831603132C080A128A1196200A128A15DD
:101EFA00F001F00A831603132D080A128A1196209C
:101F0A000A128A15F001F00A831603132E080A1220
:101F1A008A1196200A128A15F001831603132F08D4
:101F2A000A128A1196200A128A15FF2FF001F00A66
:101F3A00831603132C080A128A1196200A128A158C
:101F4A00F001F00A831603132D080A128A1196204B
:101F5A000A128A15F001F00A831603132E080A12D0
:101F6A008A1196200A128A15F001F00A83160313C1
:101F7A002F080A128A1196200A128A15FF2FFF2F9C
:101F8A007608F400F5017508003A0319CD2FFF2FE2
:101F9A007408003A0319542D013A0319792D033AAA
:101FAA0003199F2D013A0319C52D073A0319EC2D80
:101FBA00013A0319122E033A0319392E013A031969
:101FCA00602E0F3A0319882E013A0319AE2E033AEE
:101FDA000319D52E013A0319FC2E073A0319242FA7
:101FEA00013A03194B2F033A0319732F013A0319C4
:061FFA009B2FFF2F0800E1
:1022980064008001840A04060319003404064D29E9
:1022A800730872047104700403195B295C295F299F
:1022B8008030F3065F2960290800FC000830F00030
:1022C8000030F1000A168A11F8220A168A117C08D1
:1022D8000A128A1113200A168A1108000A168A118E
:1022E800CC210A168A110A168A1146230A168A115F
:1022F8007D290A168A1113270A168A117D290A12BE
:102308008A11002887290B1D8A298B2987290B11F7
:10231800831603171C03FF3AFF3E83120313810041
:102328000130831603179D0703189E0A00309E0785
:102338001E08F1001D08F000A1290800F800F401AA
:10234800F5017008F200F3017208F6007308F7004F
:10235800AD29781CB029B129B7297608F4070318E4
:10236800F50A7708F50701300310F60DF70DFF3E63
:10237800031DB8290310F80C7808031DC429C529C2
:10238800AD29C6297508F1007408F000CB290800AA
:102398008130831203139F00C230831603139F00FA
:1023A80085013F30850083120313860183160313CA
:1023B800860183120313860187018316031387019D
:1023C8008312031387010A128A1104200A168A113C
:1023D80088010030880888018312031389010730B7
:1023E800831603138900080083120313A000A101B8
:1023F8002003031D002A012A0D2A7C087F3EFD00C8
:102408007D08A10021080A168A11B7230A168A1125
:10241800232A0230831203132006031D142A152AC7
:10242800232A7C08BF3EFD007D08A10021080A166A
:102438008A11B7230A168A11232A232A232A080075
:10244800780879040319292A2A2A5F2AFD01FD0A36
:10245800392A01300310F80DF90DFF3E031D2E2A0D
:102468000130FC007C08FD07392AF91F3C2A3D2A67
:102478002D2A3F2A3F2A79087B02031D452A78081E
:102488007A02031C482A492A502A7808FA0279084D
:10249800031CFB03FB02502A01300310F90CF80C53
:1024A800FF3E031D512A0130FD02031D5C2A5D2AEF
:1024B8003F2A5F2A5F2A7B08F9007A08F800642A15
:1024C800080083120313A501A6018F2A25082007F7
:1024D800A3002108A2000318A20AA51F742AA203B8
:1024E800831203132208A4002408FF002308840091
:1024F8000A128A1500200A168A110A168A11612101
:102508000A168A11013083120313A5070318A60AB5
:102518000030A6078F2A25082007A3002108A2005B
:102528000318A20AA51F992AA203831203132208DB
:10253800A4002408FF00230884000A128A1500203A
:102548000A168A11003A031DAA2AAB2A6A2AAC2A5B
:102558000800F501F601700871040319B42AB52AB8
:10256800F22AF701F70AC42A01300310F00DF10D21
:10257800FF3E031DB92A0130F4007408F707C42A86
:10258800F11FC72AC82AB82ACA2ACA2A0130031042
:10259800F50DF60DFF3E031DCB2A71087302031DCE
:1025A800D72A70087202031CDA2ADB2AE32A700889
:1025B800F2027108031CF303F3027514E32A0130D5
:1025C8000310F10CF00CFF3E031DE42A0130F70262
:1025D800031DEF2AF02ACA2AF22AF22A7608F10005
:1025E8007508F000F72A0800F301F4017408803A2E
:1025F800F2007108803A7202031D042B70087302FE
:10260800031C072B082B0A2B452B452BF501F6013C
:102618007608803AFF0080307F02031D152BEB30CF
:102628007502031C182B192B1B2B302B302B000089
:102638000130F5070318F60A0030F6077608803AE5
:10264800FF0080307F02031D2B2BEB307502031C2B
:102658002E2B2F2B1B2B302B0130F3070318F40ADA
:102668000030F4077408803AF2007108803A720268
:10267800031D402B70087302031C432B442B0A2BA9
:10268800452B0800F0010B3084000A128A150A2035
:102698000A168A110A128A156A200A168A11113036
:1026A80084000A128A150A200A168A118312031353
:1026B800A7002708A000103084000A128A150A20F3
:1026C8000A168A11A8002808A1000F3084000A12EF
:1026D8008A150A200A168A11A9002908A2000E30B4
:1026E80084000A128A150A200A168A11AA002A08E2
:1026F800A3000D3084000A128A150A200A168A11CE
:10270800AB002B08A4000C3084000A128A150A209A
:102718000A168A11AC002C08A500123084000A128F
:102728008A150A200A168A110A168A11D3240A164B
:102738008A11FC01FC0A01300A168A11F8210A16CE
:102748008A11243083120313A0008030A1000A16D6
:102758008A1165220A168A11FF300A128A15552035
:102768000A168A110800FA00FB01F9017A08F03903
:10277800F7007708FB007B08F70004300310F70C1C
:10278800FF3E031DC22B7708F8007808FB007A0883
:102798000F39F7007708F9007B080A128A155225C5
:1027A8000A168A11F0018316031332080A128A11D5
:1027B80096200A168A11F0018316031330080A12AC
:1027C8008A1196200A168A11F001F00A831603135B
:1027D80031080A128A1196200A168A110530F0006B
:1027E8000030F1000A168A11F8220A168A11F0013F
:1027F8008316031331080A128A1196200A168A11C1
:102808000530F0000030F1000A168A11F8220A1685
:102818008A1179080A128A1552250A168A11F001B6
:10282800F00A8316031331080A128A1196200A1631
:102838008A110530F0000030F1000A168A11F822DA
:102848000A168A11F0018316031331080A128A1135
:1028580096200A168A110330F0000030F1000A169B
:102868008A11F8220A168A1108007008F400710803
:10287800F5007208F6007308F7000310760D770D5F
:10288800F8007808FA007A08031D4B2C4C2C562CBB
:102898000030F3000030F2000030F1000030F000AA
:1028A800D22CD22C7008F4007108F5007208F600DA
:1028B8007308F7001F300310F70CF60CF50CF40C36
:1028C800FF3E031D5F2C7408F8007808F900F21722
:1028D800FF30F005FF30F105FF30F2050030F30559
:1028E8009630FA02FA1F792C7A2C9F2C7A08803AB3
:1028F800973E0318802C812C8C2C0030F30000307C
:10290800F2000030F1000030F000D22CD22C8C2CD8
:1029180001300310F30CF20CF10CF00CFF3E031D18
:102928008D2C0130F4007408FA07031D9C2C9D2C93
:102938008C2CC22CC22C20307A02031CA42CA52C6F
:10294800BB2C0030F3000030F2000030F100003002
:10295800F000D22CD22CBB2C0130F4000310F00D67
:10296800F10DF20DF30DF40BB22C0130FA027A08D6
:10297800031DBF2CC02CB02CC22CC22C7908031903
:10298800C62CC72CD22CF009F109F209F309F00A78
:102998000319F10A0319F20A0319F30A0800FD00E2
:1029A8007D08FC007C0883160313B200831203130E
:1029B8002008FC007C0883160313B100831203135C
:1029C8002108FC007C0883160313B000831203134C
:1029D8002208FC007C0883160313AF00831203133C
:1029E8002308FC007C0883160313AE00831203132C
:1029F8002408FC007C0883160313AD00831203131C
:102A08002508FC007C0883160313AC00F0017D0840
:102A18000A128A156A200A168A11F0018312031312
:102A280020080A128A156A200A168A11F0018312F0
:102A3800031321080A128A156A200A168A11F0015E
:102A48008312031322080A128A156A200A168A11A9
:102A5800F0018312031323080A128A156A200A1642
:102A68008A11F0018312031324080A128A156A20B6
:102A78000A168A11F0018312031325080A128A150F
:102A88006A200A168A110F30F0000030F1000A1689
:102A98008A11F8220A168A1102300A168A11B723F7
:102AA8000A168A1128300A168A11B7230A168A11BB
:102AB80001300A168A11B7230A168A110C300A1631
:102AC8008A11B7230A168A1106300A168A11B72303
:102AD8000A168A11080083160313CF004F0803193A
:102AE800762D772D8B2DCA1F7A2D7B2D8B2D47099F
:102AF800D1004809D2004909D3004A09D400D10AB3
:102B08000319D20A0319D30A0319D40A932D4A08C0
:102B1800D4004908D3004808D2004708D1004A0821
:102B2800490448044704031D9A2D9B2DA52D003008
:102B3800CA000030C9000030C8000030C700322E7B
:102B4800322E9630CB004B08D000B82D0130CB0088
:102B58004B08D00701300310D40CD30CD20CD10C85
:102B6800FF3E031DAF2DB82DFE305405031DBD2DAE
:102B7800BE2DAA2DDB2DDB2D0130CB004B08D00755
:102B88000130D107003003180130D2070030031894
:102B98000130D307003003180130D4070130031087
:102BA800D40CD30CD20CD10CFF3E031DD32DFF3017
:102BB8005405031DE02DE12DC02DEF2DEF2D013023
:102BC800D0020130CB000310D10DD20DD30DD40D9E
:102BD800CB0BE72DEF2DD31BF22DF32DFA2D023061
:102BE80050020318F82DF92DE32DFA2D5018FD2D5C
:102BF800FE2D062EFF30D105FF30D2057F30D305DC
:102C0800FF30D4050310D00C5008CB00CC01CD0107
:102C1800CE0118300310CB0DCC0DCD0DCE0DFF3EDF
:102C2800031D0E2E4B08D1044C08D2044D08D304C2
:102C38004E08D4044F080319222E232E292ECA1F0A
:102C4800262E272E292ED417292E5408CA005308B9
:102C5800C9005208C8005108C700322E0800831264
:102C68000313AB002130A3002308A700F92E253059
:102C78002C060319402E412E4D2E2C08A3002B089C
:102C880084002308831380000130A3002308AB07C6
:102C9800F92EA601572E0D2FF92EC030A3002308B8
:102CA800A604712E712E0130A007FF302007840082
:102CB8000A128A150A200A168A11AC00A300A40178
:102CC8002408003A0319692EF92E2308003A03193B
:102CD8000D2F753A0319512EF92E270884008313F6
:102CE8000008A800840A0008A9000230A3002308ED
:102CF800A707AC01AC0A05302C06031D842E852ECF
:102D0800872EAF2EAF2E2C08A3002307013E840088
:102D18000A128A150A200A168A11A4000A128A15AC
:102D28000A200A168A11A50025082902031D9E2ECD
:102D3800240828020318A12EA22EA42EAF2EAF2EEF
:102D48000130A3002308AC0705302C06031DAD2E67
:102D5800AE2E872EAF2E2C08A3002308AA00EE2E35
:102D68000A30F8000030F9002A08A3002307013EC2
:102D780084000A128A150A200A168A11F0000A121B
:102D88008A150A200A168A11F1002908F300280872
:102D9800F2000A168A11AD220A168A117108FB0080
:102DA8007008FA000A168A1124220A168A1178086D
:102DB800303E83120313A4002408AC002C08A3009F
:102DC8002B0884002308831380000130A300230804
:102DD800AB07EE2EFF30A3002308AA072A0A031D1B
:102DE800F62EF72EB42EF92EF92E0130A007FF305B
:102DF800200784000A128A150A200A168A11A300DD
:102E08002308AC002C08031D0A2F0B2F3B2E0D2F77
:102E18000D2F2B08840083138001122F0800F00166
:102E2800F00A0B3084000A128A150A200A168A1141
:102E38000A128A1196200A168A110A168A11862100
:102E48000A168A11710883160313A9007008A800CE
:102E58003E30D500550883120313A00083160313D0
:102E68002B0883120313A200831603132A08831264
:102E78000313A100B3300A168A1133260A168A11E1
:102E8800B33083120313A0000030A1000A168A1180
:102E980065220A168A11083083160313D5005508CF
:102EA800FC0002300A168A11F8210A168A118316C4
:102EB80003132609D5002709D600D50A0319D60A0F
:102EC80028085507AA0029080318290A5607AB003D
:102ED80000302B02143003192A02031C742F752F9B
:102EE800FF2F0130A4070318A50A0030A507FC012D
:102EF800FC0A02300A168A11F8210A168A111330C0
:102F080083120313A0008030A1000A168A116522DB
:102F18000A168A11FC01FC0A02300A168A11F821E5
:102F28000A168A11353083160313D5005508831203
:102F38000313A00083160313250883120313A200AA
:102F480083160313240883120313A100B3300A164F
:102F58008A1133260A168A11B33083120313A0008C
:102F68000030A1000A168A1165220A168A113C301F
:102F780083120313EF002330EE00D730ED000A3040
:102F8800EC004030EB002D30EA007030E900A4304E
:102F9800E8004030E7004830E600F530E500C3308F
:102FA800E4000A128A158B210A168A118316031364
:102FB800D500D601D701D8015808CA005708C9005A
:102FC8005608C8005508C70000300A168A116F2530
:102FD8000A168A11831603134A08A3004908A20097
:102FE8004808A1004708A000AA01AB012908A700CA
:082FF8002808A600FF2F0800C5
:08400000FF3FFF3FFF3FFF3FC0
:02400E00BA3FB7
:00000001FF
