:020000040000FA
:060000000A128A11DF2F35
:1006B8004F30831203139D00080064008001840AF0
:1006C8000406031900340406622BFF308316031353
:1006D800920005308312031392004F3097000800F0
:1006E8007E088A007F0882000A128A1174230A127F
:1006F8008A118000840A04087D0603190034FF0A61
:100708000319FE0A782B0A128A11B5230A128A11D4
:100718000A128A1109240A128A11922B0A128A11C2
:1007280093240A128A11922B922B0A128A110028FA
:100738003034303430343034303430343034303491
:100748003034303430343034303430343034303481
:100758000734083409340A340B340C340D34643447
:1007680000348130831203139F00C23083160313B1
:100778009F0085013F308500860100308600870193
:10078800003087000A128A1169230A128A110A1294
:100798008A115C230A128A118801003088088312A2
:1007A8000313890107308316031389000800F90031
:1007B800F52B8312031309080139082C082C082C7F
:1007C80083120313090C0139082C082C082C8312F6
:1007D8000313090CF700770C0139082C082C082C96
:1007E800082C7908F700F8017808003A0319FD2B5E
:1007F800082C7708003A0319DD2B013A0319E42B7A
:10080800033A0319EB2B082C0800FB01FC017C08B8
:10081800803AFF0080307F02031D142C07307B02D2
:10082800031C172C182C1A2C442C442CF7017B0879
:10083800303E8400831300080A128A119B250A128D
:100848008A11F7017B08303E8400831300080A12DE
:100858008A11BC260A128A110130FB070318FC0A08
:100868000030FC077C08803AFF0080307F02031DBF
:100878003F2C07307B02031C422C432C1A2C442C9F
:100888000800FA01FB017B08803AF9007808803AF1
:100898007902031D512C77087A02031C542C552C1D
:1008A800572C922C922CFC01FD017D08803AFF0008
:1008B80081307F02031D622C90307C02031C652C62
:1008C800662C682C7D2C7D2C00000130FC07031859
:1008D800FD0A0030FD077D08803AFF0081307F0265
:1008E800031D782C90307C02031C7B2C7C2C682CFC
:1008F8007D2C0130FA070318FB0A0030FB077B0840
:10090800803AF9007808803A7902031D8D2C77081F
:100918007A02031C902C912C572C922C0800003042
:100928000A128A11DB230A128A11013A031D9D2C2F
:100938009E2CEC2C3230F7000030F8000A128A1195
:1009480045240A128A1100300A128A11DB230A127E
:100958008A11013A031DB12CB22C9A2DF701F70A1E
:1009680007300A128A11BC260A128A11F701F70AFF
:1009780008300A128A11BC260A128A11F701F70AEE
:1009880009300A128A11BC260A128A11F701F70ADD
:100998000A300A128A11BC260A128A11F701F70ACC
:1009A8000B300A128A11BC260A128A11F701F70ABB
:1009B8000C300A128A11BC260A128A11F701F70AAA
:1009C8000D300A128A11BC260A128A119A2D9A2D04
:1009D80001300A128A11DB230A128A11013A031D17
:1009E800F62CF72C402D3230F7000030F8000A12B0
:1009F8008A1145240A128A1101300A128A11DB234E
:100A08000A128A11013A031D0A2D0B2D9A2DF7019E
:100A1800F70A07300A128A11BC260A128A11F7014E
:100A2800F70A08300A128A11BC260A128A11F7013D
:100A380009300A128A11BC260A128A11F7010A30F3
:100A48000A128A11BC260A128A11F7010B300A12FF
:100A58008A11BC260A128A11F7010C300A128A116F
:100A6800BC260A128A11F7010D300A128A11BC2617
:100A78000A128A119A2D9A2D02300A128A11DB2342
:100A88000A128A11013A031D4A2D4B2D9A2D323034
:100A9800F7000030F8000A128A1145240A128A1158
:100AA80002300A128A11DB230A128A11013A031D45
:100AB8005E2D5F2D9A2DF70107300A128A11BC2688
:100AC8000A128A11F701F70A08300A128A11BC269D
:100AD8000A128A11F701F70A09300A128A11BC268C
:100AE8000A128A11F701F70A0A300A128A11BC267B
:100AF8000A128A11F701F70A0B300A128A11BC266A
:100B08000A128A11F701F70A0C300A128A11BC2658
:100B18000A128A11F701F70A0D300A128A11BC2647
:100B28000A128A119A2D9A2D9A2D9A2D0800FA00E8
:100B3800662E770C83160313031C87130318871775
:100B4800BB2E770C83160313031C07130318071710
:100B5800BB2E770C83160313031C87120318871602
:100B6800BB2E770C83160313031C071203180716F2
:100B7800BB2E770C83160313031C871103188715E4
:100B8800BB2E770C83160313031C071103180715D4
:100B9800BB2E770C83160313031C871003188714C6
:100BA800BB2E770C83160313031C071003180714B6
:100BB800BB2E770C83160313031C061003180614A8
:100BC800BB2E770C83160313031C86100318861498
:100BD800BB2E770C83160313031C06110318061586
:100BE800BB2E770C83160313031C86110318861576
:100BF800BB2E770C83160313031C06120318061664
:100C0800BB2E770C83160313031C86120318861653
:100C1800BB2E770C83160313031C06130318061741
:100C2800BB2E770C83160313031C86130318861731
:100C3800BB2E770C83160313031C08100318081423
:100C4800BB2E770C83160313031C88100318881413
:100C5800BB2E770C83160313031C08110318081501
:100C6800BB2E770C83160313031C881103188815F1
:100C7800BB2E770C83160313031C081203180816DF
:100C8800BB2E770C83160313031C881203188816CF
:100C9800BB2E770C83160313031C081303180817BD
:100CA800BB2E770C83160313031C881303188817AD
:100CB800BB2E770C83160313031C051203180516A5
:100CC800BB2EBB2E7A08F800F9017908003A0319FF
:100CD8006E2EBB2E7808003A03199D2D013A031990
:100CE800A52D033A0319AD2D013A0319B52D073A7D
:100CF8000319BD2D013A0319C52D033A0319CD2D4A
:100D0800013A0319D52D0F3A0319DD2D013A0319BC
:100D1800E52D033A0319ED2D013A0319F52D073A8C
:100D28000319FD2D013A0319052E033A03190D2E57
:100D3800013A0319152E1F3A03191D2E013A0319FA
:100D4800252E033A03192D2E013A0319352E073A99
:100D580003193D2E013A0319452E033A03194D2E66
:100D6800013A0319552E0F3A03195D2EBB2E0800C0
:100D7800FA00892F770C83120313031C87130318B7
:100D88008717DE2F770C83120313031C071303182E
:100D98000717DE2F770C83120313031C871203181F
:100DA8008716DE2F770C83120313031C0712031810
:100DB8000716DE2F770C83120313031C8711031801
:100DC8008715DE2F831203139701770C031C071175
:100DD80003180715DE2F831203139D01770C031CDC
:100DE800871003188714DE2F770C83120313031C54
:100DF800071003180714DE2F770C83120313031C44
:100E0800061003180614DE2F770C83120313031C35
:100E1800861003188614DE2F770C83120313031C25
:100E2800061103180615DE2F770C83120313031C13
:100E3800861103188615DE2F770C83120313031C03
:100E4800061203180616DE2F770C83120313031CF1
:100E5800861203188616DE2F770C83120313031CE1
:100E6800061303180617DE2F770C83120313031CCF
:100E7800861303188617DE2F770C83120313031CBF
:100E8800081003180814DE2F770C83120313031CB1
:100E9800881003188814DE2F770C83120313031CA1
:100EA800081103180815DE2F770C83120313031C8F
:100EB800881103188815DE2F770C83120313031C7F
:100EC800081203180816DE2F770C83120313031C6D
:100ED800881203188816DE2F770C83120313031C5D
:100EE800081303180817DE2F770C83120313031C4B
:100EF800881303188817DE2F770C83120313031C3B
:100F0800051203180516DE2FDE2F7A08F800F901FE
:100F18007908003A0319912FDE2F7808003A03194F
:100F2800BE2E013A0319C62E033A0319CE2E013AF2
:100F38000319D62E073A0319DE2E013A0319E62EB5
:100F4800033A0319EF2E013A0319F82E0F3A031941
:100F5800002F013A0319082F033A0319102F013AF9
:100F68000319182F073A0319202F013A0319282FBC
:100F7800033A0319302F013A0319382F1F3A03197E
:100F8800402F013A0319482F033A0319502F013A09
:100F98000319582F073A0319602F013A0319682FCC
:100FA800033A0319702F013A0319782F0F3A0319DE
:100FB800802FDE2F080083133930FD000330FE0038
:100FC8009C30FF00203084000A128A1178230A120C
:100FD8008A113930840051300A128A1161230A12A9
:100FE8008A11F001F101F201F301F401F501F601B2
:080FF80083010A128A11872B04
:02400E00BA3FB7
:00000001FF
