:060000000A128A11F32F21
:10001000FA00FB01F9017A08F039F7007708FB00D4
:100020007B08F70004300310F70CFF3E031D132874
:100030007708F8007808FB007A080F39F70077088E
:10004000F9007B080A128A1145250A128A11F0016B
:10005000831203135C080A128A1122240A128A11DD
:10006000F001831203135A080A128A1122240A1279
:100070008A11F001F00A831203135B080A128A1135
:1000800022240A128A110530F0000030F1000A1211
:100090008A154E270A128A11F001831203135B0896
:1000A0000A128A1122240A128A110530F000003047
:1000B000F1000A128A154E270A128A1179080A12CB
:1000C0008A1145250A128A11F001F00A83120313DE
:1000D0005B080A128A1122240A128A110530F000E4
:1000E0000030F1000A128A154E270A128A11F00117
:1000F000831203135B080A128A1122240A128A113E
:100100000330F0000030F1000A128A154E270A125F
:100110008A110800FA00FB01F9017A08F039F700AA
:100120007708FB007B08F70004300310F70CFF3E54
:10013000031D95287708F8007808FB007A080F3926
:10014000F7007708F9007B080A128A1145250A1280
:100150008A11F001F00A831203135C080A128A1153
:1001600022240A128A11F001831203135A080A1278
:100170008A1122240A128A11F001F00A8312031351
:100180005B080A128A1122240A128A110530F00033
:100190000030F1000A128A154E270A128A11F00166
:1001A000831203135B080A128A1122240A128A118D
:1001B0000530F0000030F1000A128A154E270A12AD
:1001C0008A1179080A128A1145250A128A11F0014A
:1001D000F00A831203135B080A128A1122240A12FE
:1001E0008A110530F0000030F1000A128A154E27FE
:1001F0000A128A11F001831203135B080A128A1192
:1002000022240A128A110330F0000030F1000A1291
:100210008A154E270A128A110800FD007D08FC008D
:100220007C0883120313DC004708FC007C08DB0019
:100230004808FC007C08DA004908FC007C08D9006A
:100240004A08FC007C08D8004B08FC007C08D7005A
:100250004C08FC007C08D600F0017D080A128A11C7
:1002600001230A128A11F0018312031347080A12AC
:100270008A1101230A128A11F0018312031348081C
:100280000A128A1101230A128A11F0018312031340
:1002900049080A128A1101230A128A11F0018312F5
:1002A00003134A080A128A1101230A128A11F00163
:1002B000831203134B080A128A1101230A128A11AE
:1002C000F001831203134C080A128A1101230A1247
:1002D0008A110F30F0000030F1000A128A154E2703
:1002E0000A128A1102300A128A1108200A128A118F
:1002F00028300A128A1108200A128A1101300A12C3
:100300008A1108200A128A110C300A128A11082058
:100310000A128A1106300A128A1108200A128A115A
:1003200008000A128A150A260A128A117108831215
:100330000313B4007008B3003D30D4005408C70064
:100340003608C9003508C80037300A128A11212240
:100350000A128A11373083120313C7000030C80015
:100360000A128A15BB260A128A1108308312031357
:10037000D4005408FC0002300A128A154E260A12D4
:100380008A11831203133109D4003209D500D40A2B
:100390000319D50A33085407B50034080318340A82
:1003A0005507B60000303602143003193502031C1D
:1003B000DA29DB29202A0130AF070318B00A003000
:1003C000B007FC01FC0A02300A128A154E260A12F6
:1003D0008A11123083120313C7008030C8000A123A
:1003E0008A15BB260A128A11FC01FC0A02300A1285
:1003F0008A154E260A128A11343083120313D40050
:100400005408C7003008C9002F08C80037300A1246
:100410008A1121220A128A11373083120313C7006E
:100420000030C8000A128A15BB260A128A118312EC
:100430000313B501B6013408B2003308B100202A15
:10044000080083120313D2004830CA004A08CE00C5
:10045000E72A2530530603192E2A2F2A3B2A530850
:10046000CA00520884004A08831380000130CA0081
:100470004A08D207E72ACD01452AFB2AE72AC030DD
:10048000CA004A08CD045F2A5F2A0130C707FF303F
:10049000470784000A128A150A200A128A11D3001B
:1004A000CA00CB014B08003A0319572AE72A4A0829
:1004B000003A0319FB2A753A03193F2AE72A4E0826
:1004C000840083130008CF00840A0008D0000230A3
:1004D000CA004A08CE07D301D30A05305306031DCC
:1004E000722A732A752A9D2A9D2A5308CA004A0730
:1004F000013E84000A128A150A200A128A11CB00D2
:100500000A128A150A200A128A11CC004C085002DD
:10051000031D8C2A4B084F0203188F2A902A922A17
:100520009D2A9D2A0130CA004A08D3070530530688
:10053000031D9B2A9C2A752A9D2A5308CA004A0833
:10054000D100DC2A0A30F8000030F9005108CA0056
:100550004A07013E84000A128A150A200A128A11EB
:10056000F0000A128A150A200A128A11F1005008B6
:10057000F3004F08F2000A128A1503270A128A11A3
:100580007108FB007008FA000A128A157A260A120E
:100590008A117808303E83120313CB004B08D30036
:1005A0005308CA00520884004A08831380000130AF
:1005B000CA004A08D207DC2AFF30CA004A08D1071D
:1005C000510A031DE42AE52AA22AE72AE72A013074
:1005D000C707FF30470784000A128A150A200A124B
:1005E0008A11CA004A08D3005308031DF82AF92AC1
:1005F000292AFB2AFB2A5208840083138001002B3E
:100600000800F300CC2B700C83160313031C871314
:1006100003188717212C700C83160313031C071370
:1006200003180717212C700C83160313031C871261
:1006300003188716212C700C83160313031C071252
:1006400003180716212C700C83160313031C871143
:1006500003188715212C700C83160313031C071134
:1006600003180715212C700C83160313031C871025
:1006700003188714212C700C83160313031C071016
:1006800003180714212C700C83160313031C061087
:1006900003180614212C700C83160313031C8610F8
:1006A00003188614212C700C83160313031C0611E7
:1006B00003180615212C700C83160313031C8611D6
:1006C00003188615212C700C83160313031C0612C5
:1006D00003180616212C700C83160313031C8612B4
:1006E00003188616212C700C83160313031C0613A3
:1006F00003180617212C700C83160313031C861392
:1007000003188617212C700C83160313031C081082
:1007100003180814212C700C83160313031C881073
:1007200003188814212C700C83160313031C081162
:1007300003180815212C700C83160313031C881151
:1007400003188815212C700C83160313031C081240
:1007500003180816212C700C83160313031C88122F
:1007600003188816212C700C83160313031C08131E
:1007700003180817212C700C83160313031C88130D
:1007800003188817212C700C83160313031C051201
:1007900003180516212C212C7308F100F2017208B0
:1007A000003A0319D42B212C7108003A0319032BAA
:1007B000013A03190B2B033A0319132B013A0319BE
:1007C0001B2B073A0319232B013A03192B2B033A4E
:1007D0000319332B013A03193B2B0F3A0319432B0F
:1007E000013A03194B2B033A0319532B013A03190E
:1007F0005B2B073A0319632B013A03196B2B033A5E
:100800000319732B013A03197B2B1F3A0319832B0E
:10081000013A03198B2B033A0319932B013A03195D
:100820009B2B073A0319A32B013A0319AB2B033A6D
:100830000319B32B013A0319BB2B0F3A0319C32B2E
:10084000212C0800F300EF2C700C83120313031CFF
:10085000871303188717442D700C83120313031C8E
:10086000071303180717442D700C83120313031C7E
:10087000871203188716442D700C83120313031C70
:10088000071203180716442D700C83120313031C60
:10089000871103188715442D831203139701700CD9
:1008A000031C071103180715442D831203139D0120
:1008B000700C031C871003188714442D700C8312CE
:1008C0000313031C071003180714442D700C831224
:1008D0000313031C061003180614442D700C831216
:1008E0000313031C861003188614442D700C831206
:1008F0000313031C061103180615442D700C8312F4
:100900000313031C861103188615442D700C8312E3
:100910000313031C061203180616442D700C8312D1
:100920000313031C861203188616442D700C8312C1
:100930000313031C061303180617442D700C8312AF
:100940000313031C861303188617442D700C83129F
:100950000313031C081003180814442D700C831291
:100960000313031C881003188814442D700C831281
:100970000313031C081103180815442D700C83126F
:100980000313031C881103188815442D700C83125F
:100990000313031C081203180816442D700C83124D
:1009A0000313031C881203188816442D700C83123D
:1009B0000313031C081303180817442D700C83122B
:1009C0000313031C881303188817442D700C83121B
:1009D0000313031C051203180516442D442D730838
:1009E000F100F2017208003A0319F72C442D710846
:1009F000003A0319242C013A03192C2C033A031949
:100A0000342C013A03193C2C073A0319442C013ABF
:100A100003194C2C033A0319552C013A03195E2C87
:100A20000F3A0319662C013A03196E2C033A031985
:100A3000762C013A03197E2C073A0319862C013AC9
:100A400003198E2C033A0319962C013A03199E2C94
:100A50001F3A0319A62C013A0319AE2C033A0319C5
:100A6000B62C013A0319BE2C073A0319C62C013AD9
:100A70000319CE2C033A0319D62C013A0319DE2CA4
:100A80000F3A0319E62C442D0800F600B82FF001A8
:100A90008312031356080A128A1122240A128A1199
:100AA000F0018312031357080A128A1122240A1232
:100AB0008A11F0018312031358080A128A112224A2
:100AC0000A128A11F0018312031359080A128A11BB
:100AD00022240A128A11F22FF001831203135608FE
:100AE0000A128A1122240A128A11F00183120313B6
:100AF00057080A128A1122240A128A11F00183125D
:100B0000031358080A128A1122240A128A11F001CA
:100B1000F00A8312031359080A128A1122240A12B6
:100B20008A11F22FF0018312031356080A128A1158
:100B300022240A128A11F0018312031357080A12A1
:100B40008A1122240A128A11F001F00A8312031377
:100B500058080A128A1122240A128A11F0018312FB
:100B6000031359080A128A1122240A128A11F22F39
:100B7000F0018312031356080A128A1122240A1262
:100B80008A11F0018312031357080A128A112224D2
:100B90000A128A11F001F00A8312031358080A128C
:100BA0008A1122240A128A11F001F00A8312031317
:100BB00059080A128A1122240A128A11F22FF0010E
:100BC0008312031356080A128A1122240A128A1168
:100BD000F001F00A8312031357080A128A11222423
:100BE0000A128A11F0018312031358080A128A119B
:100BF00022240A128A11F0018312031359080A12DF
:100C00008A1122240A128A11F22FF001831203138F
:100C100056080A128A1122240A128A11F001F00AD7
:100C20008312031357080A128A1122240A128A1106
:100C3000F0018312031358080A128A1122240A129F
:100C40008A11F001F00A8312031359080A128A115B
:100C500022240A128A11F22FF0018312031356087C
:100C60000A128A1122240A128A11F001F00A831250
:100C7000031357080A128A1122240A128A11F0015A
:100C8000F00A8312031358080A128A1122240A1246
:100C90008A11F0018312031359080A128A112224BF
:100CA0000A128A11F22FF0018312031356080A1256
:100CB0008A1122240A128A11F001F00A8312031306
:100CC00057080A128A1122240A128A11F001F00A26
:100CD0008312031358080A128A1122240A128A1155
:100CE000F001F00A8312031359080A128A11222410
:100CF0000A128A11F22FF001F00A83120313560828
:100D00000A128A1122240A128A11F0018312031393
:100D100057080A128A1122240A128A11F00183123A
:100D2000031358080A128A1122240A128A11F001A8
:100D30008312031359080A128A1122240A128A11F3
:100D4000F22FF001F00A8312031356080A128A11D7
:100D500022240A128A11F0018312031357080A127F
:100D60008A1122240A128A11F001831203135808EF
:100D70000A128A1122240A128A11F001F00A83123F
:100D8000031359080A128A1122240A128A11F22F17
:100D9000F001F00A8312031356080A128A11222462
:100DA0000A128A11F0018312031357080A128A11DA
:100DB00022240A128A11F001F00A83120313580840
:100DC0000A128A1122240A128A11F00183120313D3
:100DD00059080A128A1122240A128A11F22FF001EC
:100DE000F00A8312031356080A128A1122240A12E7
:100DF0008A11F0018312031357080A128A11222460
:100E00000A128A11F001F00A8312031358080A1219
:100E10008A1122240A128A11F001F00A83120313A4
:100E200059080A128A1122240A128A11F22FF0019B
:100E3000F00A8312031356080A128A1122240A1296
:100E40008A11F001F00A8312031357080A128A115B
:100E500022240A128A11F0018312031358080A127D
:100E60008A1122240A128A11F001831203135908ED
:100E70000A128A1122240A128A11F22FF001F00AB2
:100E80008312031356080A128A1122240A128A11A5
:100E9000F001F00A8312031357080A128A11222460
:100EA0000A128A11F0018312031358080A128A11D8
:100EB00022240A128A11F001F00A8312031359083E
:100EC0000A128A1122240A128A11F22FF001F00A62
:100ED0008312031356080A128A1122240A128A1155
:100EE000F001F00A8312031357080A128A11222410
:100EF0000A128A11F001F00A8312031358080A1229
:100F00008A1122240A128A11F0018312031359084C
:100F10000A128A1122240A128A11F22FF001F00A11
:100F20008312031356080A128A1122240A128A1104
:100F3000F001F00A8312031357080A128A112224BF
:100F40000A128A11F001F00A8312031358080A12D8
:100F50008A1122240A128A11F001F00A8312031363
:100F600059080A128A1122240A128A11F22FF22F2A
:100F70007608F400F5017508003A0319C02FF22F26
:100F80007408003A0319472D013A03196C2D033AEE
:100F90000319922D013A0319B82D073A0319DF2DD1
:100FA000013A0319052E033A03192C2E013A0319AD
:100FB000532E0F3A03197B2E013A0319A12E033A3F
:100FC0000319C82E013A0319EF2E073A0319172FF8
:100FD000013A03193E2F033A0319662F013A031908
:100FE0008E2FF22F080083132030840047300A121E
:100FF0008A15BB250A128A1183010A128A15F62D59
:10100000FF1B0A2883137F1883170008840A03191B
:10101000FF0A080008308A000408840A82070034A6
:10102000013400340A34003464340034E8340334C6
:101030001034273413341234113410341934153465
:10104000143420342034203420342034203420340C
:1010500020342034203420342034203420342034F0
:1010600020340034503449344434203443346F3411
:101070006E34743472346F346C34203454346534C8
:10108000733474340034543469346D3465343D340D
:1010900025347534203400344E344F3457343D34C5
:0610A00025347534003414
:101B760064008001840A0406031900340406BC2D9F
:101B8600FF3083160313920005308312031392006D
:101B96009B0195010C3097000C309D000800FC005D
:101BA6000830F0000030F1000A128A154E270A129A
:101BB6008A157C080A128A118A200A128A150800D8
:101BC600F100D730F00070088316031381050B115E
:101BD6007103FF3AFF3E8312031381007108F00080
:101BE6007008AC0008000A128A1522260A128A1505
:101BF6000A128A159C270A128A15012E0A128A11C0
:101C060091210A128A15012E0A128A1100280B2E1A
:101C16000B1D0E2E0F2E0B2E0B11831203132C03EE
:101C2600FF3AFF3E81000130AD070318AE0A0030CF
:101C3600AE072E08F1002D08F000212E0800813095
:101C4600831203139F00C230831603139F0085017E
:101C56003F30850083120313860183160313860122
:101C660083120313860187018316031387018312E8
:101C7600031387010A128A15C3250A128A158801D9
:101C86000030880888018312031389010730831600
:101C960003138900080083120313C700C801470312
:101CA600031D562E572E632E7C087F3EFD007D08B1
:101CB600C80048080A128A1108200A128A15792EC5
:101CC6000230831203134706031D6A2E6B2E792EEC
:101CD6007C08BF3EFD007D08C80048080A128A112C
:101CE60008200A128A15792E792E792E080078088E
:101CF600790403197F2E802EB52EFD01FD0A8F2E45
:101D060001300310F80DF90DFF3E031D842E01303E
:101D1600FC007C08FD078F2EF91F922E932E832E32
:101D2600952E952E79087B02031D9B2E78087A0244
:101D3600031C9E2E9F2EA62E7808FA027908031CF5
:101D4600FB03FB02A62E01300310F90CF80CFF3E34
:101D5600031DA72E0130FD02031DB22EB32E952EB4
:101D6600B52EB52E7B08F9007A08F800BA2E0800C1
:101D760083120313CC01CD01E52E4C084707CA0098
:101D86004808C9000318C90ACC1FCA2EC903831202
:101D960003134908CB004B08FF004A0884000A12C7
:101DA6008A1500200A128A150A128A15D2250A12E5
:101DB6008A15013083120313CC070318CD0A0030AD
:101DC600CD07E52E4C084707CA004808C900031886
:101DD600C90ACC1FEF2EC903831203134908CB008F
:101DE6004B08FF004A0884000A128A1500200A12CE
:101DF6008A15003A031D002F012FC02E022F08005E
:101E0600F501F6017008710403190A2F0B2F482FEC
:101E1600F701F70A1A2F01300310F00DF10DFF3EFE
:101E2600031D0F2F0130F4007408F7071A2FF11F56
:101E36001D2F1E2F0E2F202F202F01300310F50DE2
:101E4600F60DFF3E031D212F71087302031D2D2F72
:101E560070087202031C302F312F392F7008F202DE
:101E66007108031CF303F3027514392F01300310B4
:101E7600F10CF00CFF3E031D3A2F0130F702031D53
:101E8600452F462F202F482F482F7608F10075083A
:101E9600F0004D2F0800F301F4017408803AF200B7
:101EA6007108803A7202031D5A2F70087302031CD0
:101EB6005D2F5E2F602F9B2F9B2FF501F601760875
:101EC600803AFF0080307F02031D6B2FEB307502D6
:101ED600031C6E2F6F2F712F862F862F0000013067
:101EE600F5070318F60A0030F6077608803AFF0071
:101EF60080307F02031D812FEB307502031C842F77
:101F0600852F712F862F0130F3070318F40A00304E
:101F1600F4077408803AF2007108803A7202031DD1
:101F2600962F70087302031C992F9A2F602F9B2FF0
:101F36000800103084000A128A150A200A128A152F
:101F460083120313CE004E08C7000F3084000A1216
:101F56008A150A200A128A15CF004F08C8000E30CB
:101F660084000A128A150A200A128A15D00050081F
:101F7600C9000D3084000A128A150A200A128A1531
:101F8600D1005108CA000C3084000A128A150A20B2
:101F96000A128A15D2005208CB000B3084000A12AE
:101FA6008A150A200A128A15D3005308CC0011306C
:101FB60084000A128A150A200A128A150A128A1140
:101FC6000D210A128A15FC01FC0A01300A128A1533
:101FD6004E260A128A15233083120313C700803057
:101FE600C8000A128A15BB260A128A1540300A1240
:0A1FF6008A15E3250A128A15080077
:08400000FF3FFF3FFF3FFF3FC0
:02400E00BA3FB7
:00000001FF
