:100000000A128A11EA2F64008001840A0406031987
:1000100000340406042883160313270883120313ED
:10002000C10083160313260883120313C00083162E
:100030000313250883120313BF0083160313240838
:1000400083120313BE00831603132B0883120313BA
:10005000BD00831603132A0883120313BC00831602
:100060000313290883120313BB0083160313280804
:1000700083120313BA000A168A15ED260A128A1192
:10008000831203133D08C5003C08C4003B08C300AD
:100090003A08C2000A128A11B9210A128A1183127F
:1000A00003134108D9004008D8003F08D7003E0894
:1000B000D600831603132F0883120313C10083167F
:1000C00003132E0883120313C000831603132D0895
:1000D00083120313BF00831603132C088312031328
:1000E000BE0083160313330883120313BD00831667
:1000F0000313320883120313BC0083160313310861
:1001000083120313BB0083160313300883120313F7
:10011000BA000A168A15ED260A128A1183120313F1
:100120003D08C5003C08C4003B08C3003A08C200B3
:100130000A128A11B9210A128A1183120313410883
:10014000DD004008DC003F08DB003E08DA000A1250
:100150008A15D8200A128A118312031359088316AC
:100160000313BB0083120313580883160313BA004A
:1001700083120313570883160313B9008312031362
:10018000560883160313B8003B0883120313A70015
:10019000831603133A0883120313A600831603136E
:1001A000390883120313A50083160313380883123A
:1001B0000313A400831603132B0883120313A30055
:1001C000831603132A0883120313A2008316031352
:1001D000290883120313A10083160313280883122E
:1001E0000313A0000A128A1175240A128A118312BD
:1001F00003132308BD002208BC002108BB0020080F
:10020000BA000A168A15ED260A128A118312031300
:100210003D08C1003C08C0003B08BF003A08BE00D2
:1002200083160313230883120313A30083160313F7
:10023000220883120313A2008316031321088312DA
:100240000313A10083160313200883120313A000D5
:10025000831603133B0883120313A70083160313AB
:100260003A0883120313A600831603133908831276
:100270000313A50083160313380883120313A40085
:100280000A128A1175240A128A1183120313230891
:10029000C5002208C4002108C3002008C2000A12B9
:1002A0008A11B9210A128A11831203134108831695
:1002B0000313B70083120313400883160313B60019
:1002C000831203133F0883160313B500831203132D
:1002D0003E0883160313B400330883120313C100CE
:1002E00083160313320883120313C000831603130B
:1002F000310883120313BF008316031330088312DF
:100300000313BE0083160313370883120313C500BB
:1003100083160313360883120313C40083160313D2
:10032000350883120313C3008316031334088312A2
:100330000313C2000A128A11B9210A128A11831208
:100340000313410883160313A30083120313400809
:1003500083160313A200831203133F0883160313AB
:10036000A100831203133E0883160313A000B829CB
:1003700008008312031341088039C6004608D200E2
:100380004108C6004607C7004708D400C01FC92956
:10039000CA29CC295414CC2954080319D029D129AD
:1003A000E229540A031DD529D629DF290030C100CE
:1003B0000030C0000030BF000030BE00DF29C01791
:1003C000C101EB290030C1000030C0000030BF0087
:1003D0000030BE00EB2945088039C6004608D3002E
:1003E000530852060319F529F629F8295217F82956
:1003F0004508C6004607C7004708D300C41F012AA6
:10040000022A042A5314042A53080319082A092A21
:100410001A2A530A031D0D2A0E2A172A0030C50076
:100420000030C4000030C3000030C200172AC417D7
:10043000C501222A0030C5000030C4000030C300CE
:100440000030C200540853020318272A282A6E2AB3
:10045000521F2B2A2C2A312A8030C6004608D20689
:10046000312A5408C6004608D5005308C60046087D
:10047000D4005508C6004608D3003E08C60046080A
:10048000D5004208C6004608BE005508C60046080A
:10049000C2003F08C6004608D5004308C60046080B
:1004A000BF005508C6004608C3004008C6004608FD
:1004B000D5004408C6004608C0005508C6004608D6
:1004C000C4004108C6004608D5004508C6004608D5
:1004D000C1005508C6004608C5006E2AD50154085B
:1004E000C600C701C609C709C60A0319C70A5308C7
:1004F0004607C80047080318470AC9004908803A58
:10050000FF0080307F02031D872A1A304802031C37
:100510008A2A8B2ACC2A83120313410840043F0401
:100520003E04031D942A962A0130972A0030C60003
:100530004608D5000030C1000030C0000030BF00C8
:100540000030BE005308C6004608D400D52ACC2A85
:10055000551CAB2AAC2AB52A5508C6000310460C18
:100560000138C7004708D500B82A0310D50CB82AAF
:100570003E1CBB2ABC2ABE2AD517BE2A0130C600A3
:10058000410DC10CC00CBF0CBE0CC60BC02A013003
:10059000C6004608D407CC2A83120313530854021A
:1005A000031CD32AD42AA82AD52A521BD82AD92AEE
:1005B000282B5408031DDD2ADE2AE82A0030C1005A
:1005C0000030C0000030BF000030BE00742C742C1E
:1005D0004208BE07430803110318013E0319F12A1C
:1005E000BF07440803110318013E0319F82AC00786
:1005F000450803110318013E0319FF2AC107411CD6
:10060000022B032BF12B551C062B072B102B550807
:10061000C6000310460C0138C7004708D500132B4D
:100620000310D50C132B3E1C162B172B192BD5178B
:10063000192B0130C600410DC10CC00CBF0CBE0C03
:10064000C60B1B2B0130C6004608D407F12BF12B3B
:100650004108803AFF004508803A7F02031D3A2B8B
:1006600044084002031D3A2B43083F02031D3A2B66
:1006700042083E0203183D2B3E2BA42BFF30C60040
:10068000FF30C700FF30C800FF30C9004208CA0071
:100690004308CB004408CC004508CD003E09CE00FD
:1006A0003F09CF004009D0004109D100CE0A03190B
:1006B000CF0A0319D00A0319D10A4E08CA074F08F6
:1006C00003184F0F642B652BCB0750080318500FEE
:1006D0006A2B6B2BCC0751080318510ACD074A0827
:1006E000C6074B0803184B0F762B772BC7074C0810
:1006F00003184C0F7C2B7D2BC8074D0803184D0A9F
:10070000C9074908C1004808C0004708BF0046089B
:10071000BE008030C6004608D206D509D50A550865
:10072000031D932B942BB22B0130BE07003003180E
:100730000130BF07003003180130C0070030031834
:100740000130C107B22BB22B4208BE024308031C82
:10075000430FBF024408031C440FC0024508031C9A
:10076000450FC102410840043F043E04031DB92B5C
:10077000BA2BEB2B5508031DBE2BBF2BEB2B0030E8
:10078000C1000030C0000030BF000030BE00742C3B
:10079000742CEB2B0130C6000310BE0DBF0DC00D35
:1007A000C10DC60BCC2BD51FD62BD72BD82B3E1467
:1007B000551CDB2BDC2BDF2B0314D50DE22B031098
:1007C000D50DE22B54080319E62BE72BEB2B013058
:1007D000D402EB2BEB2BC01FEE2BEF2BCA2BF12BF4
:1007E000F12BD301D51FF52BF62B082C55087F399B
:1007F0000319FB2BFC2BFF2BD301D30A082C3E1C27
:10080000022C032C082CD301D30A082C082C082C0A
:10081000530803190C2C0D2C432C0130BE0700305B
:1008200003180130BF07003003180130C007003043
:1008300003180130C107411C1E2C1F2C432C3E08FD
:10084000C6003F08C7004008C8004108C900013081
:10085000CA00490DC90CC80CC70CC60CCA0B292C00
:100860004908C1004808C0004708BF004608BE004C
:10087000540A03193C2C3D2C432C0130C600460879
:10088000D407432C432C540A0319472C482C4E2CD4
:100890005408031D4C2C4D2C5E2C4E2C0030C100F6
:1008A0000030C0000030BF000030BE005408031DFF
:1008B0005A2C5B2C5E2CD2015E2C5E2C541C612CBD
:1008C000622C642CC017682C7F30C6004608C00517
:1008D0005408C6000310460CC7004708C100D21FC9
:1008E000722C732C742CC117080083120313230875
:1008F0008039A8002808AD002308A8002807A9000F
:100900002908B300A21F852C862C882C3314882C30
:10091000330803198C2C8D2C9D2C330A031D912C2C
:10092000922C9B2C0030A3000030A2000030A100CC
:100930000030A0009B2CA217A62C0030A300003092
:10094000A2000030A1000030A000A62C27088039AA
:10095000A8002808AD062708A8002807A90029082C
:10096000B200A61FB42CB52CB72C3214B72C320809
:100970000319BB2CBC2CCC2C320A031DC02CC12C5F
:10098000CA2C0030A7000030A6000030A5000030BF
:10099000A400CA2CA617D52C0030A7000030A60052
:1009A0000030A5000030A400D52C32080319D92C42
:1009B000DA2CE02C3308031DDE2CDF2CEA2CE02C93
:1009C0000030A3000030A2000030A1000030A000E1
:1009D000E92FE92F2008A8002808F00026080A16A9
:1009E0008A153D270A128A11710883120313B90070
:1009F0007008B8003808A800A901AA01AB012B08AB
:100A0000B1002A08B0002908AF002808AE00390854
:100A1000A800A901AA01AB012B08B7002A08B6005B
:100A20002908B5002808B4002108A8002808F0000B
:100A300025080A168A153D270A128A1171088312A1
:100A40000313B9007008B8003808A800A901AA016A
:100A5000AB012808AE07290803110318013E03194A
:100A6000322DAF072A0803110318013E0319392D4F
:100A7000B0072B0803110318013E0319402DB107DD
:100A80003908A800A901AA01AB012808B407290860
:100A900003110318013E03194E2DB5072A0803114F
:100AA0000318013E0319552DB6072B08031103182F
:100AB000013E03195C2DB7072208A8002808F000A2
:100AC00024080A168A153D270A128A117108831212
:100AD0000313B9007008B8003808A800A901AA01DA
:100AE000AB012808AE07290803110318013E0319BA
:100AF0007A2DAF072A0803110318013E0319812D2F
:100B0000B0072B0803110318013E0319882DB10704
:100B10003908A800A901AA01AB012808B4072908CF
:100B200003110318013E0319962DB5072A08031176
:100B30000318013E03199D2DB6072B080311031856
:100B4000013E0319A42DB7070830A8000310AE0D0D
:100B5000AF0DB00DB10DA80BA62D2108A8002808D7
:100B6000F00024080A168A153D270A128A11710816
:100B700083120313B9007008B8003808A8003908B8
:100B8000A900AA01AB012808AE0729080311031820
:100B9000013E0319CC2DAF072A0803110318013EAB
:100BA0000319D32DB0072B0803110318013E0319B5
:100BB000DA2DB1072008A8002808F00025080A1639
:100BC0008A153D270A128A11710883120313B9008E
:100BD0007008B8003808A8003908A900AA01AB01BC
:100BE0002808AE07290803110318013E0319F92D3F
:100BF000AF072A0803110318013E0319002EB0079E
:100C00002B0803110318013E0319072EB107083002
:100C1000A8000310AE0DAF0DB00DB10DA80B092E3D
:100C20002008A8002808F00024080A168A153D2785
:100C30000A128A11710883120313B9007008B800F0
:100C40003808A8003908A900AA01AB012808AE0796
:100C5000290803110318013E03192F2EAF072A0894
:100C600003110318013E0319362EB0072B08031198
:100C70000318013E03193D2EB1072108A8002808DA
:100C8000F00026080A168A153D270A128A117108F3
:100C900083120313B9007008B8003808A800390897
:100CA000A900AA01AB012808B407290803110318F9
:100CB000013E03195C2EB5072A0803110318013EF3
:100CC0000319632EB6072B0803110318013E0319FD
:100CD0006A2EB7072208A8002808F00025080A167F
:100CE0008A153D270A128A11710883120313B9006D
:100CF0007008B8003808A8003908A900AA01AB019B
:100D00002808B407290803110318013E0319892E86
:100D1000B5072A0803110318013E0319902EB607E0
:100D20002B0803110318013E0319972EB707220859
:100D3000A8002808F00026080A168A153D270A127E
:100D40008A11710883120313B9007008B8003808BB
:100D5000A8003908A900AA01AB0108300310A80DAA
:100D6000A90DAA0DAB0DFF3E031DAE2E2808B4073A
:100D7000290803110318013E0319BF2EB5072A08DD
:100D800003110318013E0319C62EB6072B080311E1
:100D90000318013E0319CD2EB7072E08A8002F080F
:100DA000A9003008AA003108AB0018300310AB0CC2
:100DB000AA0CA90CA80CFF3E031DD62E2808B407C8
:100DC000290803110318013E0319E72EB5072A0865
:100DD00003110318013E0319EE2EB6072B08031169
:100DE0000318013E0319F52EB7070830A8000310B9
:100DF000AE0DAF0DB00DB10DA80BF72E33083207B5
:100E0000A800A901A90D2808823EB80029080318E6
:100E1000013EFF3EB9002B2F0130A8000310B40D96
:100E2000B50DB60DB70DA80B0E2FB11F182F192F2A
:100E30001B2F34141B2F0130A8000310AE0DAF0D73
:100E4000B00DB10DA80B1D2FFF30B8070318B90A5C
:100E5000FF30B9072B2FB61F2E2F2F2F0C2F302F1F
:100E6000B201B11F342F352F552FFF302E05A800AA
:100E7000FF302F05A900FF303005AA007F30310573
:100E8000AB002B082A04290428040319482F492FF2
:100E90004C2FB201B20A552F341C4F2F502F552F13
:100EA000B201B20A552F552F552F32080319592F69
:100EB0005A2F8D2F0130B407003003180130B507C9
:100EC000003003180130B607003003180130B707AF
:100ED000371C6B2F6C2F8D2F3408A8003508A90004
:100EE0003608AA003708AB000130AC002B0DAB0C64
:100EF000AA0CA90CA80CAC0B762F2B08B7002A085B
:100F0000B6002908B5002808B4000130B807031856
:100F1000B90A0030B9078D2F8D2F3908803AFF00AC
:100F200080307F02031D962FFF303802031C992F5B
:100F30009A2FA52F7F3083120313B7008030B6009D
:100F40000030B5000030B400DC2F831203133908E1
:100F5000803AFF0080307F02031DB02F013038023D
:100F60000318B32FB42FC02F003083120313B70020
:100F70000030B6000030B5000030B400AD01DC2F09
:100F8000831203133808A8002808B300FF30B40503
:100F9000FF30B5057F30B6050030B705331CD12FC3
:100FA000D22FD42FB617D42F3308A8000310280C43
:100FB000A9002908B700DC2F2D08A8002808B704CD
:100FC0003708A3003608A2003508A1003408A000A5
:100FD000E92F08008313C2308400DE300A128A1120
:100FE00003200A128A11831790308400CB300A1232
:100FF0008A1103200A128A1183010A168A150D2FFD
:10100000831203132308F3002208F2002108F100E1
:101010002008F0000A168A11AC220A128A157008FC
:10102000FB007B0883160317A0000800F80078086F
:1010300003191B281C283028F31F1F2820283028BC
:101040007009FA007109FB007209FC007309FD00C8
:10105000FA0A0319FB0A0319FC0A0319FD0A3828C6
:101060007308FD007208FC007108FB007008FA00AC
:101070007308720471047004031D3F2840284A2835
:101080000030F3000030F2000030F1000030F000DA
:10109000D728D7289630F4007408F9005D2801306D
:1010A000F4007408F90701300310FD0CFC0CFB0C74
:1010B000FA0CFF3E031D54285D28FE307D05031DFC
:1010C000622863284F28802880280130F4007408A3
:1010D000F9070130FA07003003180130FB07003030
:1010E00003180130FC07003003180130FD07013000
:1010F0000310FD0CFC0CFB0CFA0CFF3E031D7828C2
:10110000FF307D05031D85288628652894289428AE
:101110000130F9020130F4000310FA0DFB0DFC0D53
:10112000FD0DF40B8C289428FC1B972898289F28E9
:101130000230790203189D289E2888289F28791854
:10114000A228A328AB28FF30FA05FF30FB057F302B
:10115000FC05FF30FD050310F90C7908F400F501DA
:10116000F601F70118300310F40DF50DF60DF70D2B
:10117000FF3E031DB3287408FA047508FB047608C3
:10118000FC047708FD0478080319C728C828CE286E
:10119000F31FCB28CC28CE28FD17CE287D08F300DE
:1011A0007C08F2007B08F1007A08F000D7280800DC
:1011B000831203135D088039DE005E08E7005D08D6
:1011C000DE005E07DF005F08EE00DC1FE828E9288C
:1011D000EB286E14EB286E080319EF28F02801297C
:1011E0006E0A031DF428F528FE280030DD000030CB
:1011F000DC000030DB000030DA00FE28DC17DD0107
:101200000A290030DD000030DC000030DB00003057
:10121000DA000A2959088039DE005E08E706590815
:10122000DE005E07DF005F08EF00D81F18291929CC
:101230001B296F141B296F0803191F292029312925
:101240006F0A031D242925292E290030D9000030DA
:10125000D8000030D7000030D6002E29D817D90189
:1012600039290030D9000030D8000030D7000030D4
:10127000D6005908580457045604031D4029412933
:101280005B290030DD000030DC000030DB00003086
:10129000DA008030DC047F30DD046708DE005E08A1
:1012A000DD045D08D9005C08D8005B08D7005A0847
:1012B000D600E02AE02A6E08031D5F296029722902
:1012C0000030DD000030DC000030DB000030DA00F0
:1012D0005D08D9005C08D8005B08D7005A08D60022
:1012E000E02AE02A6F08DE00DF01DE09DF09DE0AFE
:1012F0000319DF0A6E085E07E0005F0803185F0A43
:10130000E10060087F3EE80061080318013E003EEE
:10131000E9005D08E6005C08E5005B08E4005A08A7
:10132000E3000030DD000030DC000030DB00003086
:10133000DA000030ED000030EC000030EB0000304F
:10134000EA00EF01F1296F080319A729A829CA2982
:101350000130DE000310E30DE40DE50DE60DDE0BBC
:10136000AA290130DE000310DA0DDB0DDC0DDD0DE6
:10137000DE0BB329ED1FBD29BE29C0295A14C0298F
:101380000130DE000310EA0DEB0DEC0DED0DDE0B70
:10139000C229CA2959086602031DD82958086502BE
:1013A000031DD82957086402031DD8295608630273
:1013B000031CDB29DC29EC296D175608E3025708CA
:1013C000031C570FE4025808031C580FE502590884
:1013D000031C590FE602EC290130DE005E08EF071E
:1013E000F1291A306F02031CF629F729A329F829DD
:1013F00066086504640463040319FF29002A222A8D
:101400006A14222A222A0130DE000310DA0DDB0DD5
:10141000DC0DDD0DDE0B052AED1F0F2A102A122A26
:101420005A14122A0130DE000310EA0DEB0DEC0D08
:10143000ED0DDE0B142AFF30E8070318E90AFF3030
:10144000E907222ADC1F252A262A032A272AEF0158
:10145000ED1F2B2A2C2A4C2AFF306A05DE00FF30B4
:101460006B05DF00FF306C05E0007F306D05E100AB
:10147000610860045F045E0403193F2A402A432A7E
:10148000EF01EF0A4C2A5A1C462A472A4C2AEF0140
:10149000EF0A4C2A4C2A4C2A6F080319502A512A69
:1014A000842A0130DA07003003180130DB070030EE
:1014B00003180130DC07003003180130DD075D1C24
:1014C000622A632A842A5A08DE005B08DF005C086F
:1014D000E0005D08E1000130E200610DE10CE00C8C
:1014E000DF0CDE0CE20B6D2A6108DD006008DC0019
:1014F0005F08DB005E08DA000130E8070318E90A3C
:101500000030E907842A842A6908803AFF00803085
:101510007F02031D8D2AFF306802031C902A912A46
:10152000A02AFF3083120313E8000030E9000030E6
:10153000DD000030DC000030DB000030DA00A02AE3
:10154000831203136908803AFF0080307F02031D75
:10155000AB2A013068020318AE2AAF2ABC2A8312D4
:101560000313E801E9010030DD000030DC00003049
:10157000DB000030DA00E701831203136808DE00A5
:101580005E08EE006E1CC52AC62AC82ADC17CC2AC3
:101590007F30DE005E08DC056E08DE0003105E0CA6
:1015A000DF005F08DD006708DE005E08DD045D081F
:1015B000D9005C08D8005B08D7005A08D600E02A9A
:1015C000080083160313230883120313C100831634
:1015D0000313220883120313C00083160313210888
:1015E00083120313BF00831603132008831203130F
:1015F000BE0083160313270883120313BD0083164E
:101600000313260883120313BC0083160313250853
:1016100083120313BB0083160313240883120313DE
:10162000BA000A168A15ED260A128A1583120313C8
:101630003D08C5003C08C4003B08C3003A08C2008E
:101640000A128A11B9210A128A158312031341085A
:1016500083160317A600831203134008831603178B
:10166000A500831203133F0883160317A4008312F7
:1016700003133E0883160317A300200883160313E1
:10168000A800A901AA01AB012B08F3002A08F20067
:101690002908F1002808F00001300A128A151620E6
:1016A0000A128A15730883120313A7007208A60092
:1016B0007108A5007008A4001330903E84008317C1
:1016C0000008A000840A0008A100840A0008A20003
:1016D000840A0008A3000A128A1175240A128A15C6
:1016E000831203132308C1002208C0002108BF0091
:1016F0002008BE001B30903E840083170008C20003
:10170000840A0008C300840A0008C400840A000890
:10171000C5000A128A11B9210A128A15831203130D
:10172000410883160317AE00831203134008831683
:101730000317AD00831203133F0883160317AC0091
:10174000831203133E0883160317AB00130883129A
:101750000313A30083160317120883120313A200B6
:1017600083160317110883120313A10083160317AE
:10177000100883120313A0001330903E84008317D7
:101780000008A400840A0008A500840A0008A60036
:10179000840A0008A7000A128A1175240A128A1501
:1017A00083120313230883160317BA00831203134B
:1017B000220883160317B900831203132108831626
:1017C0000317B80083120313200883160317B7000A
:1017D0001B30903E84008317000883120313A0007F
:1017E000840A0008A100840A0008A200840A0008F4
:1017F000A3000430903E84000008A400840A00087E
:10180000A500840A0008A600840A0008A7000A129E
:101810008A1175240A128A1583120313230883166A
:101820000317B60083120313220883160317B500AB
:1018300083120313210883160317B40083120313C2
:10184000200883160317B3000830903E84008317E6
:10185000000883120313A000840A0008A100840A70
:101860000008A200840A0008A300831603172008BA
:1018700083160313A800A901AA01AB012B08F300EA
:101880002A08F2002908F1002808F00001300A12A5
:101890008A1516200A128A15730883120313D900B9
:1018A0007208D8007108D7007008D6001330903E37
:1018B000840083170008BE00840A0008BF00840A61
:1018C0000008C000840A0008C1001730903E840060
:1018D0000008BA00840A0008BB00840A0008BC00A3
:1018E000840A0008BD000A168A15ED260A128A1518
:1018F000831203133D08C5003C08C4003B08C30025
:101900003A08C2000A128A11B9210A128A158312F2
:1019100003134108DD004008DC003F08DB003E08FF
:10192000DA000A128A15D8200A128A1583120313C4
:101930005908A7005808A6005708A5005608A40093
:101940000A128A1175240A128A15831203132308B6
:1019500083160317BE00831203132208831603178E
:10196000BD0083120313210883160317BC008312E2
:101970000313200883160317BB002330903E840016
:101980008317000883120313BE00840A0008BF00F7
:10199000840A0008C000840A0008C1002730903E75
:1019A00084000008C200840A0008C300840A0008FA
:1019B000C400840A0008C5000A128A11B9210A125B
:1019C0008A1583120313410883160313AF00831291
:1019D0000313400883160313AE00831203133F085A
:1019E00083160313AD00831203133E0883160313FB
:1019F000AC002B30903E8400831700088312031341
:101A0000BE00840A0008BF00840A0008C000840ADF
:101A10000008C100831603132F0883120313C500A7
:101A2000831603132E0883120313C40083160313B3
:101A30002D0883120313C300831603132C0883128B
:101A40000313C2000A128A11B9210A128A158312DD
:101A50000313410883160317C200831203134008BF
:101A600083160317C100831203133F08831603175D
:101A7000C000831203133E0883160317BF002F30E4
:101A8000903E84008317000883160313A000840A85
:101A90000008A100840A0008A200840A0008A3002C
:101AA000512D0800F600C52FF001831603135E08C0
:101AB0000A168A11DD260A128A15F001831603130D
:101AC0005F080A168A11DD260A128A15F0018316AC
:101AD000031360080A168A11DD260A128A15F0011E
:101AE0008316031361080A168A11DD260A128A1565
:101AF000FF2FF001831603135E080A168A11DD26F4
:101B00000A128A15F001831603135F080A168A1158
:101B1000DD260A128A15F0018316031360080A16DF
:101B20008A11DD260A128A15F001F00A83160313C2
:101B300061080A168A11DD260A128A15FF2FF001A4
:101B4000831603135E080A168A11DD260A128A1507
:101B5000F001831603135F080A168A11DD260A12A4
:101B60008A15F001F00A8316031360080A168A1119
:101B7000DD260A128A15F0018316031361080A167E
:101B80008A11DD260A128A15FF2FF001831603132E
:101B90005E080A168A11DD260A128A15F0018316DC
:101BA00003135F080A168A11DD260A128A15F0014E
:101BB000F00A8316031360080A168A11DD260A123A
:101BC0008A15F001F00A8316031361080A168A11B8
:101BD000DD260A128A15FF2FF001831603135E0813
:101BE0000A168A11DD260A128A15F001F00A8316F8
:101BF00003135F080A168A11DD260A128A15F001FE
:101C00008316031360080A168A11DD260A128A1544
:101C1000F0018316031361080A168A11DD260A12E1
:101C20008A15FF2FF001831603135E080A168A1126
:101C3000DD260A128A15F001F00A831603135F08E5
:101C40000A168A11DD260A128A15F001831603137B
:101C500060080A168A11DD260A128A15F001F00AB8
:101C60008316031361080A168A11DD260A128A15E3
:101C7000FF2FF001831603135E080A168A11DD2672
:101C80000A128A15F001F00A831603135F080A1678
:101C90008A11DD260A128A15F001F00A8316031351
:101CA00060080A168A11DD260A128A15F0018316C9
:101CB000031361080A168A11DD260A128A15FF2FFE
:101CC000F001831603135E080A168A11DD260A1234
:101CD0008A15F001F00A831603135F080A168A11A9
:101CE000DD260A128A15F001F00A83160313600834
:101CF0000A168A11DD260A128A15F001F00A8316E7
:101D0000031361080A168A11DD260A128A15FF2FAD
:101D1000F001F00A831603135E080A168A11DD2605
:101D20000A128A15F001831603135F080A168A1136
:101D3000DD260A128A15F0018316031360080A16BD
:101D40008A11DD260A128A15F00183160313610831
:101D50000A168A11DD260A128A15FF2FF001F00AF1
:101D6000831603135E080A168A11DD260A128A15E5
:101D7000F001831603135F080A168A11DD260A1282
:101D80008A15F0018316031360080A168A11DD26EE
:101D90000A128A15F001F00A8316031361080A1665
:101DA0008A11DD260A128A15FF2FF001F00A831628
:101DB00003135E080A168A11DD260A128A15F0013D
:101DC000831603135F080A168A11DD260A128A1584
:101DD000F001F00A8316031360080A168A11DD2643
:101DE0000A128A15F0018316031361080A168A1174
:101DF000DD260A128A15FF2FF001F00A831603135D
:101E00005E080A168A11DD260A128A15F001831669
:101E100003135F080A168A11DD260A128A15F001DB
:101E2000F00A8316031360080A168A11DD260A12C7
:101E30008A15F001F00A8316031361080A168A1145
:101E4000DD260A128A15FF2FF001F00A831603130C
:101E50005E080A168A11DD260A128A15F001F00AB8
:101E6000831603135F080A168A11DD260A128A15E3
:101E7000F0018316031360080A168A11DD260A1280
:101E80008A15F0018316031361080A168A11DD26EC
:101E90000A128A15FF2FF001F00A831603135E0859
:101EA0000A168A11DD260A128A15F001F00A831635
:101EB00003135F080A168A11DD260A128A15F0013B
:101EC0008316031360080A168A11DD260A128A1582
:101ED000F001F00A8316031361080A168A11DD2641
:101EE0000A128A15FF2FF001F00A831603135E0809
:101EF0000A168A11DD260A128A15F001F00A8316E5
:101F000003135F080A168A11DD260A128A15F001EA
:101F1000F00A8316031360080A168A11DD260A12D6
:101F20008A15F0018316031361080A168A11DD264B
:101F30000A128A15FF2FF001F00A831603135E08B8
:101F40000A168A11DD260A128A15F001F00A831694
:101F500003135F080A168A11DD260A128A15F0019A
:101F6000F00A8316031360080A168A11DD260A1286
:101F70008A15F001F00A8316031361080A168A1104
:101F8000DD260A128A15FF2FFF2F7608F400F501CF
:101F90007508003A0319CD2FFF2F7408003A031972
:101FA000542D013A0319792D033A03199F2D013A53
:101FB0000319C52D073A0319EC2D013A0319122E06
:101FC000033A0319392E013A0319602E0F3A031907
:101FD000882E013A0319AE2E033A0319D52E013A81
:101FE0000319FC2E073A0319242F013A03194B2F2A
:101FF000033A0319732F013A03199B2FFF2F08008F
:10200000FF1B0A2883137F1883170008840A03190B
:10201000FF0A080010308A000408840A820700348E
:10202000013400340A34003464340034E8340334B6
:102030001034273413341234113410341934153455
:1020400014342034203420342034203420342034FC
:1020500020342034203420342034203420342034E0
:1020600020340034503449344434203443346F3401
:102070006E34743472346F346C34203454346534B8
:10208000733474340034543469346D3465343D34FD
:1020900025347534203400344E344F3457343D34B5
:0620A00025347534003404
:1020B20083120313A501A601832825082007A30084
:1020C2002108A2000318A20AA51F6828A2038312EE
:1020D20003132208A4002408FF00230884000A1620
:1020E2008A1100200A168A110A168A15FC260A1677
:1020F2008A11013083120313A5070318A60A0030C0
:10210200A607832825082007A3002108A200031898
:10211200A20AA51F8D28A203831203132208A4007A
:102122002408FF00230884000A168A1100200A16D8
:102132008A11003A031D9E289F285E28A0280800C5
:10214200F501F601700871040319A828A928E628E8
:10215200F701F70AB82801300310F00DF10DFF3E28
:10216200031DAD280130F4007408F707B828F11FE9
:10217200BB28BC28AC28BE28BE2801300310F50DB0
:10218200F60DFF3E031DBF2871087302031DCB2805
:1021920070087202031CCE28CF28D7287008F202DA
:1021A2007108031CF303F3027514D72801300310DE
:1021B200F10CF00CFF3E031DD8280130F702031D7D
:1021C200E328E428BE28E628E6287608F100750808
:1021D200F000EB280800F301F4017408803AF200E1
:1021E2007108803A7202031DF82870087302031CFA
:1021F200FB28FC28FE2839293929F501F601760841
:10220200803AFF0080307F02031D0929EB307502FE
:10221200031C0C290D290F2924292429000001302F
:10222200F5070318F60A0030F6077608803AFF0031
:1022320080307F02031D1F29EB307502031C222907
:1022420023290F2924290130F3070318F40A003047
:10225200F4077408803AF2007108803A7202031D92
:10226200342970087302031C37293829FE283929BA
:102272000800103084000A168A110A200A168A11F0
:1022820083120313A7002708A0000F3084000A1648
:102292008A110A200A168A11A8002808A1000E3005
:1022A20084000A168A110A200A168A11A90029082E
:1022B200A2000D3084000A168A110A200A168A1119
:1022C200AA002A08A3000C3084000A168A110A20E8
:1022D2000A168A11AB002B08A4000B3084000A16E0
:1022E2008A110A200A168A11AC002C08A5001130A6
:1022F20084000A168A110A200A168A110A168A11FD
:1023020046230A168A11FC01FC0A01300A168A15B4
:1023120093270A168A11233083120313A0008030F8
:10232200A1000A168A1159200A168A114230831214
:102332000313A3008030A2000030A1000030A000EF
:102342000A128A1500200A168A110800FA00FB01F7
:10235200F9017A08F039F7007708FB007B08F700EB
:1023620004300310F70CFF3E031DB2297708F80072
:102372007808FB007A080F39F7007708F9007B0824
:102382000A128A1552250A168A11F00183160313BE
:1023920064080A168A11DD260A168A11F0018316CC
:1023A200031362080A168A11DD260A168A11F00141
:1023B200F00A8316031363080A168A11DD260A1629
:1023C2008A110530F0000030F1000A168A11EC2063
:1023D2000A168A11F0018316031363080A168A117A
:1023E200DD260A168A110530F0000030F1000A16C7
:1023F2008A11EC200A168A1179080A128A155225C6
:102402000A168A11F001F00A8316031363080A16EA
:102412008A11DD260A168A110530F0000030F1001B
:102422000A168A11EC200A168A11F0018316031388
:1024320063080A168A11DD260A168A110330F00093
:102442000030F1000A168A11EC200A168A110800DF
:10245200FA00FB01F9017A08F039F7007708FB006E
:102462007B08F70004300310F70CFF3E031D342AEB
:102472007708F8007808FB007A080F39F700770828
:10248200F9007B080A128A1552250A168A11F001F0
:10249200F00A8316031364080A168A11DD260A1647
:1024A2008A11F0018316031362080A168A11DD26C7
:1024B2000A168A11F001F00A8316031363080A163A
:1024C2008A11DD260A168A110530F0000030F1006B
:1024D2000A168A11EC200A168A11F00183160313D8
:1024E20063080A168A11DD260A168A110530F000E1
:1024F2000030F1000A168A11EC200A168A117908B6
:102502000A128A1552250A168A11F001F00A831658
:10251200031363080A168A11DD260A168A1105308A
:10252200F0000030F1000A168A11EC200A168A1116
:10253200F0018316031363080A168A11DD260A16B0
:102542008A110330F0000030F1000A168A11EC20E3
:102552000A168A1108007008F4007108F500720862
:10256200F6007308F7000310760D770DF80078086F
:10257200FA007A08031DBE2ABF2AC92A0030F300D6
:102582000030F2000030F1000030F000452B452B06
:102592007008F4007108F5007208F6007308F7007D
:1025A2001F300310F70CF60CF50CF40CFF3E031D64
:1025B200D22A7408F8007808F900F217FF30F00503
:1025C200FF30F105FF30F2050030F3059630FA02D4
:1025D200FA1FEC2AED2A122B7A08803A973E03184A
:1025E200F32AF42AFF2A0030F3000030F200003010
:1025F200F1000030F000452B452BFF2A013003107B
:10260200F30CF20CF10CF00CFF3E031D002B013019
:10261200F4007408FA07031D0F2B102BFF2A352B29
:10262200352B20307A02031C172B182B2E2B00304F
:10263200F3000030F2000030F1000030F000452BD2
:10264200452B2E2B0130F4000310F00DF10DF20D8D
:10265200F30DF40B252B0130FA027A08031D322BFD
:10266200332B232B352B352B79080319392B3A2B96
:10267200452BF009F109F209F309F00A0319F10AED
:102682000319F20A0319F30A0800FD007D08FC0091
:102692007C0883160313E400831203132008FC0052
:1026A2007C0883160313E300831203132108FC0042
:1026B2007C0883160313E200831203132208FC0032
:1026C2007C0883160313E100831203132308FC0022
:1026D2007C0883160313E000831203132408FC0012
:1026E2007C0883160313DF00831203132508FC0002
:1026F2007C0883160313DE00F0017D080A168A1196
:10270200BC250A168A11F0018312031320080A1647
:102712008A11BC250A168A11F001831203132108BB
:102722000A168A11BC250A168A11F00183120313B4
:1027320022080A168A11BC250A168A11F001831290
:10274200031323080A168A11BC250A168A11F001FE
:102752008312031324080A168A11BC250A168A1149
:10276200F0018312031325080A168A11BC250A16E2
:102772008A110F30F0000030F1000A168A11EC20A5
:102782000A168A1102300A168A11A7210A168A111C
:1027920028300A168A11A7210A168A1101300A1650
:1027A2008A11A7210A168A110C300A168A11A7214A
:1027B2000A168A1106300A168A11A7210A168A11E8
:1027C200080083120313AB002130A3002308A700E3
:1027D200A82C25302C060319EF2BF02BFC2B2C08F0
:1027E200A3002B0884002308831380000130A30078
:1027F2002308AB07A82CA601062CBC2CA82CC030A1
:10280200A3002308A604202C202C0130A007FF30AF
:10281200200784000A168A110A200A168A11AC00BF
:10282200A300A4012408003A0319182CA82C230899
:10283200003A0319BC2C753A0319002CA82C27085E
:10284200840083130008A800840A0008A90002304B
:10285200A3002308A707AC01AC0A05302C06031D10
:10286200332C342C362C5E2C5E2C2C08A300230730
:10287200013E84000A168A110A200A168A11A4004F
:102882000A168A110A200A168A11A50025082902A9
:10289200031D4D2C240828020318502C512C532CB4
:1028A2005E2C5E2C0130A3002308AC0705302C06F9
:1028B200031D5C2C5D2C362C5E2C2C08A3002308F7
:1028C200AA009D2C0A30F8000030F9002A08A30063
:1028D2002307013E84000A168A110A200A168A1169
:1028E200F0000A168A110A200A168A11F100290834
:1028F200F3002808F2000A168A11A1200A168A118A
:102902007108FB007008FA000A168A15BF270A161A
:102912008A117808303E83120313A4002408AC0005
:102922002C08A3002B0884002308831380000130A5
:10293200A3002308AB079D2CFF30A3002308AA079E
:102942002A0A031DA52CA62C632CA82CA82C013026
:10295200A007FF30200784000A168A110A200A16EF
:102962008A11A3002308AC002C08031DB92CBA2C31
:10297200EA2BBC2CBC2C2B08840083138001C12CB5
:1029820008000A168A1521270A168A117108831669
:102992000313CB007008CA003D30BC003C08831210
:1029A2000313A000831603134D0883120313A2001E
:1029B200831603134C0883120313A100CE300A16A8
:1029C2008A11E2230A168A11CE3083120313A00061
:1029D2000030A1000A168A1159200A168A110830FD
:1029E20083160313BC003C08FC0002300A168A1549
:1029F20093270A168A11831603134809BC00490952
:102A0200BD00BC0A0319BD0A4A083C07CC004B08AA
:102A120003184B0A3D07CD0000304D021430031954
:102A22004C02031C152D162DBB2D0130C6070318B1
:102A3200C70A0030C707FC01FC0A02300A168A15D1
:102A420093270A168A11123083120313A0008030D2
:102A5200A1000A168A1159200A168A11FC01FC0AE1
:102A620002300A168A1593270A168A113430831601
:102A72000313BC003C0883120313A0008316031344
:102A8200470883120313A200831603134608831216
:102A92000313A100CE300A168A11E2230A168A1104
:102AA200CE3083120313A0000030A1000A168A114F
:102AB20059200A168A11473083160313A300703077
:102AC200A2004330A1000030A0000030A700003077
:102AD200A6000030A5000030A4004430AB007F30D7
:102AE200AA00C030A9000030A8000030AF000030BA
:102AF200AE000030AD000030AC004230B300C83050
:102B0200B2000030B1000030B0000A128A110B206E
:102B12000A168A11831603132308C1002208C00073
:102B22002108BF002008BE004030A3004830A200A8
:102B3200F530A100C330A0004030A7002D30A60020
:102B42007030A500A430A4000A128A15E1220A16E8
:102B52008A11831603132308C5002208C400210822
:102B6200C3002008C200CC01CD014B08C9004A08AD
:102B7200C800BB2D0800F300872E700C83160313C8
:102B8200031C871303188717DC2E700C831603139C
:102B9200031C071303180717DC2E700C831603138C
:102BA200031C871203188716DC2E700C831603137E
:102BB200031C071203180716DC2E700C831603136E
:102BC200031C871103188715DC2E700C8316031360
:102BD200031C071103180715DC2E700C8316031350
:102BE200031C871003188714DC2E700C8316031342
:102BF200031C071003180714DC2E700C8316031332
:102C0200031C061003180614DC2E700C8316031323
:102C1200031C861003188614DC2E700C8316031313
:102C2200031C061103180615DC2E700C8316031301
:102C3200031C861103188615DC2E700C83160313F1
:102C4200031C061203180616DC2E700C83160313DF
:102C5200031C861203188616DC2E700C83160313CF
:102C6200031C061303180617DC2E700C83160313BD
:102C7200031C861303188617DC2E700C83160313AD
:102C8200031C081003180814DC2E700C831603139F
:102C9200031C881003188814DC2E700C831603138F
:102CA200031C081103180815DC2E700C831603137D
:102CB200031C881103188815DC2E700C831603136D
:102CC200031C081203180816DC2E700C831603135B
:102CD200031C881203188816DC2E700C831603134B
:102CE200031C081303180817DC2E700C8316031339
:102CF200031C881303188817DC2E700C8316031329
:102D0200031C051203180516DC2EDC2E7308F100D5
:102D1200F2017208003A03198F2EDC2E7108003A74
:102D22000319BE2D013A0319C62D033A0319CE2DFC
:102D3200013A0319D62D073A0319DE2D013A031978
:102D4200E62D033A0319EE2D013A0319F62D0F3A37
:102D52000319FE2D013A0319062E033A03190E2E0A
:102D6200013A0319162E073A03191E2E013A0319C6
:102D7200262E033A03192E2E013A0319362E1F3A34
:102D820003193E2E013A0319462E033A03194E2E19
:102D9200013A0319562E073A03195E2E013A031916
:102DA200662E033A03196E2E013A0319762E0F3A54
:102DB20003197E2EDC2E0800F300AA2F700C83125A
:102DC2000313031C871303188717FF2F700C83123A
:102DD2000313031C071303180717FF2F700C83122A
:102DE2000313031C871203188716FF2F700C83121C
:102DF2000313031C071203180716FF2F700C83120C
:102E02000313031C871103188715FF2F8312031363
:102E12009701700C031C071103180715FF2F83126B
:102E220003139D01700C031C871003188714FF2FD6
:102E3200700C83120313031C071003180714FF2FCF
:102E4200700C83120313031C061003180614FF2FC1
:102E5200700C83120313031C861003188614FF2FB1
:102E6200700C83120313031C061103180615FF2F9F
:102E7200700C83120313031C861103188615FF2F8F
:102E8200700C83120313031C061203180616FF2F7D
:102E9200700C83120313031C861203188616FF2F6D
:102EA200700C83120313031C061303180617FF2F5B
:102EB200700C83120313031C861303188617FF2F4B
:102EC200700C83120313031C081003180814FF2F3D
:102ED200700C83120313031C881003188814FF2F2D
:102EE200700C83120313031C081103180815FF2F1B
:102EF200700C83120313031C881103188815FF2F0B
:102F0200700C83120313031C081203180816FF2FF8
:102F1200700C83120313031C881203188816FF2FE8
:102F2200700C83120313031C081303180817FF2FD6
:102F3200700C83120313031C881303188817FF2FC6
:102F4200700C83120313031C051203180516FF2FBE
:102F5200FF2F7308F100F2017208003A0319B22F31
:102F6200FF2F7108003A0319DF2E013A0319E72EE9
:102F7200033A0319EF2E013A0319F72E073A031900
:102F8200FF2E013A0319072F033A0319102F013AB2
:102F92000319192F0F3A0319212F013A0319292F67
:102FA200033A0319312F013A0319392F073A03194A
:102FB200412F013A0319492F033A0319512F013ABC
:102FC2000319592F1F3A0319612F013A0319692F67
:102FD200033A0319712F013A0319792F073A03199A
:102FE200812F013A0319892F033A0319912F013ACC
:0E2FF2000319992F0F3A0319A12FFF2F080082
:103DBC00FF30831603139200053083120313920015
:103DCC009B0195010C3097000C309D00080083126C
:103DDC0003133D083C043B043A040319F62EF72E5A
:103DEC00FA2E8030BD06FA2EFB2E0800FC0008309F
:103DFC00F0000030F1000A168A11EC200A168A1520
:103E0C007C080A168A1129220A168A1508000A1635
:103E1C008A1567270A168A150A168A113A210A1674
:103E2C008A15182F0A168A11C2240A168A15182FF9
:103E3C000A128A110028222F0B1D252F262F222F24
:103E4C000B11831603172003FF3AFF3E8312031353
:103E5C008100013083160317A1070318A20A003052
:103E6C00A2072208F1002108F0003C2F0800F800FE
:103E7C00F401F5017008F200F3017208F600730802
:103E8C00F700482F781C4B2F4C2F522F7608F40735
:103E9C000318F50A7708F50701300310F60DF70D36
:103EAC00FF3E031D532F0310F80C7808031D5F2FE2
:103EBC00602F482F612F7508F1007408F000662FF1
:103ECC0008008130831203139F00C2308316031342
:103EDC009F0085013F3085008312031386018316F2
:103EEC0003138601831203138601870183160313C0
:103EFC0087018312031387010A168A15DE260A1618
:103F0C008A158801003088088801831203138901FF
:103F1C000730831603138900080083120313A000D3
:103F2C00A1012003031D9B2F9C2FA82F7C087F3EF3
:103F3C00FD007D08A10021080A168A11A7210A1686
:103F4C008A15BE2F0230831203132006031DAF2FD8
:103F5C00B02FBE2F7C08BF3EFD007D08A1002108BC
:103F6C000A168A11A7210A168A15BE2FBE2FBE2F3C
:103F7C000800780879040319C42FC52FFA2FFD0106
:103F8C00FD0AD42F01300310F80DF90DFF3E031D6F
:103F9C00C92F0130FC007C08FD07D42FF91FD72F47
:103FAC00D82FC82FDA2FDA2F79087B02031DE02FC8
:103FBC0078087A02031CE32FE42FEB2F7808FA021F
:103FCC007908031CFB03FB02EB2F01300310F90CE7
:103FDC00F80CFF3E031DEC2F0130FD02031DF72FE3
:103FEC00F82FDA2FFA2FFA2F7B08F9007A08F8004D
:0C3FFC00FF2F0800FF3FFF3FFF3FFF3F8B
:02400E00BA3FB7
:00000001FF
