:100000000A128A11BB2FFF1B0D2883137F18831739
:100010000008840A0319FF0A080000308A00040857
:10002000840A82070034013400340A340034643412
:100030000034E8340334103427342034203420349E
:100040002034203420342034203420342034203410
:1000500020342034203420342034003425347534C6
:0200600000346A
:100A3A00143464008001840A04060319003404068D
:100A4A001F2DFF3083160313920005308312031300
:100A5A0092009B0195010C3097000C309D00080014
:100A6A00F00106300A128A119A260A128A11F00136
:100A7A0005300A128A119A260A128A1108000A34C3
:100A8A0000342034103480344034013402340834C1
:100A9A0004343034303404340834FF347E088A0095
:100AAA007F0882000A128A1153250A128A118000CD
:100ABA00840A04087D0603190034FF0A0319FE0A92
:100ACA00572D0A128A119D250A128A110A128A11B1
:100ADA0035250A128A11712D0A128A11C9250A129C
:100AEA008A11712D0A128A11002800340134FF3448
:100AFA000034FF340034003401340134003400344B
:100B0A00FF340034FF3401340034FC346034DA3406
:100B1A00F2346634B634BE34E034FE34F634FA3491
:100B2A003E349E346E340234283401340C34063494
:100B3A008130831203139F00C230831603139F0070
:100B4A0085013F3085008312031386018316031340
:100B5A008601831203138601870183160313870113
:100B6A008312031387010A128A1126250A128A118F
:100B7A00880100308808880183120313890107302D
:100B8A008316031389000800C830F0000030F10012
:100B9A0006300A128A1104260A128A11C830F00095
:100BAA000030F10005300A128A1104260A128A114D
:100BBA006430F0000030F1000A128A114C260A1241
:100BCA008A11F430F0000130F10006300A128A115D
:100BDA0004260A128A11F430F0000130F1000530BF
:100BEA000A128A1104260A128A116430F0000030AF
:100BFA00F1000A128A114C260A128A110800F4001E
:100C0A003B2E7108F3007008F2000310F30CF20C8B
:100C1A000310F30CF20C7208831203139B009D124B
:100C2A007018182E1C2E831203131D161F2E8312E2
:100C3A0003131D124B2E7108F3007008F200031003
:100C4A00F30CF20C0310F30CF20C72088312031368
:100C5A00950097127018322E362E83120313171628
:100C6A00392E8312031317124B2E4B2E7408F200DF
:100C7A00F3017308003A0319432E4B2E7208053A02
:100C8A000319202E033A0319062E4B2E0800F301EE
:100C9A00F4017408803AF2007108803A7202031D66
:100CAA00582E70087302031C5B2E5C2E5E2E992E42
:100CBA00992EF501F6017608803AFF0080307F020E
:100CCA00031D692EEB307502031C6C2E6D2E6F2EE0
:100CDA00842E842E00000130F5070318F60A00302E
:100CEA00F6077608803AFF0080307F02031D7F2EC8
:100CFA00EB307502031C822E832E6F2E842E013058
:100D0A00F3070318F40A0030F4077408803AF20073
:100D1A007108803A7202031D942E70087302031C34
:100D2A00972E982E5E2E992E0800F300652F700CD0
:100D3A0083160313031C871303188717BA2F700C23
:100D4A0083160313031C071303180717BA2F700C13
:100D5A0083160313031C871203188716BA2F700C05
:100D6A0083160313031C071203180716BA2F700CF5
:100D7A0083160313031C871103188715BA2F700CE7
:100D8A0083160313031C071103180715BA2F700CD7
:100D9A0083160313031C871003188714BA2F700CC9
:100DAA0083160313031C071003180714BA2F700CB9
:100DBA0083160313031C061003180614BA2F700CAB
:100DCA0083160313031C861003188614BA2F700C9B
:100DDA0083160313031C061103180615BA2F700C89
:100DEA0083160313031C861103188615BA2F700C79
:100DFA0083160313031C061203180616BA2F700C67
:100E0A0083160313031C861203188616BA2F700C56
:100E1A0083160313031C061303180617BA2F700C44
:100E2A0083160313031C861303188617BA2F700C34
:100E3A0083160313031C081003180814BA2F700C26
:100E4A0083160313031C881003188814BA2F700C16
:100E5A0083160313031C081103180815BA2F700C04
:100E6A0083160313031C881103188815BA2F700CF4
:100E7A0083160313031C081203180816BA2F700CE2
:100E8A0083160313031C881203188816BA2F700CD2
:100E9A0083160313031C081303180817BA2F700CC0
:100EAA0083160313031C881303188817BA2F700CB0
:100EBA0083160313031C051203180516BA2FBA2F3B
:100ECA007308F100F2017208003A03196D2FBA2F64
:100EDA007108003A03199C2E013A0319A42E033A09
:100EEA000319AC2E013A0319B42E073A0319BC2E82
:100EFA00013A0319C42E033A0319CC2E013A0319F5
:100F0A00D42E0F3A0319DC2E013A0319E42E033AC0
:100F1A000319EC2E013A0319F42E073A0319FC2E91
:100F2A00013A0319042F033A03190C2F013A031942
:100F3A00142F1F3A03191C2F013A0319242F033ABD
:100F4A0003192C2F013A0319342F073A03193C2F9E
:100F5A00013A0319442F033A03194C2F013A031992
:100F6A00542F0F3A03195C2FBA2F08008313EF305E
:100F7A00FD000530FE007A30FF00CC3084000A12F2
:100F8A008A1157250A128A116F30FD000530FE00BA
:100F9A004430FF00603084000A128A1157250A1271
:100FAA008A110A128A111D250A128A11FD00831755
:100FBA0090308400D0300A128A111E250A128A1132
:100FCA008313A0308400CC300A128A111E250A121B
:100FDA008A112030840060300A128A111E250A12F2
:100FEA008A11F701F801F901FA01FB01FC018301F9
:060FFA000A128A11662DA7
:08400000FF3FFF3FFF3FFF3FC0
:02400E00BA3FB7
:00000001FF
