:100000000A128A11F32F00308A000408840A82073A
:1000100000341334123411341034193415341434B8
:10002000503449344434203443346F346E3474349F
:1000300072346F346C342034543465347334743413
:10004000003464008001840A0406031900340406A5
:100050002228FC000830F0000030F1000A128A115A
:10006000D1200A128A117C080A128A11FA210A1276
:100070008A1108000A128A1179200A128A110A12BA
:100080008A111F210A128A1145280A128A15F0279F
:100090000A128A1145280A128A11002883120313B2
:1000A000C100BF01C0016A283F08410784000A124D
:1000B0008A1103200A128A110A128A1129200A12AF
:1000C0008A11013083120313BF070318C00A0030DE
:1000D000C0076A283F08410784000A128A110320DA
:1000E0000A128A11003A031D7628772854287828A6
:1000F00008008130831203139F00C230831603135C
:100100009F0085013F30850083120313860183160B
:1001100003138601831203138601870183160313D9
:1001200087018312031387010A128A15F1270A1225
:100130008A1188010030880888018312031389011D
:100140000730831603138900080083120313BF00CE
:10015000C0013F03031DAD28AE28BA287C087F3EAE
:10016000FD007D08C00040080A128A1178210A1299
:100170008A11D0280230831203133F06031DC128C1
:10018000C228D0287C08BF3EFD007D08C000400882
:100190000A128A1178210A128A11D028D028D02870
:1001A0000800F301F4017408803AF2007108803A03
:1001B0007202031DDD2870087302031CE028E12889
:1001C000E3281E291E29F501F6017608803AFF0072
:1001D00080307F02031DEE28EB307502031CF128EE
:1001E000F228F4280929092900000130F50703182D
:1001F000F60A0030F6077608803AFF0080307F026A
:10020000031D0429EB307502031C07290829F42873
:1002100009290130F3070318F40A0030F4077408C1
:10022000803AF2007108803A7202031D19297008A1
:100230007302031C1C291D29E3281E29080006300F
:1002400084000A128A1103200A128A1183120313EE
:10025000C5004508BF00053084000A128A1103203A
:100260000A128A11C6004608C000043084000A122F
:100270008A1103200A128A11C7004708C1000330FF
:1002800084000A128A1103200A128A11C800480841
:10029000C200023084000A128A1103200A128A1155
:1002A000C9004908C300013084000A128A110320E2
:1002B0000A128A11CA004A08C400073084000A12D0
:1002C0008A1103200A128A110A128A117D220A1247
:1002D0008A11FC01FC0A01300A128A11A5200A12B7
:1002E0008A1108300A128A114E200A128A11080057
:1002F000FA00FB01F9017A08F039F7007708FB00F2
:100300007B08F70004300310F70CFF3E031D832920
:100310007708F8007808FB007A080F39F7007708AB
:10032000F9007B080A128A1145250A128A11F00188
:100330008312031351080A128A1122240A128A1105
:10034000F001831203134F080A128A1122240A12A1
:100350008A11F001F00A8312031350080A128A115D
:1003600022240A128A110530F0000030F1000A122E
:100370008A11D1200A128A11F00183120313500846
:100380000A128A1122240A128A110530F000003064
:10039000F1000A128A11D1200A128A1179080A1270
:1003A0008A1145250A128A11F001F00A83120313FB
:1003B00050080A128A1122240A128A110530F0000C
:1003C0000030F1000A128A11D1200A128A11F001BC
:1003D0008312031350080A128A1122240A128A1166
:1003E0000330F0000030F1000A128A11D1200A1205
:1003F0008A110800FA00FB01F9017A08F039F700C8
:100400007708FB007B08F70004300310F70CFF3E71
:10041000031D052A7708F8007808FB007A080F39D1
:10042000F7007708F9007B080A128A1145250A129D
:100430008A11F001F00A8312031351080A128A117B
:1004400022240A128A11F001831203134F080A12A0
:100450008A1122240A128A11F001F00A831203136E
:1004600050080A128A1122240A128A110530F0005B
:100470000030F1000A128A11D1200A128A11F0010B
:100480008312031350080A128A1122240A128A11B5
:100490000530F0000030F1000A128A11D1200A1252
:1004A0008A1179080A128A1145250A128A11F00167
:1004B000F00A8312031350080A128A1122240A1226
:1004C0008A110530F0000030F1000A128A11D120A3
:1004D0000A128A11F0018312031350080A128A11BA
:1004E00022240A128A110330F0000030F1000A12AF
:1004F0008A11D1200A128A110800FD007D08FC0033
:100500007C0883120313D1003F08FC007C08D00054
:100510004008FC007C08CF004108FC007C08CE00AD
:100520004208FC007C08CD004308FC007C08CC009D
:100530004408FC007C08CB00F0017D080A128A11F7
:1005400001230A128A11F001831203133F080A12D1
:100550008A1101230A128A11F00183120313400841
:100560000A128A1101230A128A11F001831203135D
:1005700041080A128A1101230A128A11F00183121A
:10058000031342080A128A1101230A128A11F00188
:100590008312031343080A128A1101230A128A11D3
:1005A000F0018312031344080A128A1101230A126C
:1005B0008A110F30F0000030F1000A128A11D120A8
:1005C0000A128A1102300A128A1178210A128A113B
:1005D00028300A128A1178210A128A1101300A126F
:1005E0008A1178210A128A110C300A128A11782194
:1005F0000A128A1106300A128A1178210A128A1107
:100600000800F300CC2B700C83160313031C871314
:1006100003188717212C700C83160313031C071370
:1006200003180717212C700C83160313031C871261
:1006300003188716212C700C83160313031C071252
:1006400003180716212C700C83160313031C871143
:1006500003188715212C700C83160313031C071134
:1006600003180715212C700C83160313031C871025
:1006700003188714212C700C83160313031C071016
:1006800003180714212C700C83160313031C061087
:1006900003180614212C700C83160313031C8610F8
:1006A00003188614212C700C83160313031C0611E7
:1006B00003180615212C700C83160313031C8611D6
:1006C00003188615212C700C83160313031C0612C5
:1006D00003180616212C700C83160313031C8612B4
:1006E00003188616212C700C83160313031C0613A3
:1006F00003180617212C700C83160313031C861392
:1007000003188617212C700C83160313031C081082
:1007100003180814212C700C83160313031C881073
:1007200003188814212C700C83160313031C081162
:1007300003180815212C700C83160313031C881151
:1007400003188815212C700C83160313031C081240
:1007500003180816212C700C83160313031C88122F
:1007600003188816212C700C83160313031C08131E
:1007700003180817212C700C83160313031C88130D
:1007800003188817212C700C83160313031C051201
:1007900003180516212C212C7308F100F2017208B0
:1007A000003A0319D42B212C7108003A0319032BAA
:1007B000013A03190B2B033A0319132B013A0319BE
:1007C0001B2B073A0319232B013A03192B2B033A4E
:1007D0000319332B013A03193B2B0F3A0319432B0F
:1007E000013A03194B2B033A0319532B013A03190E
:1007F0005B2B073A0319632B013A03196B2B033A5E
:100800000319732B013A03197B2B1F3A0319832B0E
:10081000013A03198B2B033A0319932B013A03195D
:100820009B2B073A0319A32B013A0319AB2B033A6D
:100830000319B32B013A0319BB2B0F3A0319C32B2E
:10084000212C0800F300EF2C700C83120313031CFF
:10085000871303188717442D700C83120313031C8E
:10086000071303180717442D700C83120313031C7E
:10087000871203188716442D700C83120313031C70
:10088000071203180716442D700C83120313031C60
:10089000871103188715442D831203139701700CD9
:1008A000031C071103180715442D831203139D0120
:1008B000700C031C871003188714442D700C8312CE
:1008C0000313031C071003180714442D700C831224
:1008D0000313031C061003180614442D700C831216
:1008E0000313031C861003188614442D700C831206
:1008F0000313031C061103180615442D700C8312F4
:100900000313031C861103188615442D700C8312E3
:100910000313031C061203180616442D700C8312D1
:100920000313031C861203188616442D700C8312C1
:100930000313031C061303180617442D700C8312AF
:100940000313031C861303188617442D700C83129F
:100950000313031C081003180814442D700C831291
:100960000313031C881003188814442D700C831281
:100970000313031C081103180815442D700C83126F
:100980000313031C881103188815442D700C83125F
:100990000313031C081203180816442D700C83124D
:1009A0000313031C881203188816442D700C83123D
:1009B0000313031C081303180817442D700C83122B
:1009C0000313031C881303188817442D700C83121B
:1009D0000313031C051203180516442D442D730838
:1009E000F100F2017208003A0319F72C442D710846
:1009F000003A0319242C013A03192C2C033A031949
:100A0000342C013A03193C2C073A0319442C013ABF
:100A100003194C2C033A0319552C013A03195E2C87
:100A20000F3A0319662C013A03196E2C033A031985
:100A3000762C013A03197E2C073A0319862C013AC9
:100A400003198E2C033A0319962C013A03199E2C94
:100A50001F3A0319A62C013A0319AE2C033A0319C5
:100A6000B62C013A0319BE2C073A0319C62C013AD9
:100A70000319CE2C033A0319D62C013A0319DE2CA4
:100A80000F3A0319E62C442D0800F600B82FF001A8
:100A9000831203134B080A128A1122240A128A11A4
:100AA000F001831203134C080A128A1122240A123D
:100AB0008A11F001831203134D080A128A112224AD
:100AC0000A128A11F001831203134E080A128A11C6
:100AD00022240A128A11F22FF001831203134B0809
:100AE0000A128A1122240A128A11F00183120313B6
:100AF0004C080A128A1122240A128A11F001831268
:100B000003134D080A128A1122240A128A11F001D5
:100B1000F00A831203134E080A128A1122240A12C1
:100B20008A11F22FF001831203134B080A128A1163
:100B300022240A128A11F001831203134C080A12AC
:100B40008A1122240A128A11F001F00A8312031377
:100B50004D080A128A1122240A128A11F001831206
:100B600003134E080A128A1122240A128A11F22F44
:100B7000F001831203134B080A128A1122240A126D
:100B80008A11F001831203134C080A128A112224DD
:100B90000A128A11F001F00A831203134D080A1297
:100BA0008A1122240A128A11F001F00A8312031317
:100BB0004E080A128A1122240A128A11F22FF00119
:100BC000831203134B080A128A1122240A128A1173
:100BD000F001F00A831203134C080A128A1122242E
:100BE0000A128A11F001831203134D080A128A11A6
:100BF00022240A128A11F001831203134E080A12EA
:100C00008A1122240A128A11F22FF001831203138F
:100C10004B080A128A1122240A128A11F001F00AE2
:100C2000831203134C080A128A1122240A128A1111
:100C3000F001831203134D080A128A1122240A12AA
:100C40008A11F001F00A831203134E080A128A1166
:100C500022240A128A11F22FF001831203134B0887
:100C60000A128A1122240A128A11F001F00A831250
:100C700003134C080A128A1122240A128A11F00165
:100C8000F00A831203134D080A128A1122240A1251
:100C90008A11F001831203134E080A128A112224CA
:100CA0000A128A11F22FF001831203134B080A1261
:100CB0008A1122240A128A11F001F00A8312031306
:100CC0004C080A128A1122240A128A11F001F00A31
:100CD000831203134D080A128A1122240A128A1160
:100CE000F001F00A831203134E080A128A1122241B
:100CF0000A128A11F22FF001F00A831203134B0833
:100D00000A128A1122240A128A11F0018312031393
:100D10004C080A128A1122240A128A11F001831245
:100D200003134D080A128A1122240A128A11F001B3
:100D3000831203134E080A128A1122240A128A11FE
:100D4000F22FF001F00A831203134B080A128A11E2
:100D500022240A128A11F001831203134C080A128A
:100D60008A1122240A128A11F001831203134D08FA
:100D70000A128A1122240A128A11F001F00A83123F
:100D800003134E080A128A1122240A128A11F22F22
:100D9000F001F00A831203134B080A128A1122246D
:100DA0000A128A11F001831203134C080A128A11E5
:100DB00022240A128A11F001F00A831203134D084B
:100DC0000A128A1122240A128A11F00183120313D3
:100DD0004E080A128A1122240A128A11F22FF001F7
:100DE000F00A831203134B080A128A1122240A12F2
:100DF0008A11F001831203134C080A128A1122246B
:100E00000A128A11F001F00A831203134D080A1224
:100E10008A1122240A128A11F001F00A83120313A4
:100E20004E080A128A1122240A128A11F22FF001A6
:100E3000F00A831203134B080A128A1122240A12A1
:100E40008A11F001F00A831203134C080A128A1166
:100E500022240A128A11F001831203134D080A1288
:100E60008A1122240A128A11F001831203134E08F8
:100E70000A128A1122240A128A11F22FF001F00AB2
:100E8000831203134B080A128A1122240A128A11B0
:100E9000F001F00A831203134C080A128A1122246B
:100EA0000A128A11F001831203134D080A128A11E3
:100EB00022240A128A11F001F00A831203134E0849
:100EC0000A128A1122240A128A11F22FF001F00A62
:100ED000831203134B080A128A1122240A128A1160
:100EE000F001F00A831203134C080A128A1122241B
:100EF0000A128A11F001F00A831203134D080A1234
:100F00008A1122240A128A11F001831203134E0857
:100F10000A128A1122240A128A11F22FF001F00A11
:100F2000831203134B080A128A1122240A128A110F
:100F3000F001F00A831203134C080A128A112224CA
:100F40000A128A11F001F00A831203134D080A12E3
:100F50008A1122240A128A11F001F00A8312031363
:100F60004E080A128A1122240A128A11F22FF22F35
:100F70007608F400F5017508003A0319C02FF22F26
:100F80007408003A0319472D013A03196C2D033AEE
:100F90000319922D013A0319B82D073A0319DF2DD1
:100FA000013A0319052E033A03192C2E013A0319AD
:100FB000532E0F3A03197B2E013A0319A12E033A3F
:100FC0000319C82E013A0319EF2E073A0319172FF8
:100FD000013A03193E2F033A0319662F013A031908
:100FE0008E2FF22F08008313203084003F300A1226
:100FF0008A1121200A128A1183010A128A113A28C1
:101FE0000800FF3083160313920005308312031399
:101FF00092009B0195010C3097000C309D00080069
:08400000FF3FFF3FFF3FFF3FC0
:02400E00BA3FB7
:00000001FF
