:060000000A128A11EE2F26
:100B3C00FF308316031392000530831203139200C7
:100B4C009B0195010C3097000C309D000800F001C2
:100B5C0006300A128A11CD260A128A11F0010530CC
:100B6C000A128A11CD260A128A1108000A128A1159
:100B7C00D0250A128A110A128A11AD250A128A117D
:100B8C00C72D0A128A11FC250A128A11C72D0A12C6
:100B9C008A1100288130831203139F00C230831600
:100BAC0003139F0085013F308500831203138601D8
:100BBC0083160313860183120313860187018316A0
:100BCC00031387018312031387010A128A119E25CE
:100BDC000A128A11880100308808880183120313D5
:100BEC00890107308316031389000800C830F00010
:100BFC000030F10006300A128A1137260A128A11C7
:100C0C00C830F0000030F10005300A128A11372686
:100C1C000A128A116430F0000030F1000A128A11B5
:100C2C007F260A128A11F430F0000130F1000630F0
:100C3C000A128A1137260A128A11F430F000013098
:100C4C00F10005300A128A1137260A128A11643013
:100C5C00F0000030F1000A128A117F260A128A1164
:100C6C000800F4006E2E7108F3007008F2000310F7
:100C7C00F30CF20C0310F30CF20C72088312031336
:100C8C009B009D1270184B2E4F2E831203131D16B2
:100C9C00522E831203131D127E2E7108F30070085E
:100CAC00F2000310F30CF20C0310F30CF20C7208AC
:100CBC0083120313950097127018652E692E8312F8
:100CCC00031317166C2E8312031317127E2E7E2E0F
:100CDC007408F200F3017308003A0319762E7E2E85
:100CEC007208053A0319532E033A0319392E7E2E36
:100CFC000800F301F4017408803AF2007108803A9C
:100D0C007202031D8B2E70087302031C8E2E8F2E05
:100D1C00912ECC2ECC2EF501F6017608803AFF00F0
:100D2C0080307F02031D9C2EEB307502031C9F2E1E
:100D3C00A02EA22EB72EB72E00000130F5070318F7
:100D4C00F60A0030F6077608803AFF0080307F0202
:100D5C00031DB22EEB307502031CB52EB62EA22E3F
:100D6C00B72E0130F3070318F40A0030F4077408A7
:100D7C00803AF2007108803A7202031DC72E700887
:100D8C007302031CCA2ECB2E912ECC2E0800F3001E
:100D9C00982F700C83160313031C871303188717E3
:100DAC00ED2F700C83160313031C0713031807177E
:100DBC00ED2F700C83160313031C87120318871670
:100DCC00ED2F700C83160313031C07120318071660
:100DDC00ED2F700C83160313031C87110318871552
:100DEC00ED2F700C83160313031C07110318071542
:100DFC00ED2F700C83160313031C87100318871434
:100E0C00ED2F700C83160313031C07100318071423
:100E1C00ED2F700C83160313031C06100318061415
:100E2C00ED2F700C83160313031C86100318861405
:100E3C00ED2F700C83160313031C061103180615F3
:100E4C00ED2F700C83160313031C861103188615E3
:100E5C00ED2F700C83160313031C061203180616D1
:100E6C00ED2F700C83160313031C861203188616C1
:100E7C00ED2F700C83160313031C061303180617AF
:100E8C00ED2F700C83160313031C8613031886179F
:100E9C00ED2F700C83160313031C08100318081491
:100EAC00ED2F700C83160313031C88100318881481
:100EBC00ED2F700C83160313031C0811031808156F
:100ECC00ED2F700C83160313031C8811031888155F
:100EDC00ED2F700C83160313031C0812031808164D
:100EEC00ED2F700C83160313031C8812031888163D
:100EFC00ED2F700C83160313031C0813031808172B
:100F0C00ED2F700C83160313031C8813031888171A
:100F1C00ED2F700C83160313031C05120318051612
:100F2C00ED2FED2F7308F100F2017208003A03194E
:100F3C00A02FED2F7108003A0319CF2E013A031997
:100F4C00D72E033A0319DF2E013A0319E72E073A7D
:100F5C000319EF2E013A0319F72E033A0319FF2E4A
:100F6C00013A0319072F0F3A03190F2F013A0319EE
:100F7C00172F033A03191F2F013A0319272F073A8A
:100F8C0003192F2F013A0319372F033A03193F2F57
:100F9C00013A0319472F1F3A03194F2F013A03192E
:100FAC00572F033A03195F2F013A0319672F073A9A
:100FBC0003196F2F013A0319772F033A03197F2F67
:100FCC00013A0319872F0F3A03198F2FED2F0800C1
:100FDC00F701F801F90183120313A001A101A20189
:100FEC00A301A401A501A601A701A80183010A126E
:040FFC008A11BC2D6D
:08400000FF3FFF3FFF3FFF3FC0
:02400E00BA3FB7
:00000001FF
