:100000000A128A11F32FFC000830F0000030F100D2
:100010000A128A15B2270A128A117C080A128A115A
:100020001A210A128A11080015280B1D18281928F0
:1000300015280B11831203132C03FF3AFF3E810096
:100040000130AD070318AE0A0030AE072E08F100EC
:100050002D08F0002B280800103084000A128A15A1
:100060000A200A128A1183120313CE004E08C70019
:100070000F3084000A128A150A200A128A11CF0052
:100080004F08C8000E3084000A128A150A200A128E
:100090008A11D0005008C9000D3084000A128A1558
:1000A0000A200A128A11D1005108CA000C308400BB
:1000B0000A128A150A200A128A11D2005208CB00AD
:1000C0000B3084000A128A150A200A128A11D30002
:1000D0005308CC00113084000A128A150A200A1233
:1000E0008A110A128A119D210A128A11FC01FC0A46
:1000F00001300A128A1569260A128A1112308312F7
:100100000313C7008030C8000A128A15D6260A12C7
:100110008A117F300A128A1516260A128A11FC01EA
:10012000FC0A02300A128A1569260A128A1108008E
:10013000FA00FB01F9017A08F039F7007708FB00B3
:100140007B08F70004300310F70CFF3E031DA328C3
:100150007708F8007808FB007A080F39F70077086D
:10016000F9007B080A128A1145250A128A11F0014A
:10017000831203135C080A128A1122240A128A11BC
:10018000F001831203135A080A128A1122240A1258
:100190008A11F001F00A831203135B080A128A1114
:1001A00022240A128A110530F0000030F1000A12F0
:1001B0008A15B2270A128A11F001831203135B0811
:1001C0000A128A1122240A128A110530F000003026
:1001D000F1000A128A15B2270A128A1179080A1246
:1001E0008A1145250A128A11F001F00A83120313BD
:1001F0005B080A128A1122240A128A110530F000C3
:100200000030F1000A128A15B2270A128A11F00191
:10021000831203135B080A128A1122240A128A111C
:100220000330F0000030F1000A128A15B2270A12DA
:100230008A110800FA00FB01F9017A08F039F70089
:100240007708FB007B08F70004300310F70CFF3E33
:10025000031D25297708F8007808FB007A080F3974
:10026000F7007708F9007B080A128A1145250A125F
:100270008A11F001F00A831203135C080A128A1132
:1002800022240A128A11F001831203135A080A1257
:100290008A1122240A128A11F001F00A8312031330
:1002A0005B080A128A1122240A128A110530F00012
:1002B0000030F1000A128A15B2270A128A11F001E1
:1002C000831203135B080A128A1122240A128A116C
:1002D0000530F0000030F1000A128A15B2270A1228
:1002E0008A1179080A128A1145250A128A11F00129
:1002F000F00A831203135B080A128A1122240A12DD
:100300008A110530F0000030F1000A128A15B22778
:100310000A128A11F001831203135B080A128A1170
:1003200022240A128A110330F0000030F1000A1270
:100330008A15B2270A128A110800FD007D08FC0008
:100340007C0883120313DC004708FC007C08DB00F8
:100350004808FC007C08DA004908FC007C08D90049
:100360004A08FC007C08D8004B08FC007C08D70039
:100370004C08FC007C08D600F0017D080A128A11A6
:1003800001230A128A11F0018312031347080A128B
:100390008A1101230A128A11F001831203134808FB
:1003A0000A128A1101230A128A11F001831203131F
:1003B00049080A128A1101230A128A11F0018312D4
:1003C00003134A080A128A1101230A128A11F00142
:1003D000831203134B080A128A1101230A128A118D
:1003E000F001831203134C080A128A1101230A1226
:1003F0008A110F30F0000030F1000A128A15B2277E
:100400000A128A1102300A128A1198200A128A11DD
:1004100028300A128A1198200A128A1101300A1211
:100420008A1198200A128A110C300A128A11982017
:100430000A128A1106300A128A1198200A128A11A9
:10044000080083120313D2004830CA004A08CE00C5
:10045000E72A2530530603192E2A2F2A3B2A530850
:10046000CA00520884004A08831380000130CA0081
:100470004A08D207E72ACD01452AFB2AE72AC030DD
:10048000CA004A08CD045F2A5F2A0130C707FF303F
:10049000470784000A128A150A200A128A11D3001B
:1004A000CA00CB014B08003A0319572AE72A4A0829
:1004B000003A0319FB2A753A03193F2AE72A4E0826
:1004C000840083130008CF00840A0008D0000230A3
:1004D000CA004A08CE07D301D30A05305306031DCC
:1004E000722A732A752A9D2A9D2A5308CA004A0730
:1004F000013E84000A128A150A200A128A11CB00D2
:100500000A128A150A200A128A11CC004C085002DD
:10051000031D8C2A4B084F0203188F2A902A922A17
:100520009D2A9D2A0130CA004A08D3070530530688
:10053000031D9B2A9C2A752A9D2A5308CA004A0833
:10054000D100DC2A0A30F8000030F9005108CA0056
:100550004A07013E84000A128A150A200A128A11EB
:10056000F0000A128A150A200A128A11F1005008B6
:10057000F3004F08F2000A128A1567270A128A113F
:100580007108FB007008FA000A128A1595260A12F3
:100590008A117808303E83120313CB004B08D30036
:1005A0005308CA00520884004A08831380000130AF
:1005B000CA004A08D207DC2AFF30CA004A08D1071D
:1005C000510A031DE42AE52AA22AE72AE72A013074
:1005D000C707FF30470784000A128A150A200A124B
:1005E0008A11CA004A08D3005308031DF82AF92AC1
:1005F000292AFB2AFB2A5208840083138001002B3E
:100600000800F300CC2B700C83160313031C871314
:1006100003188717212C700C83160313031C071370
:1006200003180717212C700C83160313031C871261
:1006300003188716212C700C83160313031C071252
:1006400003180716212C700C83160313031C871143
:1006500003188715212C700C83160313031C071134
:1006600003180715212C700C83160313031C871025
:1006700003188714212C700C83160313031C071016
:1006800003180714212C700C83160313031C061087
:1006900003180614212C700C83160313031C8610F8
:1006A00003188614212C700C83160313031C0611E7
:1006B00003180615212C700C83160313031C8611D6
:1006C00003188615212C700C83160313031C0612C5
:1006D00003180616212C700C83160313031C8612B4
:1006E00003188616212C700C83160313031C0613A3
:1006F00003180617212C700C83160313031C861392
:1007000003188617212C700C83160313031C081082
:1007100003180814212C700C83160313031C881073
:1007200003188814212C700C83160313031C081162
:1007300003180815212C700C83160313031C881151
:1007400003188815212C700C83160313031C081240
:1007500003180816212C700C83160313031C88122F
:1007600003188816212C700C83160313031C08131E
:1007700003180817212C700C83160313031C88130D
:1007800003188817212C700C83160313031C051201
:1007900003180516212C212C7308F100F2017208B0
:1007A000003A0319D42B212C7108003A0319032BAA
:1007B000013A03190B2B033A0319132B013A0319BE
:1007C0001B2B073A0319232B013A03192B2B033A4E
:1007D0000319332B013A03193B2B0F3A0319432B0F
:1007E000013A03194B2B033A0319532B013A03190E
:1007F0005B2B073A0319632B013A03196B2B033A5E
:100800000319732B013A03197B2B1F3A0319832B0E
:10081000013A03198B2B033A0319932B013A03195D
:100820009B2B073A0319A32B013A0319AB2B033A6D
:100830000319B32B013A0319BB2B0F3A0319C32B2E
:10084000212C0800F300EF2C700C83120313031CFF
:10085000871303188717442D700C83120313031C8E
:10086000071303180717442D700C83120313031C7E
:10087000871203188716442D700C83120313031C70
:10088000071203180716442D700C83120313031C60
:10089000871103188715442D831203139701700CD9
:1008A000031C071103180715442D831203139D0120
:1008B000700C031C871003188714442D700C8312CE
:1008C0000313031C071003180714442D700C831224
:1008D0000313031C061003180614442D700C831216
:1008E0000313031C861003188614442D700C831206
:1008F0000313031C061103180615442D700C8312F4
:100900000313031C861103188615442D700C8312E3
:100910000313031C061203180616442D700C8312D1
:100920000313031C861203188616442D700C8312C1
:100930000313031C061303180617442D700C8312AF
:100940000313031C861303188617442D700C83129F
:100950000313031C081003180814442D700C831291
:100960000313031C881003188814442D700C831281
:100970000313031C081103180815442D700C83126F
:100980000313031C881103188815442D700C83125F
:100990000313031C081203180816442D700C83124D
:1009A0000313031C881203188816442D700C83123D
:1009B0000313031C081303180817442D700C83122B
:1009C0000313031C881303188817442D700C83121B
:1009D0000313031C051203180516442D442D730838
:1009E000F100F2017208003A0319F72C442D710846
:1009F000003A0319242C013A03192C2C033A031949
:100A0000342C013A03193C2C073A0319442C013ABF
:100A100003194C2C033A0319552C013A03195E2C87
:100A20000F3A0319662C013A03196E2C033A031985
:100A3000762C013A03197E2C073A0319862C013AC9
:100A400003198E2C033A0319962C013A03199E2C94
:100A50001F3A0319A62C013A0319AE2C033A0319C5
:100A6000B62C013A0319BE2C073A0319C62C013AD9
:100A70000319CE2C033A0319D62C013A0319DE2CA4
:100A80000F3A0319E62C442D0800F600B82FF001A8
:100A90008312031356080A128A1122240A128A1199
:100AA000F0018312031357080A128A1122240A1232
:100AB0008A11F0018312031358080A128A112224A2
:100AC0000A128A11F0018312031359080A128A11BB
:100AD00022240A128A11F22FF001831203135608FE
:100AE0000A128A1122240A128A11F00183120313B6
:100AF00057080A128A1122240A128A11F00183125D
:100B0000031358080A128A1122240A128A11F001CA
:100B1000F00A8312031359080A128A1122240A12B6
:100B20008A11F22FF0018312031356080A128A1158
:100B300022240A128A11F0018312031357080A12A1
:100B40008A1122240A128A11F001F00A8312031377
:100B500058080A128A1122240A128A11F0018312FB
:100B6000031359080A128A1122240A128A11F22F39
:100B7000F0018312031356080A128A1122240A1262
:100B80008A11F0018312031357080A128A112224D2
:100B90000A128A11F001F00A8312031358080A128C
:100BA0008A1122240A128A11F001F00A8312031317
:100BB00059080A128A1122240A128A11F22FF0010E
:100BC0008312031356080A128A1122240A128A1168
:100BD000F001F00A8312031357080A128A11222423
:100BE0000A128A11F0018312031358080A128A119B
:100BF00022240A128A11F0018312031359080A12DF
:100C00008A1122240A128A11F22FF001831203138F
:100C100056080A128A1122240A128A11F001F00AD7
:100C20008312031357080A128A1122240A128A1106
:100C3000F0018312031358080A128A1122240A129F
:100C40008A11F001F00A8312031359080A128A115B
:100C500022240A128A11F22FF0018312031356087C
:100C60000A128A1122240A128A11F001F00A831250
:100C7000031357080A128A1122240A128A11F0015A
:100C8000F00A8312031358080A128A1122240A1246
:100C90008A11F0018312031359080A128A112224BF
:100CA0000A128A11F22FF0018312031356080A1256
:100CB0008A1122240A128A11F001F00A8312031306
:100CC00057080A128A1122240A128A11F001F00A26
:100CD0008312031358080A128A1122240A128A1155
:100CE000F001F00A8312031359080A128A11222410
:100CF0000A128A11F22FF001F00A83120313560828
:100D00000A128A1122240A128A11F0018312031393
:100D100057080A128A1122240A128A11F00183123A
:100D2000031358080A128A1122240A128A11F001A8
:100D30008312031359080A128A1122240A128A11F3
:100D4000F22FF001F00A8312031356080A128A11D7
:100D500022240A128A11F0018312031357080A127F
:100D60008A1122240A128A11F001831203135808EF
:100D70000A128A1122240A128A11F001F00A83123F
:100D8000031359080A128A1122240A128A11F22F17
:100D9000F001F00A8312031356080A128A11222462
:100DA0000A128A11F0018312031357080A128A11DA
:100DB00022240A128A11F001F00A83120313580840
:100DC0000A128A1122240A128A11F00183120313D3
:100DD00059080A128A1122240A128A11F22FF001EC
:100DE000F00A8312031356080A128A1122240A12E7
:100DF0008A11F0018312031357080A128A11222460
:100E00000A128A11F001F00A8312031358080A1219
:100E10008A1122240A128A11F001F00A83120313A4
:100E200059080A128A1122240A128A11F22FF0019B
:100E3000F00A8312031356080A128A1122240A1296
:100E40008A11F001F00A8312031357080A128A115B
:100E500022240A128A11F0018312031358080A127D
:100E60008A1122240A128A11F001831203135908ED
:100E70000A128A1122240A128A11F22FF001F00AB2
:100E80008312031356080A128A1122240A128A11A5
:100E9000F001F00A8312031357080A128A11222460
:100EA0000A128A11F0018312031358080A128A11D8
:100EB00022240A128A11F001F00A8312031359083E
:100EC0000A128A1122240A128A11F22FF001F00A62
:100ED0008312031356080A128A1122240A128A1155
:100EE000F001F00A8312031357080A128A11222410
:100EF0000A128A11F001F00A8312031358080A1229
:100F00008A1122240A128A11F0018312031359084C
:100F10000A128A1122240A128A11F22FF001F00A11
:100F20008312031356080A128A1122240A128A1104
:100F3000F001F00A8312031357080A128A112224BF
:100F40000A128A11F001F00A8312031358080A12D8
:100F50008A1122240A128A11F001F00A8312031363
:100F600059080A128A1122240A128A11F22FF22F2A
:100F70007608F400F5017508003A0319C02FF22F26
:100F80007408003A0319472D013A03196C2D033AEE
:100F90000319922D013A0319B82D073A0319DF2DD1
:100FA000013A0319052E033A03192C2E013A0319AD
:100FB000532E0F3A03197B2E013A0319A12E033A3F
:100FC0000319C82E013A0319EF2E073A0319172FF8
:100FD000013A03193E2F033A0319662F013A031908
:100FE0008E2FF22F080083132030840047300A121E
:100FF0008A15FF250A128A1183010A128A15292EE1
:10100000FF1B0A2883137F1883170008840A03191B
:10101000FF0A080008308A000408840A82070034A6
:10102000013400340A34003464340034E8340334C6
:101030001034273413341234113410341934153465
:101040001434503449344434203443346F346E34CF
:10105000743472346F346C342034543465347334E3
:1010600074340034543469346D34653420343D3480
:081070002034253475340034EE
:101BFE0064008001840A0406031900340406002ED2
:101C0E00FF308316031392000530831203139200E4
:101C1E009B0195010C3097000C309D000800F100DF
:101C2E00D730F00070088316031381050B11710372
:101C3E00FF3AFF3E8312031381007108F000700813
:101C4E00AC0008000A128A153D260A128A150A12DD
:101C5E008A112C200A128A15342E0A128A151E2772
:101C6E000A128A15342E0A128A1100288130831224
:101C7E0003139F00C230831603139F0085013F306C
:101C8E0085008312031386018316031386018312C4
:101C9E00031386018701831603138701831203132F
:101CAE0087010A128A1507260A128A158801003042
:101CBE0088088801831203138901073083160313E2
:101CCE008900080083120313C700C8014703031DD0
:101CDE00712E722E7E2E7C087F3EFD007D08C80080
:101CEE0048080A128A1198200A128A15942E023078
:101CFE00831203134706031D852E862E942E7C0811
:101D0E00BF3EFD007D08C80048080A128A119820BF
:101D1E000A128A15942E942E942E080078087904AF
:101D2E0003199A2E9B2ED02EFD01FD0AAA2E0130EC
:101D3E000310F80DF90DFF3E031D9F2E0130FC0020
:101D4E007C08FD07AA2EF91FAD2EAE2E9E2EB02EAC
:101D5E00B02E79087B02031DB62E78087A02031C7A
:101D6E00B92EBA2EC12E7808FA027908031CFB038D
:101D7E00FB02C12E01300310F90CF80CFF3E031DBF
:101D8E00C22E0130FD02031DCD2ECE2EB02ED02E32
:101D9E00D02E7B08F9007A08F800D52E08008312A1
:101DAE000313CC01CD01002F4C084707CA00480889
:101DBE00C9000318C90ACC1FE52EC90383120313E9
:101DCE004908CB004B08FF004A0884000A128A1506
:101DDE0000200A128A150A128A1103200A128A1585
:101DEE00013083120313CC070318CD0A0030CD0740
:101DFE00002F4C084707CA004808C9000318C90A33
:101E0E00CC1F0A2FC903831203134908CB004B08BA
:101E1E00FF004A0884000A128A1500200A128A1549
:101E2E00003A031D1B2F1C2FDB2E1D2F08000A123C
:101E3E008A1114200A128A15710883120313B60030
:101E4E007008B5003309D4003409D500D40A03193B
:101E5E00D50A35085407B10036080318360A550757
:101E6E00B20000303202993003193102031C402FA8
:101E7E00412F602F0130AF070318B00A0030B007B2
:101E8E002330D4005408C7003008C9002F08C800FA
:101E9E0037300A128A1121220A128A15373083121C
:101EAE000313C7000030C8000A128A15D6260A127C
:101EBE008A15831203133608B4003508B3000800E0
:101ECE00F501F6017008710403196E2F6F2FAC2FF8
:101EDE00F701F70A7E2F01300310F00DF10DFF3ED2
:101EEE00031D732F0130F4007408F7077E2FF11FC6
:101EFE00812F822F722F842F842F01300310F50D26
:101F0E00F60DFF3E031D852F71087302031D912FE1
:101F1E0070087202031C942F952F9D2F7008F202E9
:101F2E007108031CF303F30275149D2F0130031087
:101F3E00F10CF00CFF3E031D9E2F0130F702031D26
:101F4E00A92FAA2F842FAC2FAC2F7608F10075087D
:101F5E00F000B12F0800F301F4017408803AF2008A
:101F6E007108803A7202031DBE2F70087302031CA3
:101F7E00C12FC22FC42FFF2FFF2FF501F6017608B8
:101F8E00803AFF0080307F02031DCF2FEB307502A9
:101F9E00031CD22FD32FD52FEA2FEA2F00000130AA
:101FAE00F5070318F60A0030F6077608803AFF00A8
:101FBE0080307F02031DE52FEB307502031CE82FE6
:101FCE00E92FD52FEA2F0130F3070318F40A00305A
:101FDE00F4077408803AF2007108803A7202031D09
:101FEE00FA2F70087302031CFD2FFE2FC42FFF2F34
:021FFE000800D9
:08400000FF3FFF3FFF3FFF3FC0
:02400E00BA3FB7
:00000001FF
