:100000000A128A11B92FFF1B0D2883137F1883173B
:100010000008840A0319FF0A080000308A00040857
:10002000840A82070034013400340A340034643412
:100030000034E8340334103427340C3400341334DF
:1000400000341234003411340034103400340034DD
:100050000034153400341434003420342034203477
:1000600020342034203420342034203420342034F0
:10007000203420342034203420340034503472347E
:1000800075346534623461342034203434340034BF
:1000900025347534003401300A128A113E210A12C7
:1000A0008A110800F3007F28831203138101E030D6
:1000B000F10071088316031381057008F1007108BF
:1000C00081049228831203138101F030F10071083A
:1000D0008316031381057008F100710881049228CA
:1000E000831203138101D030F100710883160313CA
:1000F00081057008F1007108810492289228730824
:10010000F100F2017208003A031987289228710859
:10011000D03A03197028303A03195428103A0319B9
:10012000622892280800F301F4017408803AF20072
:100130007108803A7202031D9F2870087302031C25
:10014000A228A328A528E028E028F501F6017608D2
:10015000803AFF0080307F02031DB028EB3075022B
:10016000031CB328B428B628CB28CB2800000130C4
:10017000F5070318F60A0030F6077608803AFF0004
:1001800080307F02031DC628EB307502031CC9288E
:10019000CA28B628CB280130F3070318F40A003028
:1001A000F4077408803AF2007108803A7202031D65
:1001B000DB2870087302031CDE28DF28A528E0284E
:1001C0000800F001E0300A128A1152200A128A1146
:1001D000173084000A128A110D200A128A11831224
:1001E0000313E9006908E300153084000A128A113C
:1001F0000D200A128A11EA006A08E4001330840014
:100200000A128A110D200A128A11EB006B08E50010
:10021000113084000A128A110D200A128A11EC0092
:100220006C08E6000F3084000A128A110D200A12B1
:100230008A11ED006D08E7000D3084000A128A1162
:100240000D200A128A11EE006E08E80019308400B1
:100250000A128A110D200A128A110A128A114322E7
:100260000A128A110A128A114B200A128A112C30A2
:100270000A128A15A9270A128A110800FA00FB013E
:10028000F9017A08F039F7007708FB007B08F700DE
:1002900004300310F70CFF3E031D49297708F800CE
:1002A0007808FB007A080F39F7007708F9007B0817
:1002B0000A128A110B250A128A11F0018312031304
:1002C00043080A128A11E8230A128A11F0018312E4
:1002D000031341080A128A11E8230A128A11F00155
:1002E000F00A8312031342080A128A11E8230A1241
:1002F0008A110530F0000030F1000A128A119320B3
:100300000A128A11F0018312031342080A128A1199
:10031000E8230A128A110530F0000030F1000A12B9
:100320008A1193200A128A1179080A128A110B2560
:100330000A128A11F001F00A8312031342080A120A
:100340008A11E8230A128A110530F0000030F1000A
:100350000A128A1193200A128A11F00183120313E0
:1003600042080A128A11E8230A128A110330F000A7
:100370000030F1000A128A1193200A128A11080033
:10038000FA00FB01F9017A08F039F7007708FB0061
:100390007B08F70004300310F70CFF3E031DCB2948
:1003A0007708F8007808FB007A080F39F70077081B
:1003B000F9007B080A128A110B250A128A11F00132
:1003C000F00A8312031343080A128A11E8230A125F
:1003D0008A11F0018312031341080A128A11E823DB
:1003E0000A128A11F001F00A8312031342080A125A
:1003F0008A11E8230A128A110530F0000030F1005A
:100400000A128A1193200A128A11F001831203132F
:1004100042080A128A11E8230A128A110530F000F4
:100420000030F1000A128A1193200A128A11790809
:100430000A128A110B250A128A11F001F00A83129E
:10044000031342080A128A11E8230A128A1105309E
:10045000F0000030F1000A128A1193200A128A116A
:10046000F0018312031342080A128A11E8230A12C8
:100470008A110330F0000030F1000A128A11932033
:100480000A128A110800FD007D08FC007C08831216
:100490000313C3006308FC007C08C2006408FC006E
:1004A0007C08C1006508FC007C08C0006608FC00F0
:1004B0007C08BF006708FC007C08BE006808FC00E0
:1004C0007C08BD00F0017D080A128A11C7220A12B9
:1004D0008A11F0018312031363080A128A11C722DA
:1004E0000A128A11F0018312031364080A128A1196
:1004F000C7220A128A11F0018312031365080A1237
:100500008A11C7220A128A11F001831203136608A6
:100510000A128A11C7220A128A11F00183120313E8
:1005200067080A128A11C7220A128A11F00183127F
:10053000031368080A128A11C7220A128A110F309F
:10054000F0000030F1000A128A1193200A128A1179
:1005500002300A128A113E210A128A1128300A1228
:100560008A113E210A128A1101300A128A113E2193
:100570000A128A110C300A128A113E210A128A11BB
:1005800006300A128A113E210A128A110800F3006D
:10059000922B700C83160313031C87130318871701
:1005A000E72B700C83160313031C0713031807179C
:1005B000E72B700C83160313031C8712031887168E
:1005C000E72B700C83160313031C0712031807167E
:1005D000E72B700C83160313031C87110318871570
:1005E000E72B700C83160313031C07110318071560
:1005F000E72B700C83160313031C87100318871452
:10060000E72B700C83160313031C07100318071441
:10061000E72B700C83160313031C06100318061433
:10062000E72B700C83160313031C86100318861423
:10063000E72B700C83160313031C06110318061511
:10064000E72B700C83160313031C86110318861501
:10065000E72B700C83160313031C061203180616EF
:10066000E72B700C83160313031C861203188616DF
:10067000E72B700C83160313031C061303180617CD
:10068000E72B700C83160313031C861303188617BD
:10069000E72B700C83160313031C081003180814AF
:1006A000E72B700C83160313031C8810031888149F
:1006B000E72B700C83160313031C0811031808158D
:1006C000E72B700C83160313031C8811031888157D
:1006D000E72B700C83160313031C0812031808166B
:1006E000E72B700C83160313031C8812031888165B
:1006F000E72B700C83160313031C08130318081749
:10070000E72B700C83160313031C88130318881738
:10071000E72B700C83160313031C05120318051630
:10072000E72BE72B7308F100F2017208003A031976
:100730009A2BE72B7108003A0319C92A013A0319C9
:10074000D12A033A0319D92A013A0319E12A073AAF
:100750000319E92A013A0319F12A033A0319F92A7C
:10076000013A0319012B0F3A0319092B013A031916
:10077000112B033A0319192B013A0319212B073ABC
:100780000319292B013A0319312B033A0319392B89
:10079000013A0319412B1F3A0319492B013A031956
:1007A000512B033A0319592B013A0319612B073ACC
:1007B0000319692B013A0319712B033A0319792B99
:1007C000013A0319812B0F3A0319892BE72B0800F3
:1007D000F300B52C700C83120313031C871303184A
:1007E00087170A2D700C83120313031C07130318B9
:1007F00007170A2D700C83120313031C87120318AA
:1008000087160A2D700C83120313031C071203189A
:1008100007160A2D700C83120313031C871103188B
:1008200087150A2D831203139701700C031C0711FF
:10083000031807150A2D831203139D01700C031C66
:100840008710031887140A2D700C83120313031CDE
:100850000710031807140A2D700C83120313031CCE
:100860000610031806140A2D700C83120313031CC0
:100870008610031886140A2D700C83120313031CB0
:100880000611031806150A2D700C83120313031C9E
:100890008611031886150A2D700C83120313031C8E
:1008A0000612031806160A2D700C83120313031C7C
:1008B0008612031886160A2D700C83120313031C6C
:1008C0000613031806170A2D700C83120313031C5A
:1008D0008613031886170A2D700C83120313031C4A
:1008E0000810031808140A2D700C83120313031C3C
:1008F0008810031888140A2D700C83120313031C2C
:100900000811031808150A2D700C83120313031C19
:100910008811031888150A2D700C83120313031C09
:100920000812031808160A2D700C83120313031CF7
:100930008812031888160A2D700C83120313031CE7
:100940000813031808170A2D700C83120313031CD5
:100950008813031888170A2D700C83120313031CC5
:100960000512031805160A2D0A2D7308F100F2016D
:100970007208003A0319BD2C0A2D7108003A0319B8
:10098000EA2B013A0319F22B033A0319FA2B013A25
:100990000319022C073A03190A2C013A0319122CE5
:1009A000033A03191B2C013A0319242C0F3A03199B
:1009B0002C2C013A0319342C033A03193C2C013A2C
:1009C0000319442C073A03194C2C013A0319542CEF
:1009D000033A03195C2C013A0319642C1F3A0319DA
:1009E0006C2C013A0319742C033A03197C2C013A3C
:1009F0000319842C073A03198C2C013A0319942CFF
:100A0000033A03199C2C013A0319A42C0F3A031939
:100A1000AC2C0A2D0800F6007E2FF0018312031380
:100A20003D080A128A11E8230A128A11F001831282
:100A300003133E080A128A11E8230A128A11F001F0
:100A4000831203133F080A128A11E8230A128A113B
:100A5000F0018312031340080A128A11E8230A12D4
:100A60008A11B82FF001831203133D080A128A116C
:100A7000E8230A128A11F001831203133E080A12B6
:100A80008A11E8230A128A11F001831203133F0826
:100A90000A128A11E8230A128A11F001F00A83125D
:100AA000031340080A128A11E8230A128A11B82F88
:100AB000F001831203133D080A128A11E8230A1277
:100AC0008A11F001831203133E080A128A11E823E7
:100AD0000A128A11F001F00A831203133F080A1266
:100AE0008A11E8230A128A11F001831203134008C5
:100AF0000A128A11E8230A128A11B82FF001831210
:100B000003133D080A128A11E8230A128A11F00120
:100B1000831203133E080A128A11E8230A128A116B
:100B2000F001F00A831203133F080A128A11E82326
:100B30000A128A11F001F00A8312031340080A1204
:100B40008A11E8230A128A11B82FF00183120313C5
:100B50003D080A128A11E8230A128A11F001F00AEC
:100B6000831203133E080A128A11E8230A128A111B
:100B7000F001831203133F080A128A11E8230A12B4
:100B80008A11F0018312031340080A128A11E82324
:100B90000A128A11B82FF001831203133D080A12BA
:100BA0008A11E8230A128A11F001F00A8312031352
:100BB0003E080A128A11E8230A128A11F0018312F0
:100BC00003133F080A128A11E8230A128A11F0015E
:100BD000F00A8312031340080A128A11E8230A124A
:100BE0008A11B82FF001831203133D080A128A11EB
:100BF000E8230A128A11F001F00A831203133E0857
:100C00000A128A11E8230A128A11F001F00A8312EB
:100C100003133F080A128A11E8230A128A11F0010D
:100C20008312031340080A128A11E8230A128A1158
:100C3000B82FF001831203133D080A128A11E8232A
:100C40000A128A11F001F00A831203133E080A12F5
:100C50008A11E8230A128A11F001F00A83120313A1
:100C60003F080A128A11E8230A128A11F001F00AD9
:100C70008312031340080A128A11E8230A128A1108
:100C8000B82FF001F00A831203133D080A128A11EB
:100C9000E8230A128A11F001831203133E080A1294
:100CA0008A11E8230A128A11F001831203133F0804
:100CB0000A128A11E8230A128A11F001831203131F
:100CC00040080A128A11E8230A128A11B82FF0018B
:100CD000F00A831203133D080A128A11E8230A124C
:100CE0008A11F001831203133E080A128A11E823C5
:100CF0000A128A11F001831203133F080A128A11A3
:100D0000E8230A128A11F001F00A83120313400843
:100D10000A128A11E8230A128A11B82FF001F00A88
:100D2000831203133D080A128A11E8230A128A115A
:100D3000F001831203133E080A128A11E8230A12F3
:100D40008A11F001F00A831203133F080A128A1174
:100D5000E8230A128A11F0018312031340080A12D1
:100D60008A11E8230A128A11B82FF001F00A8312BF
:100D700003133D080A128A11E8230A128A11F001AE
:100D8000831203133E080A128A11E8230A128A11F9
:100D9000F001F00A831203133F080A128A11E823B4
:100DA0000A128A11F001F00A8312031340080A1292
:100DB0008A11E8230A128A11B82FF001F00A83126F
:100DC00003133D080A128A11E8230A128A11F0015E
:100DD000F00A831203133E080A128A11E8230A124A
:100DE0008A11F001831203133F080A128A11E823C3
:100DF0000A128A11F0018312031340080A128A11A1
:100E0000E8230A128A11B82FF001F00A83120313A3
:100E10003D080A128A11E8230A128A11F001F00A29
:100E2000831203133E080A128A11E8230A128A1158
:100E3000F001831203133F080A128A11E8230A12F1
:100E40008A11F001F00A8312031340080A128A1172
:100E5000E8230A128A11B82FF001F00A8312031353
:100E60003D080A128A11E8230A128A11F001F00AD9
:100E7000831203133E080A128A11E8230A128A1108
:100E8000F001F00A831203133F080A128A11E823C3
:100E90000A128A11F0018312031340080A128A1100
:100EA000E8230A128A11B82FF001F00A8312031303
:100EB0003D080A128A11E8230A128A11F001F00A89
:100EC000831203133E080A128A11E8230A128A11B8
:100ED000F001F00A831203133F080A128A11E82373
:100EE0000A128A11F001F00A8312031340080A1251
:100EF0008A11E8230A128A11B82FB82F7608F40055
:100F0000F5017508003A0319862FB82F7408003AC6
:100F100003190D2D013A0319322D033A0319582DE7
:100F2000013A03197E2D073A0319A52D013A031939
:100F3000CB2D033A0319F22D013A0319192E0F3A5A
:100F40000319412E013A0319672E033A03198E2E15
:100F5000013A0319B52E073A0319DD2E013A031998
:100F6000042F033A03192C2F013A0319542FB82FD9
:100F700008008317EE30FD000F30FE006630FF00E2
:100F8000D03084000A128A1543270A128A1183136B
:100F9000E430FD000F30FE000230FF00DF3084003F
:100FA0000A128A1543270A128A116330FD000F3096
:100FB000FE001E30FF00533084000A128A154327BA
:100FC0000A128A11831790308400D0300A128A15D1
:100FD00007270A128A118313A0308400DF300A1217
:100FE0008A1507270A128A112030840053300A120A
:100FF0008A1507270A128A1183010A128A15522FAD
:101E04000234283401340C34063464008001840A1A
:101E14000406031900340406082FFF308316031345
:101E2400920005308312031392009B0195010C303C
:101E340097000C309D0008000A340034203410341C
:101E440080344034013402340834043430343034BF
:101E540004340834FF341434FC000830F00000303B
:101E6400F1000A128A1193200A128A157C080A12B8
:101E74008A11C0210A128A1508007E088A007F0888
:101E840082000A128A153F270A128A158000840AE2
:101E940004087D0603190034FF0A0319FE0A432FC0
:101EA4000A128A15D4270A128A150A128A11E12005
:101EB4000A128A155D2F0A128A1584270A128A15B6
:101EC4005D2F0A128A11002800340134FF340034D3
:101ED400FF34003400340134013400340034FF345E
:101EE4000034FF3401340034FC346034DA34F23426
:101EF4006634B634BE34E034FE34F634FA343E3458
:101F04009E346E34F001F00A0B3084000A128A11F8
:101F14000D200A128A150A128A11E8230A128A1558
:101F2400A32FF001F00A0B3084000A128A110D204D
:101F34000A128A150A128A11E8230A128A150B1149
:101F4400A32F0B1DA62FA72F932FA82F08008312B2
:101F54000313E500E301E401C52F6308650784006A
:101F64000A128A110D200A128A150A128A152E27BE
:101F74000A128A15013083120313E3070318E40AD3
:101F84000030E407C52F6308650784000A128A112C
:101F94000D200A128A15003A031DD12FD22FAF2F1C
:101FA400D32F08008130831203139F00C23083169D
:101FB40003139F0085013F308500831203138601BC
:101FC4008316031386018312031386018701831684
:101FD400031387018312031387010A128A150F273B
:101FE4000A128A15880100308808880183120313B5
:0C1FF400890107308316031389000800E0
:08400000FF3FFF3FFF3FFF3FC0
:02400E00BA3FB7
:00000001FF
