:020000040000FA
:060000000A128A11FC2F18
:100B6A00FF30831603139200053083120313920099
:100B7A000C3097000C309D000800F00106300A1274
:100B8A008A11DB260A128A11F00105300A128A112B
:100B9A00DB260A128A1108000A128A11E6250A12AD
:100BAA008A110A128A11C2250A128A11DC2D0A1226
:100BBA008A110A260A128A11DC2DDC2D0A128A11E0
:100BCA0000288130831203139F00C2308316031357
:100BDA009F0085013F30850086010030860086012E
:100BEA0087010030870087010A128A11B5250A1287
:100BFA008A11880100308808880183120313890149
:100C0A0007308316031389000800C830F00000304B
:100C1A00F10006300A128A1145260A128A11C830D2
:100C2A00F0000030F10005300A128A1145260A1236
:100C3A008A116430F0000030F1000A128A118D2600
:100C4A000A128A11F430F0000130F10006300A125B
:100C5A008A1145260A128A11F430F0000130F10097
:100C6A0005300A128A1145260A128A116430F000E8
:100C7A000030F1000A128A118D260A128A11080020
:100C8A00F4007C2E7108F3007008F2000310F30CD4
:100C9A00F20C0310F30CF20C7208831203139B007C
:100CAA009D127018592E5D2E831203131D16602E85
:100CBA00831203131D128C2E7108F3007008F200C0
:100CCA000310F30CF20C0310F30CF20C72088312EB
:100CDA000313950097127018732E772E831203133D
:100CEA0017167A2E8312031317128C2E8C2E740861
:100CFA00F200F3017308003A0319842E8C2E72084D
:100D0A00053A0319612E033A0319472E8C2E08005F
:100D1A00F301F4017408803AF2007108803A720211
:100D2A00031D992E70087302031C9C2E9D2E9F2E64
:100D3A00DA2EDA2EF501F6017608803AFF008130C4
:100D4A007F02031DAA2E90307502031CAD2EAE2E13
:100D5A00B02EC52EC52E00000130F5070318F60A7D
:100D6A000030F6077608803AFF0081307F02031DC3
:100D7A00C02E90307502031CC32EC42EB02EC52E71
:100D8A000130F3070318F40A0030F4077408803AB4
:100D9A00F2007108803A7202031DD52E70087302A0
:100DAA00031CD82ED92E9F2EDA2E0800F300A62F68
:100DBA00700C83160313031C871303188717FB2F62
:100DCA00700C83160313031C071303180717FB2F52
:100DDA00700C83160313031C871203188716FB2F44
:100DEA00700C83160313031C071203180716FB2F34
:100DFA00700C83160313031C871103188715FB2F26
:100E0A00700C83160313031C071103180715FB2F15
:100E1A00700C83160313031C871003188714FB2F07
:100E2A00700C83160313031C071003180714FB2FF7
:100E3A00700C83160313031C061003180614FB2FE9
:100E4A00700C83160313031C861003188614FB2FD9
:100E5A00700C83160313031C061103180615FB2FC7
:100E6A00700C83160313031C861103188615FB2FB7
:100E7A00700C83160313031C061203180616FB2FA5
:100E8A00700C83160313031C861203188616FB2F95
:100E9A00700C83160313031C061303180617FB2F83
:100EAA00700C83160313031C861303188617FB2F73
:100EBA00700C83160313031C081003180814FB2F65
:100ECA00700C83160313031C881003188814FB2F55
:100EDA00700C83160313031C081103180815FB2F43
:100EEA00700C83160313031C881103188815FB2F33
:100EFA00700C83160313031C081203180816FB2F21
:100F0A00700C83160313031C881203188816FB2F10
:100F1A00700C83160313031C081303180817FB2FFE
:100F2A00700C83160313031C881303188817FB2FEE
:100F3A00700C83160313031C051203180516FB2FE6
:100F4A00FB2F7308F100F2017208003A0319AE2F61
:100F5A00FB2F7108003A0319DD2E013A0319E52E19
:100F6A00033A0319ED2E013A0319F52E073A03192C
:100F7A00FD2E013A0319052F033A03190D2F013AE1
:100F8A000319152F0F3A03191D2F013A0319252F9B
:100F9A00033A03192D2F013A0319352F073A03197A
:100FAA003D2F013A0319452F033A03194D2F013AF0
:100FBA000319552F1F3A03195D2F013A0319652F9B
:100FCA00033A03196D2F013A0319752F073A0319CA
:100FDA007D2F013A0319852F033A03198D2F013A00
:100FEA000319952F0F3A03199D2FFB2F0800830130
:060FFA000A128A11D12D3C
:02400E00BA3FB7
:00000001FF
