:020000040000FA
:060000000A128A11FC2F18
:100F5E00080008004F30831203139D000800FF3075
:100F6E0083160313920005308312031392004F3041
:100F7E00970008000A128A11D6270A128A110A123D
:100F8E008A11B0270A128A11CC2F0A128A11AF27A2
:100F9E000A128A11CC2FCC2F0A128A110028813006
:100FAE00831203139F00C230831603139F00850123
:100FBE003F308500860100308600870100308700B3
:100FCE000A128A11B6270A128A110A128A11B12739
:100FDE000A128A11880100308808831203138901CE
:100FEE000730831603138900080083010A128A1141
:020FFE00C12F01
:02400E00BA3FB7
:00000001FF
